{
  "contractName": "MemeMarketplace",
  "abi": [
    {
      "inputs": [],
      "stateMutability": "nonpayable",
      "type": "constructor"
    },
    {
      "anonymous": false,
      "inputs": [
        {
          "indexed": true,
          "internalType": "uint256",
          "name": "itemId",
          "type": "uint256"
        },
        {
          "indexed": true,
          "internalType": "address",
          "name": "nftContract",
          "type": "address"
        },
        {
          "indexed": true,
          "internalType": "uint256",
          "name": "tokenId",
          "type": "uint256"
        },
        {
          "indexed": false,
          "internalType": "address",
          "name": "seller",
          "type": "address"
        },
        {
          "indexed": false,
          "internalType": "address",
          "name": "owner",
          "type": "address"
        },
        {
          "indexed": false,
          "internalType": "uint256",
          "name": "price",
          "type": "uint256"
        },
        {
          "indexed": false,
          "internalType": "bool",
          "name": "sold",
          "type": "bool"
        }
      ],
      "name": "MarketTokenMinted",
      "type": "event"
    },
    {
      "inputs": [],
      "name": "getListingPrice",
      "outputs": [
        {
          "internalType": "uint256",
          "name": "",
          "type": "uint256"
        }
      ],
      "stateMutability": "view",
      "type": "function",
      "constant": true
    },
    {
      "inputs": [
        {
          "internalType": "address",
          "name": "nftContract",
          "type": "address"
        },
        {
          "internalType": "uint256",
          "name": "tokenId",
          "type": "uint256"
        },
        {
          "internalType": "uint256",
          "name": "price",
          "type": "uint256"
        }
      ],
      "name": "makeMarketItem",
      "outputs": [],
      "stateMutability": "payable",
      "type": "function",
      "payable": true
    },
    {
      "inputs": [
        {
          "internalType": "address",
          "name": "nftContract",
          "type": "address"
        },
        {
          "internalType": "uint256",
          "name": "itemId",
          "type": "uint256"
        }
      ],
      "name": "createMarketSale",
      "outputs": [],
      "stateMutability": "payable",
      "type": "function",
      "payable": true
    },
    {
      "inputs": [],
      "name": "fetchMarketTokens",
      "outputs": [
        {
          "components": [
            {
              "internalType": "uint256",
              "name": "itemId",
              "type": "uint256"
            },
            {
              "internalType": "address",
              "name": "nftContract",
              "type": "address"
            },
            {
              "internalType": "uint256",
              "name": "tokenId",
              "type": "uint256"
            },
            {
              "internalType": "address payable",
              "name": "seller",
              "type": "address"
            },
            {
              "internalType": "address payable",
              "name": "owner",
              "type": "address"
            },
            {
              "internalType": "uint256",
              "name": "price",
              "type": "uint256"
            },
            {
              "internalType": "bool",
              "name": "sold",
              "type": "bool"
            }
          ],
          "internalType": "struct MemeMarketplace.MarketToken[]",
          "name": "",
          "type": "tuple[]"
        }
      ],
      "stateMutability": "view",
      "type": "function",
      "constant": true
    },
    {
      "inputs": [],
      "name": "fetchMyNFTs",
      "outputs": [
        {
          "components": [
            {
              "internalType": "uint256",
              "name": "itemId",
              "type": "uint256"
            },
            {
              "internalType": "address",
              "name": "nftContract",
              "type": "address"
            },
            {
              "internalType": "uint256",
              "name": "tokenId",
              "type": "uint256"
            },
            {
              "internalType": "address payable",
              "name": "seller",
              "type": "address"
            },
            {
              "internalType": "address payable",
              "name": "owner",
              "type": "address"
            },
            {
              "internalType": "uint256",
              "name": "price",
              "type": "uint256"
            },
            {
              "internalType": "bool",
              "name": "sold",
              "type": "bool"
            }
          ],
          "internalType": "struct MemeMarketplace.MarketToken[]",
          "name": "",
          "type": "tuple[]"
        }
      ],
      "stateMutability": "view",
      "type": "function",
      "constant": true
    },
    {
      "inputs": [],
      "name": "fetchItemsCreated",
      "outputs": [
        {
          "components": [
            {
              "internalType": "uint256",
              "name": "itemId",
              "type": "uint256"
            },
            {
              "internalType": "address",
              "name": "nftContract",
              "type": "address"
            },
            {
              "internalType": "uint256",
              "name": "tokenId",
              "type": "uint256"
            },
            {
              "internalType": "address payable",
              "name": "seller",
              "type": "address"
            },
            {
              "internalType": "address payable",
              "name": "owner",
              "type": "address"
            },
            {
              "internalType": "uint256",
              "name": "price",
              "type": "uint256"
            },
            {
              "internalType": "bool",
              "name": "sold",
              "type": "bool"
            }
          ],
          "internalType": "struct MemeMarketplace.MarketToken[]",
          "name": "",
          "type": "tuple[]"
        }
      ],
      "stateMutability": "view",
      "type": "function",
      "constant": true
    }
  ],
  "bytecode": "0x6080604052669fdf42f6e4800060045534801561001b57600080fd5b50600160008190555033600360006101000a81548173ffffffffffffffffffffffffffffffffffffffff021916908373ffffffffffffffffffffffffffffffffffffffff160217905550611936806100746000396000f3fe6080604052600436106100555760003560e01c806312e855851461005a578063202e3740146100855780637a060f56146100b0578063c23b139e146100cc578063c69bdf75146100e8578063f064c32e14610113575b600080fd5b34801561006657600080fd5b5061006f61013e565b60405161007c91906111a5565b60405180910390f35b34801561009157600080fd5b5061009a610148565b6040516100a79190611389565b60405180910390f35b6100ca60048036038101906100c59190611408565b6104aa565b005b6100e660048036038101906100e1919061145b565b61080d565b005b3480156100f457600080fd5b506100fd610ac5565b60405161010a9190611389565b60405180910390f35b34801561011f57600080fd5b50610128610d85565b6040516101359190611389565b60405180910390f35b6000600454905090565b6060600061015660016110e7565b905060008060005b838110156101fe573373ffffffffffffffffffffffffffffffffffffffff166005600060018461018e91906114ca565b815260200190815260200160002060040160009054906101000a900473ffffffffffffffffffffffffffffffffffffffff1673ffffffffffffffffffffffffffffffffffffffff16036101eb576001836101e891906114ca565b92505b80806101f690611520565b91505061015e565b5060008267ffffffffffffffff81111561021b5761021a611568565b5b60405190808252806020026020018201604052801561025457816020015b61024161110b565b8152602001906001900390816102395790505b50905060005b8481101561049f573373ffffffffffffffffffffffffffffffffffffffff166005600060018461028a91906114ca565b815260200190815260200160002060040160009054906101000a900473ffffffffffffffffffffffffffffffffffffffff1673ffffffffffffffffffffffffffffffffffffffff160361048c576000600560006001846102ea91906114ca565b81526020019081526020016000206000015490506000600560008381526020019081526020016000209050806040518060e0016040529081600082015481526020016001820160009054906101000a900473ffffffffffffffffffffffffffffffffffffffff1673ffffffffffffffffffffffffffffffffffffffff1673ffffffffffffffffffffffffffffffffffffffff168152602001600282015481526020016003820160009054906101000a900473ffffffffffffffffffffffffffffffffffffffff1673ffffffffffffffffffffffffffffffffffffffff1673ffffffffffffffffffffffffffffffffffffffff1681526020016004820160009054906101000a900473ffffffffffffffffffffffffffffffffffffffff1673ffffffffffffffffffffffffffffffffffffffff1673ffffffffffffffffffffffffffffffffffffffff168152602001600582015481526020016006820160009054906101000a900460ff16151515158152505084868151811061046f5761046e611597565b5b602002602001018190525060018561048791906114ca565b945050505b808061049790611520565b91505061025a565b508094505050505090565b6002600054036104ef576040517f08c379a00000000000000000000000000000000000000000000000000000000081526004016104e690611623565b60405180910390fd5b60026000819055506000811161053a576040517f08c379a00000000000000000000000000000000000000000000000000000000081526004016105319061168f565b60405180910390fd5b600454341161057e576040517f08c379a000000000000000000000000000000000000000000000000000000000815260040161057590611721565b60405180910390fd5b61058860016110f5565b600061059460016110e7565b90506040518060e001604052808281526020018573ffffffffffffffffffffffffffffffffffffffff1681526020018481526020013373ffffffffffffffffffffffffffffffffffffffff168152602001600073ffffffffffffffffffffffffffffffffffffffff16815260200183815260200160001515815250600560008381526020019081526020016000206000820151816000015560208201518160010160006101000a81548173ffffffffffffffffffffffffffffffffffffffff021916908373ffffffffffffffffffffffffffffffffffffffff1602179055506040820151816002015560608201518160030160006101000a81548173ffffffffffffffffffffffffffffffffffffffff021916908373ffffffffffffffffffffffffffffffffffffffff16021790555060808201518160040160006101000a81548173ffffffffffffffffffffffffffffffffffffffff021916908373ffffffffffffffffffffffffffffffffffffffff16021790555060a0820151816005015560c08201518160060160006101000a81548160ff0219169083151502179055509050508373ffffffffffffffffffffffffffffffffffffffff166323b872dd3330866040518463ffffffff1660e01b815260040161077593929190611750565b600060405180830381600087803b15801561078f57600080fd5b505af11580156107a3573d6000803e3d6000fd5b50505050828473ffffffffffffffffffffffffffffffffffffffff16827fcd9b0dfebab7db4dbe70606f69fadc8e987e7c80a65410f0bb5ae8bd72dabba73360008760006040516107f794939291906117f5565b60405180910390a4506001600081905550505050565b600260005403610852576040517f08c379a000000000000000000000000000000000000000000000000000000000815260040161084990611623565b60405180910390fd5b60026000819055506000600560008381526020019081526020016000206005015490506000600560008481526020019081526020016000206002015490508134146108d2576040517f08c379a00000000000000000000000000000000000000000000000000000000081526004016108c9906118ac565b60405180910390fd5b6005600084815260200190815260200160002060030160009054906101000a900473ffffffffffffffffffffffffffffffffffffffff1673ffffffffffffffffffffffffffffffffffffffff166108fc349081150290604051600060405180830381858888f1935050505015801561094e573d6000803e3d6000fd5b508373ffffffffffffffffffffffffffffffffffffffff166323b872dd3033846040518463ffffffff1660e01b815260040161098c93929190611750565b600060405180830381600087803b1580156109a657600080fd5b505af11580156109ba573d6000803e3d6000fd5b50505050336005600085815260200190815260200160002060040160006101000a81548173ffffffffffffffffffffffffffffffffffffffff021916908373ffffffffffffffffffffffffffffffffffffffff16021790555060016005600085815260200190815260200160002060060160006101000a81548160ff021916908315150217905550610a4c60026110f5565b600360009054906101000a900473ffffffffffffffffffffffffffffffffffffffff1673ffffffffffffffffffffffffffffffffffffffff166108fc6004549081150290604051600060405180830381858888f19350505050158015610ab6573d6000803e3d6000fd5b50505060016000819055505050565b60606000610ad360016110e7565b90506000610ae160026110e7565b82610aec91906118cc565b90506000808267ffffffffffffffff811115610b0b57610b0a611568565b5b604051908082528060200260200182016040528015610b4457816020015b610b3161110b565b815260200190600190039081610b295790505b50905060005b84811015610d7a57600073ffffffffffffffffffffffffffffffffffffffff1660056000600184610b7b91906114ca565b815260200190815260200160002060040160009054906101000a900473ffffffffffffffffffffffffffffffffffffffff1673ffffffffffffffffffffffffffffffffffffffff1603610d67576000600182610bd791906114ca565b90506000600560008381526020019081526020016000209050806040518060e0016040529081600082015481526020016001820160009054906101000a900473ffffffffffffffffffffffffffffffffffffffff1673ffffffffffffffffffffffffffffffffffffffff1673ffffffffffffffffffffffffffffffffffffffff168152602001600282015481526020016003820160009054906101000a900473ffffffffffffffffffffffffffffffffffffffff1673ffffffffffffffffffffffffffffffffffffffff1673ffffffffffffffffffffffffffffffffffffffff1681526020016004820160009054906101000a900473ffffffffffffffffffffffffffffffffffffffff1673ffffffffffffffffffffffffffffffffffffffff1673ffffffffffffffffffffffffffffffffffffffff168152602001600582015481526020016006820160009054906101000a900460ff161515151581525050848681518110610d4a57610d49611597565b5b6020026020010181905250600185610d6291906114ca565b945050505b8080610d7290611520565b915050610b4a565b508094505050505090565b60606000610d9360016110e7565b905060008060005b83811015610e3b573373ffffffffffffffffffffffffffffffffffffffff1660056000600184610dcb91906114ca565b815260200190815260200160002060030160009054906101000a900473ffffffffffffffffffffffffffffffffffffffff1673ffffffffffffffffffffffffffffffffffffffff1603610e2857600183610e2591906114ca565b92505b8080610e3390611520565b915050610d9b565b5060008267ffffffffffffffff811115610e5857610e57611568565b5b604051908082528060200260200182016040528015610e9157816020015b610e7e61110b565b815260200190600190039081610e765790505b50905060005b848110156110dc573373ffffffffffffffffffffffffffffffffffffffff1660056000600184610ec791906114ca565b815260200190815260200160002060030160009054906101000a900473ffffffffffffffffffffffffffffffffffffffff1673ffffffffffffffffffffffffffffffffffffffff16036110c957600060056000600184610f2791906114ca565b81526020019081526020016000206000015490506000600560008381526020019081526020016000209050806040518060e0016040529081600082015481526020016001820160009054906101000a900473ffffffffffffffffffffffffffffffffffffffff1673ffffffffffffffffffffffffffffffffffffffff1673ffffffffffffffffffffffffffffffffffffffff168152602001600282015481526020016003820160009054906101000a900473ffffffffffffffffffffffffffffffffffffffff1673ffffffffffffffffffffffffffffffffffffffff1673ffffffffffffffffffffffffffffffffffffffff1681526020016004820160009054906101000a900473ffffffffffffffffffffffffffffffffffffffff1673ffffffffffffffffffffffffffffffffffffffff1673ffffffffffffffffffffffffffffffffffffffff168152602001600582015481526020016006820160009054906101000a900460ff1615151515815250508486815181106110ac576110ab611597565b5b60200260200101819052506001856110c491906114ca565b945050505b80806110d490611520565b915050610e97565b508094505050505090565b600081600001549050919050565b6001816000016000828254019250508190555050565b6040518060e0016040528060008152602001600073ffffffffffffffffffffffffffffffffffffffff16815260200160008152602001600073ffffffffffffffffffffffffffffffffffffffff168152602001600073ffffffffffffffffffffffffffffffffffffffff168152602001600081526020016000151581525090565b6000819050919050565b61119f8161118c565b82525050565b60006020820190506111ba6000830184611196565b92915050565b600081519050919050565b600082825260208201905092915050565b6000819050602082019050919050565b6111f58161118c565b82525050565b600073ffffffffffffffffffffffffffffffffffffffff82169050919050565b6000611226826111fb565b9050919050565b6112368161121b565b82525050565b6000611247826111fb565b9050919050565b6112578161123c565b82525050565b60008115159050919050565b6112728161125d565b82525050565b60e08201600082015161128e60008501826111ec565b5060208201516112a1602085018261122d565b5060408201516112b460408501826111ec565b5060608201516112c7606085018261124e565b5060808201516112da608085018261124e565b5060a08201516112ed60a08501826111ec565b5060c082015161130060c0850182611269565b50505050565b60006113128383611278565b60e08301905092915050565b6000602082019050919050565b6000611336826111c0565b61134081856111cb565b935061134b836111dc565b8060005b8381101561137c5781516113638882611306565b975061136e8361131e565b92505060018101905061134f565b5085935050505092915050565b600060208201905081810360008301526113a3818461132b565b905092915050565b600080fd5b6113b98161121b565b81146113c457600080fd5b50565b6000813590506113d6816113b0565b92915050565b6113e58161118c565b81146113f057600080fd5b50565b600081359050611402816113dc565b92915050565b600080600060608486031215611421576114206113ab565b5b600061142f868287016113c7565b9350506020611440868287016113f3565b9250506040611451868287016113f3565b9150509250925092565b60008060408385031215611472576114716113ab565b5b6000611480858286016113c7565b9250506020611491858286016113f3565b9150509250929050565b7f4e487b7100000000000000000000000000000000000000000000000000000000600052601160045260246000fd5b60006114d58261118c565b91506114e08361118c565b9250827fffffffffffffffffffffffffffffffffffffffffffffffffffffffffffffffff038211156115155761151461149b565b5b828201905092915050565b600061152b8261118c565b91507fffffffffffffffffffffffffffffffffffffffffffffffffffffffffffffffff820361155d5761155c61149b565b5b600182019050919050565b7f4e487b7100000000000000000000000000000000000000000000000000000000600052604160045260246000fd5b7f4e487b7100000000000000000000000000000000000000000000000000000000600052603260045260246000fd5b600082825260208201905092915050565b7f5265656e7472616e637947756172643a207265656e7472616e742063616c6c00600082015250565b600061160d601f836115c6565b9150611618826115d7565b602082019050919050565b6000602082019050818103600083015261163c81611600565b9050919050565b7f5072696365206d757374206265206174206c65617374206f6e65207765690000600082015250565b6000611679601e836115c6565b915061168482611643565b602082019050919050565b600060208201905081810360008301526116a88161166c565b9050919050565b7f7472616e73616374696f6e2076616c7565206d75737420626520657175616c2060008201527f746f206c697374696e6720707269636500000000000000000000000000000000602082015250565b600061170b6030836115c6565b9150611716826116af565b604082019050919050565b6000602082019050818103600083015261173a816116fe565b9050919050565b61174a8161121b565b82525050565b60006060820190506117656000830186611741565b6117726020830185611741565b61177f6040830184611196565b949350505050565b6000819050919050565b60006117ac6117a76117a2846111fb565b611787565b6111fb565b9050919050565b60006117be82611791565b9050919050565b60006117d0826117b3565b9050919050565b6117e0816117c5565b82525050565b6117ef8161125d565b82525050565b600060808201905061180a60008301876117d7565b6118176020830186611741565b6118246040830185611196565b61183160608301846117e6565b95945050505050565b7f506c65617365207375626d6974207468652061736b696e67207072696365206960008201527f6e206f7264657220746f20636f6e74696e756500000000000000000000000000602082015250565b60006118966033836115c6565b91506118a18261183a565b604082019050919050565b600060208201905081810360008301526118c581611889565b9050919050565b60006118d78261118c565b91506118e28361118c565b9250828210156118f5576118f461149b565b5b82820390509291505056fea26469706673582212204f2ab56313d22dbd3f0d64cb373a4bed7487d0fb4da0d6b32fb38381b18ec16a64736f6c634300080d0033",
  "immutableReferences": {},
  "source": "//SPDX-License-Identifier: MIT\r\npragma solidity ^0.8.4;\r\n\r\nimport '@openzeppelin/contracts/token/ERC721/ERC721.sol';\r\n// security against transactions for multiple request\r\nimport '@openzeppelin/contracts/security/ReentrancyGuard.sol';\r\nimport '@openzeppelin/contracts/utils/Counters.sol';\r\n\r\ncontract MemeMarketplace is ReentrancyGuard {\r\n    using Counters for Counters.Counter;\r\n\r\n    /* number of items minting, number of transactions, token that have not been sold\r\n    keep track of tokens total number - tokenId\r\n    arrays need to know the lentgth - help to keep track for arrays */\r\n\r\n    Counters.Counter private _tokenIds;\r\n    Counters.Counter private _tokensSold;\r\n\r\n    // determine who is the owner of the contract\r\n    // charge a listing fee so the owner makes a commission\r\n\r\n    address payable owner;\r\n    // we are deploying to matic the API is the same so you can use ether the same as matic\r\n    // they both have 18 deimal\r\n    // mind the matic vs ether price!\r\n    uint256 listingPrice = 0.045 ether;\r\n\r\n    constructor() {\r\n        //set the owner\r\n        owner = payable(msg.sender);\r\n    }\r\n\r\n    // structs can act like objects\r\n\r\n    struct MarketToken {\r\n        uint itemId;\r\n        address nftContract;\r\n        uint256 tokenId;\r\n        address payable seller;\r\n        address payable owner;\r\n        uint256 price;\r\n        bool sold;\r\n    }\r\n\r\n    // tokenId return which marketToken - fetch which one it is\r\n\r\n    mapping(uint256 => MarketToken) private idToMarketToken;\r\n\r\n    // listen to events from front end applications\r\n    event MarketTokenMinted(\r\n        uint indexed itemId,\r\n        address indexed nftContract,\r\n        uint indexed tokenId,\r\n        address seller,\r\n        address owner,\r\n        uint256 price,\r\n        bool sold\r\n    );\r\n\r\n    // get the listing price\r\n    function getListingPrice() public view returns (uint256) {\r\n        return listingPrice;\r\n    }\r\n\r\n    // two functios to interact with contract\r\n    // 1. create a market item to put it up for sale\r\n    // 2. create a market sale for buying and selling between parties\r\n\r\n    function makeMarketItem(\r\n        address nftContract,\r\n        uint tokenId,\r\n        uint price\r\n    ) \r\n    public payable nonReentrant {\r\n        // nonReentrant is a modifier to prevent reentry attack\r\n\r\n        require(price > 0, 'Price must be at least one wei');\r\n        require(msg.value > listingPrice, 'transaction value must be equal to listing price');\r\n\r\n        _tokenIds.increment();\r\n        uint itemId = _tokenIds.current();\r\n\r\n        //putting it up for sale - bool - no owner\r\n        idToMarketToken[itemId] = MarketToken(\r\n            itemId,\r\n            nftContract,\r\n            tokenId,\r\n            payable(msg.sender),\r\n            payable(address(0)),\r\n            price,\r\n            false            \r\n        );\r\n\r\n        //NFT transaction\r\n        IERC721(nftContract).transferFrom(msg.sender, address(this), tokenId);\r\n\r\n        emit MarketTokenMinted(\r\n            itemId, \r\n            nftContract, \r\n            tokenId, \r\n            payable(msg.sender), \r\n            address(0), \r\n            price, \r\n            false\r\n        );\r\n\r\n    }\r\n\r\n    // function to conduct transactions and market sales\r\n\r\n    function createMarketSale(\r\n        address nftContract,\r\n        uint itemId\r\n    )\r\n    public payable nonReentrant {\r\n        uint price = idToMarketToken[itemId].price;\r\n        uint tokenId = idToMarketToken[itemId].tokenId;\r\n\r\n        require(msg.value == price, 'Please submit the asking price in order to continue');\r\n\r\n        // transfer the amount to the seller\r\n        idToMarketToken[itemId].seller.transfer(msg.value);\r\n\r\n        // transfer the token from contract address to the buyer\r\n        ERC721(nftContract).transferFrom(address(this), msg.sender, tokenId);\r\n        idToMarketToken[itemId].owner = payable(msg.sender);\r\n        idToMarketToken[itemId].sold = true;\r\n        _tokensSold.increment();\r\n\r\n        payable(owner).transfer(listingPrice);\r\n\r\n    }\r\n\r\n    //function to fetchMarketItems - minting, buying and selling\r\n    // return the number of unsold items\r\n\r\n    function fetchMarketTokens() public view returns(MarketToken[] memory) {\r\n        uint itemCount = _tokenIds.current();\r\n        uint unsoldItemCount = itemCount - _tokensSold.current();\r\n        uint currentIndex = 0;\r\n\r\n        // looping over the number of items created (if number has not been sold populate the array)\r\n        MarketToken[] memory items = new MarketToken[](unsoldItemCount);\r\n        for (uint i=0; i < itemCount; i++) {\r\n            if (idToMarketToken[i + 1].owner == address(0)) {\r\n                uint currentId = i + 1;\r\n                MarketToken storage currentItem = idToMarketToken[currentId];\r\n                items[currentIndex] = currentItem;\r\n                currentIndex += 1;\r\n            }\r\n        }\r\n        return items;\r\n    }\r\n\r\n    // return nfts that the user has purchased\r\n\r\n    function fetchMyNFTs() public view returns (MarketToken[] memory) {\r\n        uint totalItemCount = _tokenIds.current();\r\n        // a second counter for each individual user\r\n        uint itemCount = 0;\r\n        uint currentIndex = 0;\r\n\r\n        for (uint i = 0; i < totalItemCount; i++) {\r\n            if(idToMarketToken[i + 1].owner == msg.sender) {\r\n                itemCount += 1;\r\n            }\r\n        }\r\n\r\n        MarketToken[] memory items = new MarketToken[](itemCount);\r\n        for (uint i = 0; i < totalItemCount; i++) {\r\n            if (idToMarketToken[i + 1].owner == msg.sender) {\r\n                uint currentId = idToMarketToken[i + 1].itemId;\r\n                // current aray\r\n                MarketToken storage currenItem = idToMarketToken[currentId];\r\n                items[currentIndex] = currenItem;\r\n                currentIndex += 1;\r\n            }\r\n        }\r\n        return items;\r\n    }\r\n\r\n    //function for returning an array of minted nfts\r\n    function fetchItemsCreated() public view returns(MarketToken[] memory) {\r\n        // insted of owner, it will be the seller\r\n        uint totalItemCount = _tokenIds.current();\r\n        uint itemCount = 0;\r\n        uint currentIndex = 0;\r\n\r\n        for (uint i = 0; i < totalItemCount; i++) {\r\n            if (idToMarketToken[i + 1].seller == msg.sender) {\r\n                itemCount += 1;\r\n            }\r\n        }\r\n\r\n        MarketToken[] memory items = new MarketToken[](itemCount);\r\n\r\n        for (uint i = 0; i < totalItemCount; i++) {\r\n            if (idToMarketToken[i + 1].seller == msg.sender) {\r\n                uint currentId = idToMarketToken[i + 1].itemId;\r\n                MarketToken storage currentItem = idToMarketToken[currentId];\r\n                items[currentIndex] = currentItem;\r\n                currentIndex += 1;\r\n            }\r\n        }\r\n        return items;\r\n    }\r\n\r\n\r\n\r\n}",
  "sourcePath": "D:\\react-next-js\\meme-chain\\contracts\\MemeMarketplace.sol",
  "compiler": {
    "name": "solc",
    "version": "0.8.13+commit.abaa5c0e.Emscripten.clang"
  },
  "schemaVersion": "3.4.7",
  "updatedAt": "2022-06-12T09:18:15.070Z",
  "networkType": "ethereum",
  "devdoc": {
    "kind": "dev",
    "methods": {},
    "version": 1
  },
  "userdoc": {
    "kind": "user",
    "methods": {},
    "version": 1
  }
}