{
  "contractName": "MemeMarketplaceV2",
  "abi": [
    {
      "inputs": [],
      "stateMutability": "nonpayable",
      "type": "constructor"
    },
    {
      "anonymous": false,
      "inputs": [
        {
          "indexed": true,
          "internalType": "address",
          "name": "owner",
          "type": "address"
        },
        {
          "indexed": true,
          "internalType": "address",
          "name": "approved",
          "type": "address"
        },
        {
          "indexed": true,
          "internalType": "uint256",
          "name": "tokenId",
          "type": "uint256"
        }
      ],
      "name": "Approval",
      "type": "event"
    },
    {
      "anonymous": false,
      "inputs": [
        {
          "indexed": true,
          "internalType": "address",
          "name": "owner",
          "type": "address"
        },
        {
          "indexed": true,
          "internalType": "address",
          "name": "operator",
          "type": "address"
        },
        {
          "indexed": false,
          "internalType": "bool",
          "name": "approved",
          "type": "bool"
        }
      ],
      "name": "ApprovalForAll",
      "type": "event"
    },
    {
      "anonymous": false,
      "inputs": [
        {
          "indexed": true,
          "internalType": "uint256",
          "name": "itemId",
          "type": "uint256"
        },
        {
          "indexed": true,
          "internalType": "address",
          "name": "nftContract",
          "type": "address"
        },
        {
          "indexed": true,
          "internalType": "uint256",
          "name": "tokenId",
          "type": "uint256"
        },
        {
          "indexed": false,
          "internalType": "address",
          "name": "seller",
          "type": "address"
        },
        {
          "indexed": false,
          "internalType": "address",
          "name": "owner",
          "type": "address"
        },
        {
          "indexed": false,
          "internalType": "address",
          "name": "minter",
          "type": "address"
        },
        {
          "indexed": false,
          "internalType": "uint256",
          "name": "price",
          "type": "uint256"
        },
        {
          "indexed": false,
          "internalType": "bool",
          "name": "sold",
          "type": "bool"
        },
        {
          "indexed": false,
          "internalType": "bool",
          "name": "isExist",
          "type": "bool"
        }
      ],
      "name": "MarketTokenMinted",
      "type": "event"
    },
    {
      "anonymous": false,
      "inputs": [
        {
          "indexed": true,
          "internalType": "uint256",
          "name": "itemId",
          "type": "uint256"
        },
        {
          "indexed": false,
          "internalType": "uint256",
          "name": "likes",
          "type": "uint256"
        },
        {
          "indexed": false,
          "internalType": "uint256",
          "name": "dislikes",
          "type": "uint256"
        }
      ],
      "name": "TokenSocialEvent",
      "type": "event"
    },
    {
      "anonymous": false,
      "inputs": [
        {
          "indexed": true,
          "internalType": "address",
          "name": "from",
          "type": "address"
        },
        {
          "indexed": true,
          "internalType": "address",
          "name": "to",
          "type": "address"
        },
        {
          "indexed": true,
          "internalType": "uint256",
          "name": "tokenId",
          "type": "uint256"
        }
      ],
      "name": "Transfer",
      "type": "event"
    },
    {
      "inputs": [
        {
          "internalType": "address",
          "name": "to",
          "type": "address"
        },
        {
          "internalType": "uint256",
          "name": "tokenId",
          "type": "uint256"
        }
      ],
      "name": "approve",
      "outputs": [],
      "stateMutability": "nonpayable",
      "type": "function"
    },
    {
      "inputs": [
        {
          "internalType": "address",
          "name": "owner",
          "type": "address"
        }
      ],
      "name": "balanceOf",
      "outputs": [
        {
          "internalType": "uint256",
          "name": "",
          "type": "uint256"
        }
      ],
      "stateMutability": "view",
      "type": "function",
      "constant": true
    },
    {
      "inputs": [
        {
          "internalType": "uint256",
          "name": "tokenId",
          "type": "uint256"
        }
      ],
      "name": "getApproved",
      "outputs": [
        {
          "internalType": "address",
          "name": "",
          "type": "address"
        }
      ],
      "stateMutability": "view",
      "type": "function",
      "constant": true
    },
    {
      "inputs": [
        {
          "internalType": "address",
          "name": "owner",
          "type": "address"
        },
        {
          "internalType": "address",
          "name": "operator",
          "type": "address"
        }
      ],
      "name": "isApprovedForAll",
      "outputs": [
        {
          "internalType": "bool",
          "name": "",
          "type": "bool"
        }
      ],
      "stateMutability": "view",
      "type": "function",
      "constant": true
    },
    {
      "inputs": [],
      "name": "name",
      "outputs": [
        {
          "internalType": "string",
          "name": "",
          "type": "string"
        }
      ],
      "stateMutability": "view",
      "type": "function",
      "constant": true
    },
    {
      "inputs": [
        {
          "internalType": "uint256",
          "name": "tokenId",
          "type": "uint256"
        }
      ],
      "name": "ownerOf",
      "outputs": [
        {
          "internalType": "address",
          "name": "",
          "type": "address"
        }
      ],
      "stateMutability": "view",
      "type": "function",
      "constant": true
    },
    {
      "inputs": [
        {
          "internalType": "address",
          "name": "from",
          "type": "address"
        },
        {
          "internalType": "address",
          "name": "to",
          "type": "address"
        },
        {
          "internalType": "uint256",
          "name": "tokenId",
          "type": "uint256"
        }
      ],
      "name": "safeTransferFrom",
      "outputs": [],
      "stateMutability": "nonpayable",
      "type": "function"
    },
    {
      "inputs": [
        {
          "internalType": "address",
          "name": "from",
          "type": "address"
        },
        {
          "internalType": "address",
          "name": "to",
          "type": "address"
        },
        {
          "internalType": "uint256",
          "name": "tokenId",
          "type": "uint256"
        },
        {
          "internalType": "bytes",
          "name": "_data",
          "type": "bytes"
        }
      ],
      "name": "safeTransferFrom",
      "outputs": [],
      "stateMutability": "nonpayable",
      "type": "function"
    },
    {
      "inputs": [
        {
          "internalType": "address",
          "name": "operator",
          "type": "address"
        },
        {
          "internalType": "bool",
          "name": "approved",
          "type": "bool"
        }
      ],
      "name": "setApprovalForAll",
      "outputs": [],
      "stateMutability": "nonpayable",
      "type": "function"
    },
    {
      "inputs": [
        {
          "internalType": "bytes4",
          "name": "interfaceId",
          "type": "bytes4"
        }
      ],
      "name": "supportsInterface",
      "outputs": [
        {
          "internalType": "bool",
          "name": "",
          "type": "bool"
        }
      ],
      "stateMutability": "view",
      "type": "function",
      "constant": true
    },
    {
      "inputs": [],
      "name": "symbol",
      "outputs": [
        {
          "internalType": "string",
          "name": "",
          "type": "string"
        }
      ],
      "stateMutability": "view",
      "type": "function",
      "constant": true
    },
    {
      "inputs": [
        {
          "internalType": "uint256",
          "name": "tokenId",
          "type": "uint256"
        }
      ],
      "name": "tokenURI",
      "outputs": [
        {
          "internalType": "string",
          "name": "",
          "type": "string"
        }
      ],
      "stateMutability": "view",
      "type": "function",
      "constant": true
    },
    {
      "inputs": [
        {
          "internalType": "address",
          "name": "from",
          "type": "address"
        },
        {
          "internalType": "address",
          "name": "to",
          "type": "address"
        },
        {
          "internalType": "uint256",
          "name": "tokenId",
          "type": "uint256"
        }
      ],
      "name": "transferFrom",
      "outputs": [],
      "stateMutability": "nonpayable",
      "type": "function"
    },
    {
      "inputs": [],
      "name": "getListingPrice",
      "outputs": [
        {
          "internalType": "uint256",
          "name": "",
          "type": "uint256"
        }
      ],
      "stateMutability": "view",
      "type": "function",
      "constant": true
    },
    {
      "inputs": [],
      "name": "getTotalSoldCount",
      "outputs": [
        {
          "internalType": "uint256",
          "name": "",
          "type": "uint256"
        }
      ],
      "stateMutability": "view",
      "type": "function",
      "constant": true
    },
    {
      "inputs": [],
      "name": "getTotalSold",
      "outputs": [
        {
          "internalType": "uint256",
          "name": "",
          "type": "uint256"
        }
      ],
      "stateMutability": "view",
      "type": "function",
      "constant": true
    },
    {
      "inputs": [],
      "name": "getCount",
      "outputs": [
        {
          "internalType": "uint256",
          "name": "",
          "type": "uint256"
        }
      ],
      "stateMutability": "view",
      "type": "function",
      "constant": true
    },
    {
      "inputs": [
        {
          "internalType": "uint256",
          "name": "tokenId",
          "type": "uint256"
        }
      ],
      "name": "getSingleMarketToken",
      "outputs": [
        {
          "components": [
            {
              "internalType": "uint256",
              "name": "itemId",
              "type": "uint256"
            },
            {
              "internalType": "address",
              "name": "nftContract",
              "type": "address"
            },
            {
              "internalType": "uint256",
              "name": "tokenId",
              "type": "uint256"
            },
            {
              "internalType": "address payable",
              "name": "seller",
              "type": "address"
            },
            {
              "internalType": "address payable",
              "name": "owner",
              "type": "address"
            },
            {
              "internalType": "address payable",
              "name": "minter",
              "type": "address"
            },
            {
              "internalType": "uint256",
              "name": "price",
              "type": "uint256"
            },
            {
              "internalType": "bool",
              "name": "sold",
              "type": "bool"
            },
            {
              "internalType": "bool",
              "name": "isExist",
              "type": "bool"
            },
            {
              "internalType": "uint256",
              "name": "timeCreated",
              "type": "uint256"
            },
            {
              "internalType": "uint256",
              "name": "likes",
              "type": "uint256"
            },
            {
              "internalType": "uint256",
              "name": "dislikes",
              "type": "uint256"
            },
            {
              "internalType": "uint256",
              "name": "category",
              "type": "uint256"
            }
          ],
          "internalType": "struct MemeMarketplaceV2.MarketToken",
          "name": "",
          "type": "tuple"
        }
      ],
      "stateMutability": "view",
      "type": "function",
      "constant": true
    },
    {
      "inputs": [
        {
          "internalType": "uint256",
          "name": "tokenId",
          "type": "uint256"
        }
      ],
      "name": "isTokenExists",
      "outputs": [
        {
          "internalType": "bool",
          "name": "",
          "type": "bool"
        }
      ],
      "stateMutability": "view",
      "type": "function",
      "constant": true
    },
    {
      "inputs": [
        {
          "internalType": "uint256",
          "name": "tokenId",
          "type": "uint256"
        }
      ],
      "name": "getComments",
      "outputs": [
        {
          "components": [
            {
              "internalType": "address",
              "name": "addr",
              "type": "address"
            },
            {
              "internalType": "string",
              "name": "comment",
              "type": "string"
            }
          ],
          "internalType": "struct MemeMarketplaceV2.Comment[]",
          "name": "",
          "type": "tuple[]"
        }
      ],
      "stateMutability": "view",
      "type": "function",
      "constant": true
    },
    {
      "inputs": [
        {
          "internalType": "uint256",
          "name": "tokenId",
          "type": "uint256"
        }
      ],
      "name": "getLikeStatus",
      "outputs": [
        {
          "internalType": "uint256",
          "name": "",
          "type": "uint256"
        }
      ],
      "stateMutability": "view",
      "type": "function",
      "constant": true
    },
    {
      "inputs": [
        {
          "internalType": "uint256",
          "name": "newItemId",
          "type": "uint256"
        },
        {
          "internalType": "string",
          "name": "tokenURI",
          "type": "string"
        }
      ],
      "name": "mintToken",
      "outputs": [
        {
          "internalType": "uint256",
          "name": "",
          "type": "uint256"
        }
      ],
      "stateMutability": "nonpayable",
      "type": "function"
    },
    {
      "inputs": [
        {
          "internalType": "uint256",
          "name": "tokenId",
          "type": "uint256"
        }
      ],
      "name": "likeMeme",
      "outputs": [],
      "stateMutability": "payable",
      "type": "function",
      "payable": true
    },
    {
      "inputs": [
        {
          "internalType": "uint256",
          "name": "tokenId",
          "type": "uint256"
        }
      ],
      "name": "dislikeMeme",
      "outputs": [],
      "stateMutability": "payable",
      "type": "function",
      "payable": true
    },
    {
      "inputs": [
        {
          "internalType": "uint256",
          "name": "tokenId",
          "type": "uint256"
        },
        {
          "internalType": "string",
          "name": "comment",
          "type": "string"
        }
      ],
      "name": "commentMeme",
      "outputs": [],
      "stateMutability": "payable",
      "type": "function",
      "payable": true
    },
    {
      "inputs": [
        {
          "internalType": "uint256",
          "name": "tokenId",
          "type": "uint256"
        },
        {
          "internalType": "uint256",
          "name": "price",
          "type": "uint256"
        },
        {
          "internalType": "string",
          "name": "tokenURI",
          "type": "string"
        },
        {
          "internalType": "uint256",
          "name": "category",
          "type": "uint256"
        }
      ],
      "name": "makeMarketItem",
      "outputs": [],
      "stateMutability": "payable",
      "type": "function",
      "payable": true
    },
    {
      "inputs": [
        {
          "internalType": "uint256",
          "name": "tokenId",
          "type": "uint256"
        },
        {
          "internalType": "string",
          "name": "tokenURI",
          "type": "string"
        },
        {
          "internalType": "uint256",
          "name": "category",
          "type": "uint256"
        }
      ],
      "name": "makeMarketItemNonSale",
      "outputs": [],
      "stateMutability": "payable",
      "type": "function",
      "payable": true
    },
    {
      "inputs": [
        {
          "internalType": "uint256",
          "name": "tokenId",
          "type": "uint256"
        }
      ],
      "name": "createMarketSale",
      "outputs": [],
      "stateMutability": "payable",
      "type": "function",
      "payable": true
    },
    {
      "inputs": [
        {
          "internalType": "uint256",
          "name": "tokenId",
          "type": "uint256"
        }
      ],
      "name": "cancelMarketSale",
      "outputs": [],
      "stateMutability": "payable",
      "type": "function",
      "payable": true
    },
    {
      "inputs": [],
      "name": "fetchMarketTokens",
      "outputs": [
        {
          "components": [
            {
              "internalType": "uint256",
              "name": "itemId",
              "type": "uint256"
            },
            {
              "internalType": "address",
              "name": "nftContract",
              "type": "address"
            },
            {
              "internalType": "uint256",
              "name": "tokenId",
              "type": "uint256"
            },
            {
              "internalType": "address payable",
              "name": "seller",
              "type": "address"
            },
            {
              "internalType": "address payable",
              "name": "owner",
              "type": "address"
            },
            {
              "internalType": "address payable",
              "name": "minter",
              "type": "address"
            },
            {
              "internalType": "uint256",
              "name": "price",
              "type": "uint256"
            },
            {
              "internalType": "bool",
              "name": "sold",
              "type": "bool"
            },
            {
              "internalType": "bool",
              "name": "isExist",
              "type": "bool"
            },
            {
              "internalType": "uint256",
              "name": "timeCreated",
              "type": "uint256"
            },
            {
              "internalType": "uint256",
              "name": "likes",
              "type": "uint256"
            },
            {
              "internalType": "uint256",
              "name": "dislikes",
              "type": "uint256"
            },
            {
              "internalType": "uint256",
              "name": "category",
              "type": "uint256"
            }
          ],
          "internalType": "struct MemeMarketplaceV2.MarketToken[]",
          "name": "",
          "type": "tuple[]"
        }
      ],
      "stateMutability": "view",
      "type": "function",
      "constant": true
    },
    {
      "inputs": [],
      "name": "fetchMyNFTs",
      "outputs": [
        {
          "components": [
            {
              "internalType": "uint256",
              "name": "itemId",
              "type": "uint256"
            },
            {
              "internalType": "address",
              "name": "nftContract",
              "type": "address"
            },
            {
              "internalType": "uint256",
              "name": "tokenId",
              "type": "uint256"
            },
            {
              "internalType": "address payable",
              "name": "seller",
              "type": "address"
            },
            {
              "internalType": "address payable",
              "name": "owner",
              "type": "address"
            },
            {
              "internalType": "address payable",
              "name": "minter",
              "type": "address"
            },
            {
              "internalType": "uint256",
              "name": "price",
              "type": "uint256"
            },
            {
              "internalType": "bool",
              "name": "sold",
              "type": "bool"
            },
            {
              "internalType": "bool",
              "name": "isExist",
              "type": "bool"
            },
            {
              "internalType": "uint256",
              "name": "timeCreated",
              "type": "uint256"
            },
            {
              "internalType": "uint256",
              "name": "likes",
              "type": "uint256"
            },
            {
              "internalType": "uint256",
              "name": "dislikes",
              "type": "uint256"
            },
            {
              "internalType": "uint256",
              "name": "category",
              "type": "uint256"
            }
          ],
          "internalType": "struct MemeMarketplaceV2.MarketToken[]",
          "name": "",
          "type": "tuple[]"
        }
      ],
      "stateMutability": "view",
      "type": "function",
      "constant": true
    },
    {
      "inputs": [],
      "name": "fetchMarketAllTokens",
      "outputs": [
        {
          "components": [
            {
              "internalType": "uint256",
              "name": "itemId",
              "type": "uint256"
            },
            {
              "internalType": "address",
              "name": "nftContract",
              "type": "address"
            },
            {
              "internalType": "uint256",
              "name": "tokenId",
              "type": "uint256"
            },
            {
              "internalType": "address payable",
              "name": "seller",
              "type": "address"
            },
            {
              "internalType": "address payable",
              "name": "owner",
              "type": "address"
            },
            {
              "internalType": "address payable",
              "name": "minter",
              "type": "address"
            },
            {
              "internalType": "uint256",
              "name": "price",
              "type": "uint256"
            },
            {
              "internalType": "bool",
              "name": "sold",
              "type": "bool"
            },
            {
              "internalType": "bool",
              "name": "isExist",
              "type": "bool"
            },
            {
              "internalType": "uint256",
              "name": "timeCreated",
              "type": "uint256"
            },
            {
              "internalType": "uint256",
              "name": "likes",
              "type": "uint256"
            },
            {
              "internalType": "uint256",
              "name": "dislikes",
              "type": "uint256"
            },
            {
              "internalType": "uint256",
              "name": "category",
              "type": "uint256"
            }
          ],
          "internalType": "struct MemeMarketplaceV2.MarketToken[]",
          "name": "",
          "type": "tuple[]"
        }
      ],
      "stateMutability": "view",
      "type": "function",
      "constant": true
    },
    {
      "inputs": [
        {
          "internalType": "uint256",
          "name": "category",
          "type": "uint256"
        }
      ],
      "name": "fetchMarketCategory",
      "outputs": [
        {
          "components": [
            {
              "internalType": "uint256",
              "name": "itemId",
              "type": "uint256"
            },
            {
              "internalType": "address",
              "name": "nftContract",
              "type": "address"
            },
            {
              "internalType": "uint256",
              "name": "tokenId",
              "type": "uint256"
            },
            {
              "internalType": "address payable",
              "name": "seller",
              "type": "address"
            },
            {
              "internalType": "address payable",
              "name": "owner",
              "type": "address"
            },
            {
              "internalType": "address payable",
              "name": "minter",
              "type": "address"
            },
            {
              "internalType": "uint256",
              "name": "price",
              "type": "uint256"
            },
            {
              "internalType": "bool",
              "name": "sold",
              "type": "bool"
            },
            {
              "internalType": "bool",
              "name": "isExist",
              "type": "bool"
            },
            {
              "internalType": "uint256",
              "name": "timeCreated",
              "type": "uint256"
            },
            {
              "internalType": "uint256",
              "name": "likes",
              "type": "uint256"
            },
            {
              "internalType": "uint256",
              "name": "dislikes",
              "type": "uint256"
            },
            {
              "internalType": "uint256",
              "name": "category",
              "type": "uint256"
            }
          ],
          "internalType": "struct MemeMarketplaceV2.MarketToken[]",
          "name": "",
          "type": "tuple[]"
        }
      ],
      "stateMutability": "view",
      "type": "function",
      "constant": true
    }
  ],
  "bytecode": "0x60a06040526000600a553480156200001657600080fd5b50604080518082018252600b81526a3843686971204d656d657360a81b60208083019182528351808501909452600684526538436869717360d01b908401528151919291620000689160009162000090565b5080516200007e90600190602084019062000090565b50506001600755503360805262000172565b8280546200009e9062000136565b90600052602060002090601f016020900481019282620000c257600085556200010d565b82601f10620000dd57805160ff19168380011785556200010d565b828001600101855582156200010d579182015b828111156200010d578251825591602001919060010190620000f0565b506200011b9291506200011f565b5090565b5b808211156200011b576000815560010162000120565b600181811c908216806200014b57607f821691505b6020821081036200016c57634e487b7160e01b600052602260045260246000fd5b50919050565b60805161358d6200018e6000396000611895015261358d6000f3fe6080604052600436106101ee5760003560e01c806395d89b411161010d578063be9af536116100a0578063ce69f7671161006f578063ce69f76714610566578063cfd825a214610579578063d02bd5e91461058c578063de4f72a31461059f578063e985e9c5146105bf57600080fd5b8063be9af536146104fe578063c69bdf7514610511578063c87b56dd14610526578063ca0367391461054657600080fd5b8063a87d942c116100dc578063a87d942c1461049f578063ae76cd4f146104b4578063ae78cea1146104c9578063b88d4fde146104de57600080fd5b806395d89b41146104425780639c55a70f146104575780639d7b8e681461046a578063a22cb4651461047f57600080fd5b806323b872dd11610185578063634a2bd811610154578063634a2bd8146103cf5780636352211e146103e257806370a0823114610402578063752312a91461042257600080fd5b806323b872dd1461033557806323edf6971461035557806331f2479c1461038257806342842e0e146103af57600080fd5b8063095ea7b3116101c1578063095ea7b31461029757806312e85585146102b75780631f701704146102db578063202e37401461031357600080fd5b806301ffc9a7146101f357806306e7f2711461022857806306fdde031461023d578063081812fc1461025f575b600080fd5b3480156101ff57600080fd5b5061021361020e366004612cb5565b610608565b60405190151581526020015b60405180910390f35b61023b610236366004612d7e565b61065a565b005b34801561024957600080fd5b50610252610936565b60405161021f9190612e2e565b34801561026b57600080fd5b5061027f61027a366004612e41565b6109c8565b6040516001600160a01b03909116815260200161021f565b3480156102a357600080fd5b5061023b6102b2366004612e76565b610a50565b3480156102c357600080fd5b506658d15e176280005b60405190815260200161021f565b3480156102e757600080fd5b506102136102f6366004612e41565b6000908152600b6020526040902060070154610100900460ff1690565b34801561031f57600080fd5b50610328610b65565b60405161021f9190612f72565b34801561034157600080fd5b5061023b610350366004612fc1565b610e32565b34801561036157600080fd5b50610375610370366004612e41565b610e63565b60405161021f9190612ffd565b34801561038e57600080fd5b506103a261039d366004612e41565b610f7f565b60405161021f919061307a565b3480156103bb57600080fd5b5061023b6103ca366004612fc1565b611044565b61023b6103dd366004612e41565b61105f565b3480156103ee57600080fd5b5061027f6103fd366004612e41565b6111d6565b34801561040e57600080fd5b506102cd61041d366004613089565b61124d565b34801561042e57600080fd5b506102cd61043d3660046130a4565b6112d4565b34801561044e57600080fd5b506102526112fc565b61023b610465366004612e41565b61130b565b34801561047657600080fd5b50600a546102cd565b34801561048b57600080fd5b5061023b61049a3660046130eb565b611462565b3480156104ab57600080fd5b506102cd611471565b3480156104c057600080fd5b506102cd611481565b3480156104d557600080fd5b5061032861148c565b3480156104ea57600080fd5b5061023b6104f9366004613127565b611626565b61023b61050c366004612e41565b61165e565b34801561051d57600080fd5b506103286118e9565b34801561053257600080fd5b50610252610541366004612e41565b611ac9565b34801561055257600080fd5b50610328610561366004612e41565b611c37565b61023b6105743660046131a3565b611e72565b61023b610587366004612e41565b611f51565b61023b61059a36600461321f565b61209c565b3480156105ab57600080fd5b506102cd6105ba366004612e41565b61225f565b3480156105cb57600080fd5b506102136105da36600461326f565b6001600160a01b03918216600090815260056020908152604080832093909416825291909152205460ff1690565b60006001600160e01b031982166380ac58cd60e01b148061063957506001600160e01b03198216635b5e139f60e01b145b8061065457506301ffc9a760e01b6001600160e01b03198316145b92915050565b6002600754036106855760405162461bcd60e51b815260040161067c906132a2565b60405180910390fd5b6002600755826106d75760405162461bcd60e51b815260206004820152601e60248201527f5072696365206d757374206265206174206c65617374206f6e65207765690000604482015260640161067c565b6658d15e176280003410156107475760405162461bcd60e51b815260206004820152603060248201527f7472616e73616374696f6e2076616c7565206d75737420626520657175616c2060448201526f746f206c697374696e6720707269636560801b606482015260840161067c565b6000848152600b6020526040812060070154610100900460ff16156107e5576000610771866111d6565b9050336001600160a01b0382161461079b5760405162461bcd60e51b815260040161067c906132d9565b50506000848152600b602052604090206003810180546001600160a01b03199081163317909155600482018054909116905560068101849055600701805460ff191690558361087c565b6107f3600880546001019055565b5060085461080181846112d4565b506000818152600b602081905260409091208281556001810180546001600160a01b0319908116301790915560028201849055600382018054821633908117909155600483018054831690556005830180549092161790556006810186905560078101805461ffff1916610100179055426008820155018290555b6040516323b872dd60e01b8152336004820152306024820181905260448201839052906323b872dd90606401600060405180830381600087803b1580156108c257600080fd5b505af11580156108d6573d6000803e3d6000fd5b5050505080306001600160a01b0316827f4eb35c3c60bb4872625f5629b63edf6fc44c316e5c83f472a8c89883bd30cf29336000338a6000600160405161092296959493929190613310565b60405180910390a450506001600755505050565b60606000805461094590613349565b80601f016020809104026020016040519081016040528092919081815260200182805461097190613349565b80156109be5780601f10610993576101008083540402835291602001916109be565b820191906000526020600020905b8154815290600101906020018083116109a157829003601f168201915b5050505050905090565b60006109d3826122ca565b610a345760405162461bcd60e51b815260206004820152602c60248201527f4552433732313a20617070726f76656420717565727920666f72206e6f6e657860448201526b34b9ba32b73a103a37b5b2b760a11b606482015260840161067c565b506000908152600460205260409020546001600160a01b031690565b6000610a5b826111d6565b9050806001600160a01b0316836001600160a01b031603610ac85760405162461bcd60e51b815260206004820152602160248201527f4552433732313a20617070726f76616c20746f2063757272656e74206f776e656044820152603960f91b606482015260840161067c565b336001600160a01b0382161480610ae45750610ae481336105da565b610b565760405162461bcd60e51b815260206004820152603860248201527f4552433732313a20617070726f76652063616c6c6572206973206e6f74206f7760448201527f6e6572206e6f7220617070726f76656420666f7220616c6c0000000000000000606482015260840161067c565b610b6083836122e7565b505050565b60606000610b7260085490565b90506000806000805b84811015610c3f5733600b6000610b93846001613399565b81526020810191909152604001600020600401546001600160a01b03161480610be6575033600b6000610bc7846001613399565b81526020810191909152604001600020600301546001600160a01b0316145b15610c2d57600b6000610bfa836001613399565b8152602081019190915260400160002060070154610100900460ff161515600103610c2d57610c2a600183613399565b91505b80610c37816133b1565b915050610b7b565b5060008167ffffffffffffffff811115610c5b57610c5b612cd2565b604051908082528060200260200182016040528015610c9457816020015b610c81612b73565b815260200190600190039081610c795790505b5090505b84831015610e295733600b6000610cb0866001613399565b81526020810191909152604001600020600401546001600160a01b03161480610d03575033600b6000610ce4866001613399565b81526020810191909152604001600020600301546001600160a01b0316145b15610e17576000610d15846001613399565b6000818152600b60205260409020600781015491925090610100900460ff161515600103610e1457604080516101a0810182528254815260018301546001600160a01b039081166020830152600284015492820192909252600383015482166060820152600483015482166080820152600583015490911660a0820152600682015460c0820152600782015460ff808216151560e0840152610100918290041615159082015260088201546101208201526009820154610140820152600a820154610160820152600b8201546101808201528351849088908110610dfb57610dfb6133ca565b6020908102919091010152610e11600187613399565b95505b50505b610e22600184613399565b9250610c98565b95945050505050565b610e3c3382612355565b610e585760405162461bcd60e51b815260040161067c906133e0565b610b6083838361243e565b6060600c6000838152602001908152602001600020600301805480602002602001604051908101604052809291908181526020016000905b82821015610f74576000848152602090819020604080518082019091526002850290910180546001600160a01b031682526001810180549293919291840191610ee390613349565b80601f0160208091040260200160405190810160405280929190818152602001828054610f0f90613349565b8015610f5c5780601f10610f3157610100808354040283529160200191610f5c565b820191906000526020600020905b815481529060010190602001808311610f3f57829003601f168201915b50505050508152505081526020019060010190610e9b565b505050509050919050565b610f87612b73565b506000908152600b602081815260409283902083516101a0810185528154815260018201546001600160a01b0390811693820193909352600282015494810194909452600381015482166060850152600481015482166080850152600581015490911660a0840152600681015460c0840152600781015460ff808216151560e0860152610100918290041615159084015260088101546101208401526009810154610140840152600a810154610160840152015461018082015290565b610b6083838360405180602001604052806000815250611626565b6002600754036110815760405162461bcd60e51b815260040161067c906132a2565b600260078190556000828152600b60209081526040808320600c83528184203385529485019092529091205490919060ff1615156001036110f5573360009081526002820160205260408120805460ff19169055600a83018054600192906110ea908490613431565b909155506111819050565b3360009081526002820160205260408120805460ff19166001908117909155600a8401805491929091611129908490613399565b9091555050336000908152600180830160205260409091205460ff16151590036111815760018260090160008282546111629190613431565b90915550503360009081526001820160205260409020805460ff191690555b827ff49c1ce45188f667b0f55bb9e92eeeb8bc7fcabe5ae102ba9e50d0495192a715836009015484600a01546040516111c4929190918252602082015260400190565b60405180910390a25050600160075550565b6000818152600260205260408120546001600160a01b0316806106545760405162461bcd60e51b815260206004820152602960248201527f4552433732313a206f776e657220717565727920666f72206e6f6e657869737460448201526832b73a103a37b5b2b760b91b606482015260840161067c565b60006001600160a01b0382166112b85760405162461bcd60e51b815260206004820152602a60248201527f4552433732313a2062616c616e636520717565727920666f7220746865207a65604482015269726f206164647265737360b01b606482015260840161067c565b506001600160a01b031660009081526003602052604090205490565b60006112e033846125da565b6112ea838361270d565b6112f5306001611462565b5090919050565b60606001805461094590613349565b60026007540361132d5760405162461bcd60e51b815260040161067c906132a2565b60026007556000818152600b60209081526040808320600c835281842033855260018082019094529190932054909160ff9091161515900361139857336000908152600180830160205260408220805460ff19169055600984018054919290916110ea908490613431565b336000908152600182810160205260408220805460ff191682179055600984018054919290916113c9908490613399565b909155505033600090815260028201602052604090205460ff16151560010361118157600182600a0160008282546114019190613431565b90915550503360009081526002820160205260409020805460ff19169055827ff49c1ce45188f667b0f55bb9e92eeeb8bc7fcabe5ae102ba9e50d0495192a715836009015484600a01546040516111c4929190918252602082015260400190565b61146d338383612798565b5050565b600061147c60085490565b905090565b600061147c60095490565b6060600061149960085490565b905060008060008367ffffffffffffffff8111156114b9576114b9612cd2565b6040519080825280602002602001820160405280156114f257816020015b6114df612b73565b8152602001906001900390816114d75790505b5090505b8382101561161e57600061150b836001613399565b6000818152600b60205260409020600781015491925090610100900460ff16151560010361160a57604080516101a0810182528254815260018301546001600160a01b039081166020830152600284015492820192909252600383015482166060820152600483015482166080820152600583015490911660a0820152600682015460c0820152600782015460ff808216151560e0840152610100918290041615159082015260088201546101208201526009820154610140820152600a820154610160820152600b82015461018082015283518490879081106115f1576115f16133ca565b6020908102919091010152611607600186613399565b94505b611615600185613399565b935050506114f6565b949350505050565b6116303383612355565b61164c5760405162461bcd60e51b815260040161067c906133e0565b61165884848484612866565b50505050565b6002600754036116805760405162461bcd60e51b815260040161067c906132a2565b600260078190556000828152600b602052604080822060068101549301548083529120600301546001600160a01b031633036116fe5760405162461bcd60e51b815260206004820152601b60248201527f596f752063616e6e6f742062757920796f7572206f776e204e46540000000000604482015260640161067c565b8134146117695760405162461bcd60e51b815260206004820152603360248201527f506c65617365207375626d6974207468652061736b696e6720707269636520696044820152726e206f7264657220746f20636f6e74696e756560681b606482015260840161067c565b6000818152600b60205260408082206003015490516001600160a01b03909116913480156108fc02929091818181858888f193505050501580156117b1573d6000803e3d6000fd5b506040516323b872dd60e01b8152306004820181905233602483015260448201859052906323b872dd90606401600060405180830381600087803b1580156117f857600080fd5b505af115801561180c573d6000803e3d6000fd5b5050505061181b306001611462565b611829600980546001019055565b81600a600082825461183b9190613399565b90915550506000818152600b6020526040808220600481018054336001600160a01b03199182168117909255600383018054909116909117905560078101805460ff19166001179055600601829055516001600160a01b037f00000000000000000000000000000000000000000000000000000000000000001691906658d15e176280009082818181858883f193505050501580156118de573d6000803e3d6000fd5b505060016007555050565b606060006118f660085490565b905060008060008367ffffffffffffffff81111561191657611916612cd2565b60405190808252806020026020018201604052801561194f57816020015b61193c612b73565b8152602001906001900390816119345790505b5090505b8382101561161e57600b600061196a846001613399565b8152602081019190915260400160002060070154610100900460ff161515600103611ab757600061199c836001613399565b6000818152600b602052604090206004810154919250906001600160a01b03161580156119d85750600781015460ff6101009091041615156001145b15611ab457604080516101a0810182528254815260018301546001600160a01b039081166020830152600284015492820192909252600383015482166060820152600483015482166080820152600583015490911660a0820152600682015460c0820152600782015460ff808216151560e0840152610100918290041615159082015260088201546101208201526009820154610140820152600a820154610160820152600b8201546101808201528351849087908110611a9b57611a9b6133ca565b6020908102919091010152611ab1600186613399565b94505b50505b611ac2600183613399565b9150611953565b6060611ad4826122ca565b611b3a5760405162461bcd60e51b815260206004820152603160248201527f45524337323155524953746f726167653a2055524920717565727920666f72206044820152703737b732bc34b9ba32b73a103a37b5b2b760791b606482015260840161067c565b60008281526006602052604081208054611b5390613349565b80601f0160208091040260200160405190810160405280929190818152602001828054611b7f90613349565b8015611bcc5780601f10611ba157610100808354040283529160200191611bcc565b820191906000526020600020905b815481529060010190602001808311611baf57829003601f168201915b505050505090506000611bea60408051602081019091526000815290565b90508051600003611bfc575092915050565b815115611c2e578082604051602001611c16929190613448565b60405160208183030381529060405292505050919050565b61161e84612899565b60606000611c4460085490565b90506000806000805b84811015611cd657600b6000611c64836001613399565b815260208101919091526040016000206007015460ff6101009091041615156001148015611cb1575086600b6000611c9d846001613399565b8152602001908152602001600020600b0154145b15611cc457611cc1600183613399565b91505b80611cce816133b1565b915050611c4d565b5060008167ffffffffffffffff811115611cf257611cf2612cd2565b604051908082528060200260200182016040528015611d2b57816020015b611d18612b73565b815260200190600190039081611d105790505b5090505b84831015611e68576000611d44846001613399565b6000818152600b6020526040902060078101549192509060ff6101009091041615156001148015611d7857508881600b0154145b15611e5457604080516101a0810182528254815260018301546001600160a01b039081166020830152600284015492820192909252600383015482166060820152600483015482166080820152600583015490911660a0820152600682015460c0820152600782015460ff808216151560e0840152610100918290041615159082015260088201546101208201526009820154610140820152600a820154610160820152600b8201546101808201528351849088908110611e3b57611e3b6133ca565b6020908102919091010152611e51600187613399565b95505b611e5f600186613399565b94505050611d2f565b9695505050505050565b600260075403611e945760405162461bcd60e51b815260040161067c906132a2565b60026007556000838152600c6020908152604091829020825180840184523381528351601f860184900484028101840190945284845290926003840192828101919087908790819084018382808284376000920182905250939094525050835460018082018655948252602091829020845160029092020180546001600160a01b0319166001600160a01b0390921691909117815583820151805194959194611f439450918501920190612c03565b505060016007555050505050565b600260075403611f735760405162461bcd60e51b815260040161067c906132a2565b600260078190556000828152600b602052604080822090920154808252919020600301546001600160a01b03163314611fbe5760405162461bcd60e51b815260040161067c906132d9565b6040516323b872dd60e01b8152306004820181905233602483015260448201849052906323b872dd90606401600060405180830381600087803b15801561200457600080fd5b505af1158015612018573d6000803e3d6000fd5b5050506000828152600b6020526040808220600481018054336001600160a01b031991821681179092556003830180549091168217905560078201805460ff19166001179055600690910183905590519092506658d15e176280009082818181858883f19350505050158015612092573d6000803e3d6000fd5b5050600160075550565b6002600754036120be5760405162461bcd60e51b815260040161067c906132a2565b600260079081556000848152600b6020526040812090910154610100900460ff161561216b5760006120ef856111d6565b9050336001600160a01b038216146121195760405162461bcd60e51b815260040161067c906132d9565b50506000838152600b60205260408120600381018054336001600160a01b0319918216811790925560048301805490911690911790556006810191909155600701805460ff1916600117905582612204565b612179600880546001019055565b5060085461218781846112d4565b506000818152600b602081905260408220838155600181018054306001600160a01b03199182161790915560028201859055600382018054339083168117909155600483018054831682179055600583018054909216179055600681019290925560078201805461ffff1916610101179055426008830155018290555b80306001600160a01b0316827f4eb35c3c60bb4872625f5629b63edf6fc44c316e5c83f472a8c89883bd30cf2933600033600080600160405161224c96959493929190613310565b60405180910390a4505060016007555050565b6000818152600c60209081526040808320338452600190810190925282205460ff161515900361229157506000919050565b6000828152600c6020908152604080832033845260020190915290205460ff1615156001036122c257506001919050565b506002919050565b6000908152600260205260409020546001600160a01b0316151590565b600081815260046020526040902080546001600160a01b0319166001600160a01b038416908117909155819061231c826111d6565b6001600160a01b03167f8c5be1e5ebec7d5bd14f71427d1e84f3dd0314c0f7b2291e5b200ac8c7c3b92560405160405180910390a45050565b6000612360826122ca565b6123c15760405162461bcd60e51b815260206004820152602c60248201527f4552433732313a206f70657261746f7220717565727920666f72206e6f6e657860448201526b34b9ba32b73a103a37b5b2b760a11b606482015260840161067c565b60006123cc836111d6565b9050806001600160a01b0316846001600160a01b0316148061241357506001600160a01b0380821660009081526005602090815260408083209388168352929052205460ff165b8061161e5750836001600160a01b031661242c846109c8565b6001600160a01b031614949350505050565b826001600160a01b0316612451826111d6565b6001600160a01b0316146124b55760405162461bcd60e51b815260206004820152602560248201527f4552433732313a207472616e736665722066726f6d20696e636f72726563742060448201526437bbb732b960d91b606482015260840161067c565b6001600160a01b0382166125175760405162461bcd60e51b8152602060048201526024808201527f4552433732313a207472616e7366657220746f20746865207a65726f206164646044820152637265737360e01b606482015260840161067c565b6125226000826122e7565b6001600160a01b038316600090815260036020526040812080546001929061254b908490613431565b90915550506001600160a01b0382166000908152600360205260408120805460019290612579908490613399565b909155505060008181526002602052604080822080546001600160a01b0319166001600160a01b0386811691821790925591518493918716917fddf252ad1be2c89b69c2b068fc378daa952ba7f163c4a11628f55a4df523b3ef91a4505050565b6001600160a01b0382166126305760405162461bcd60e51b815260206004820181905260248201527f4552433732313a206d696e7420746f20746865207a65726f2061646472657373604482015260640161067c565b612639816122ca565b156126865760405162461bcd60e51b815260206004820152601c60248201527f4552433732313a20746f6b656e20616c7265616479206d696e74656400000000604482015260640161067c565b6001600160a01b03821660009081526003602052604081208054600192906126af908490613399565b909155505060008181526002602052604080822080546001600160a01b0319166001600160a01b03861690811790915590518392907fddf252ad1be2c89b69c2b068fc378daa952ba7f163c4a11628f55a4df523b3ef908290a45050565b612716826122ca565b6127795760405162461bcd60e51b815260206004820152602e60248201527f45524337323155524953746f726167653a2055524920736574206f66206e6f6e60448201526d32bc34b9ba32b73a103a37b5b2b760911b606482015260840161067c565b60008281526006602090815260409091208251610b6092840190612c03565b816001600160a01b0316836001600160a01b0316036127f95760405162461bcd60e51b815260206004820152601960248201527f4552433732313a20617070726f766520746f2063616c6c657200000000000000604482015260640161067c565b6001600160a01b03838116600081815260056020908152604080832094871680845294825291829020805460ff191686151590811790915591519182527f17307eab39ab6107e8899845ad3d59bd9653f200f220920489ca2b5937696c31910160405180910390a3505050565b61287184848461243e565b61287d84848484612971565b6116585760405162461bcd60e51b815260040161067c90613477565b60606128a4826122ca565b6129085760405162461bcd60e51b815260206004820152602f60248201527f4552433732314d657461646174613a2055524920717565727920666f72206e6f60448201526e3732bc34b9ba32b73a103a37b5b2b760891b606482015260840161067c565b600061291f60408051602081019091526000815290565b9050600081511161293f576040518060200160405280600081525061296a565b8061294984612a72565b60405160200161295a929190613448565b6040516020818303038152906040525b9392505050565b60006001600160a01b0384163b15612a6757604051630a85bd0160e11b81526001600160a01b0385169063150b7a02906129b59033908990889088906004016134c9565b6020604051808303816000875af19250505080156129f0575060408051601f3d908101601f191682019092526129ed918101906134fc565b60015b612a4d573d808015612a1e576040519150601f19603f3d011682016040523d82523d6000602084013e612a23565b606091505b508051600003612a455760405162461bcd60e51b815260040161067c90613477565b805181602001fd5b6001600160e01b031916630a85bd0160e11b14905061161e565b506001949350505050565b606081600003612a995750506040805180820190915260018152600360fc1b602082015290565b8160005b8115612ac35780612aad816133b1565b9150612abc9050600a8361352f565b9150612a9d565b60008167ffffffffffffffff811115612ade57612ade612cd2565b6040519080825280601f01601f191660200182016040528015612b08576020820181803683370190505b5090505b841561161e57612b1d600183613431565b9150612b2a600a86613543565b612b35906030613399565b60f81b818381518110612b4a57612b4a6133ca565b60200101906001600160f81b031916908160001a905350612b6c600a8661352f565b9450612b0c565b604051806101a001604052806000815260200160006001600160a01b031681526020016000815260200160006001600160a01b0316815260200160006001600160a01b0316815260200160006001600160a01b0316815260200160008152602001600015158152602001600015158152602001600081526020016000815260200160008152602001600081525090565b828054612c0f90613349565b90600052602060002090601f016020900481019282612c315760008555612c77565b82601f10612c4a57805160ff1916838001178555612c77565b82800160010185558215612c77579182015b82811115612c77578251825591602001919060010190612c5c565b50612c83929150612c87565b5090565b5b80821115612c835760008155600101612c88565b6001600160e01b031981168114612cb257600080fd5b50565b600060208284031215612cc757600080fd5b813561296a81612c9c565b634e487b7160e01b600052604160045260246000fd5b600067ffffffffffffffff80841115612d0357612d03612cd2565b604051601f8501601f19908116603f01168101908282118183101715612d2b57612d2b612cd2565b81604052809350858152868686011115612d4457600080fd5b858560208301376000602087830101525050509392505050565b600082601f830112612d6f57600080fd5b61296a83833560208501612ce8565b60008060008060808587031215612d9457600080fd5b8435935060208501359250604085013567ffffffffffffffff811115612db957600080fd5b612dc587828801612d5e565b949793965093946060013593505050565b60005b83811015612df1578181015183820152602001612dd9565b838111156116585750506000910152565b60008151808452612e1a816020860160208601612dd6565b601f01601f19169290920160200192915050565b60208152600061296a6020830184612e02565b600060208284031215612e5357600080fd5b5035919050565b80356001600160a01b0381168114612e7157600080fd5b919050565b60008060408385031215612e8957600080fd5b612e9283612e5a565b946020939093013593505050565b805182526020810151612ebe60208401826001600160a01b03169052565b50604081015160408301526060810151612ee360608401826001600160a01b03169052565b506080810151612efe60808401826001600160a01b03169052565b5060a0810151612f1960a08401826001600160a01b03169052565b5060c081015160c083015260e0810151612f3760e084018215159052565b506101008181015115159083015261012080820151908301526101408082015190830152610160808201519083015261018090810151910152565b6020808252825182820181905260009190848201906040850190845b81811015612fb557612fa1838551612ea0565b928401926101a09290920191600101612f8e565b50909695505050505050565b600080600060608486031215612fd657600080fd5b612fdf84612e5a565b9250612fed60208501612e5a565b9150604084013590509250925092565b60006020808301818452808551808352604092508286019150828160051b87010184880160005b8381101561306c57888303603f19018552815180516001600160a01b0316845287015187840187905261305987850182612e02565b9588019593505090860190600101613024565b509098975050505050505050565b6101a081016106548284612ea0565b60006020828403121561309b57600080fd5b61296a82612e5a565b600080604083850312156130b757600080fd5b82359150602083013567ffffffffffffffff8111156130d557600080fd5b6130e185828601612d5e565b9150509250929050565b600080604083850312156130fe57600080fd5b61310783612e5a565b91506020830135801515811461311c57600080fd5b809150509250929050565b6000806000806080858703121561313d57600080fd5b61314685612e5a565b935061315460208601612e5a565b925060408501359150606085013567ffffffffffffffff81111561317757600080fd5b8501601f8101871361318857600080fd5b61319787823560208401612ce8565b91505092959194509250565b6000806000604084860312156131b857600080fd5b83359250602084013567ffffffffffffffff808211156131d757600080fd5b818601915086601f8301126131eb57600080fd5b8135818111156131fa57600080fd5b87602082850101111561320c57600080fd5b6020830194508093505050509250925092565b60008060006060848603121561323457600080fd5b83359250602084013567ffffffffffffffff81111561325257600080fd5b61325e86828701612d5e565b925050604084013590509250925092565b6000806040838503121561328257600080fd5b61328b83612e5a565b915061329960208401612e5a565b90509250929050565b6020808252601f908201527f5265656e7472616e637947756172643a207265656e7472616e742063616c6c00604082015260600190565b6020808252601b908201527f596f752063616e6e6f74206d616e6167652074686973204e4654730000000000604082015260600190565b6001600160a01b03968716815294861660208601529290941660408401526060830152911515608082015290151560a082015260c00190565b600181811c9082168061335d57607f821691505b60208210810361337d57634e487b7160e01b600052602260045260246000fd5b50919050565b634e487b7160e01b600052601160045260246000fd5b600082198211156133ac576133ac613383565b500190565b6000600182016133c3576133c3613383565b5060010190565b634e487b7160e01b600052603260045260246000fd5b60208082526031908201527f4552433732313a207472616e736665722063616c6c6572206973206e6f74206f6040820152701ddb995c881b9bdc88185c1c1c9bdd9959607a1b606082015260800190565b60008282101561344357613443613383565b500390565b6000835161345a818460208801612dd6565b83519083019061346e818360208801612dd6565b01949350505050565b60208082526032908201527f4552433732313a207472616e7366657220746f206e6f6e20455243373231526560408201527131b2b4bb32b91034b6b83632b6b2b73a32b960711b606082015260800190565b6001600160a01b0385811682528416602082015260408101839052608060608201819052600090611e6890830184612e02565b60006020828403121561350e57600080fd5b815161296a81612c9c565b634e487b7160e01b600052601260045260246000fd5b60008261353e5761353e613519565b500490565b60008261355257613552613519565b50069056fea26469706673582212201cd5ec25e3ee87f55ffc7cc22b4d5be57c23e0b56622b8b57c77c16e89a024f764736f6c634300080d0033",
  "immutableReferences": {
    "3253": [
      {
        "length": 32,
        "start": 6293
      }
    ]
  },
  "source": "//SPDX-License-Identifier: MIT\r\npragma solidity ^0.8.4;\r\n\r\n// we will brin in the openzeppelin ERC721 NFT functionality\r\n\r\nimport '@openzeppelin/contracts/token/ERC721/ERC721.sol';\r\nimport '@openzeppelin/contracts/token/ERC721/extensions/ERC721URIStorage.sol';\r\nimport '@openzeppelin/contracts/utils/Counters.sol';\r\n// security against transactions for multiple request\r\nimport '@openzeppelin/contracts/security/ReentrancyGuard.sol';\r\n\r\ncontract MemeMarketplaceV2 is ERC721URIStorage, ReentrancyGuard {\r\n    using Counters for Counters.Counter;\r\n    //counter allow us to keep track of tokenIds\r\n    Counters.Counter private _tokenIds;\r\n\r\n\r\n    /* number of items minting, number of transactions, token that have not been sold\r\n    keep track of tokens total number - tokenId\r\n    arrays need to know the lentgth - help to keep track for arrays */\r\n\r\n    Counters.Counter private _tokensSold;\r\n    uint256 totalEthSold = 0;\r\n\r\n    // determine who is the owner of the contract\r\n    // charge a listing fee so the owner makes a commission\r\n\r\n    address immutable i_contractOwner;\r\n    // we are deploying to matic the API is the same so you can use ether the same as matic\r\n    // they both have 18 deimal\r\n    // mind the matic vs ether price!\r\n    uint256 constant LISTING_PRICE = 0.025 ether;\r\n\r\n    //OBJ: give the NFT market the ability to transact tokens or change ownership\r\n    // setApprovalForAll allow us to do that with contract address\r\n\r\n    // constructor set up our address\r\n    constructor() ERC721 ('8Chiq Memes', '8Chiqs') {\r\n        i_contractOwner = payable(msg.sender);\r\n    }\r\n\r\n    // structs to hold the comments\r\n    struct Comment {\r\n        address addr;\r\n        string comment;\r\n    }\r\n\r\n    // comment, likes and dislikes\r\n    struct TokenLikesComment {\r\n        uint itemId;\r\n        mapping(address => bool) addToLike;\r\n        mapping(address => bool) addToDislike;\r\n        Comment[] comments;\r\n    }\r\n\r\n    // structs can act like objects\r\n\r\n    struct MarketToken {\r\n        uint itemId;\r\n        address nftContract;\r\n        uint256 tokenId;\r\n        address payable seller;\r\n        address payable owner;\r\n        address payable minter;\r\n        uint256 price;\r\n        bool sold;\r\n        bool isExist;\r\n        uint timeCreated;\r\n        uint likes;\r\n        uint dislikes;\r\n        uint category;\r\n    }\r\n\r\n    // tokenId return which marketToken - fetch which one it is\r\n\r\n    mapping(uint256 => MarketToken) private idToMarketToken;\r\n\r\n    // tokenId to token likes dislike comment\r\n\r\n    mapping(uint256 => TokenLikesComment) private idToTokenLikes;\r\n\r\n    // listen to events for front end applications\r\n    event MarketTokenMinted(\r\n        uint indexed itemId,\r\n        address indexed nftContract,\r\n        uint indexed tokenId,\r\n        address seller,\r\n        address owner,\r\n        address minter,\r\n        uint256 price,\r\n        bool sold,\r\n        bool isExist\r\n    );\r\n\r\n    // listen to events of socials for front end applications\r\n    event TokenSocialEvent(\r\n        uint indexed itemId,\r\n        uint likes,\r\n        uint dislikes\r\n    );\r\n\r\n    // get the listing price\r\n    function getListingPrice() public view returns (uint256) {\r\n        return LISTING_PRICE;\r\n    }\r\n\r\n    // get the total sold\r\n    function getTotalSoldCount() public view returns (uint256) {\r\n        return _tokensSold.current();\r\n    }\r\n\r\n    // get the total sold in currency\r\n    function getTotalSold() public view returns (uint256) {\r\n        return totalEthSold;\r\n    }\r\n\r\n    function getCount() public view returns (uint) {\r\n        return _tokenIds.current();\r\n    }\r\n\r\n    // check the owner of NFTs\r\n    // function getOwner(uint tokenId) public view returns (address) {\r\n    //     return IERC721(address(this)).ownerOf(tokenId);\r\n    // }\r\n\r\n    // check if tokenId exists\r\n    function getSingleMarketToken(uint256 tokenId) public view returns (MarketToken memory) {\r\n        return idToMarketToken[tokenId];\r\n    }\r\n\r\n    // check if tokenId exists\r\n    function isTokenExists(uint256 tokenId) public view returns (bool) {\r\n        return idToMarketToken[tokenId].isExist;\r\n    }\r\n\r\n    // function to return all comments\r\n    function getComments(uint tokenId) public view returns (Comment[] memory) {\r\n        return idToTokenLikes[tokenId].comments;\r\n    }\r\n\r\n    // function to check if like or dislike or neither\r\n    function getLikeStatus(uint tokenId) public view returns (uint) {\r\n\r\n        if (idToTokenLikes[tokenId].addToLike[msg.sender] == true) {\r\n            return 0;\r\n        }\r\n\r\n        if (idToTokenLikes[tokenId].addToDislike[msg.sender] == true) {\r\n            return 1;\r\n        }\r\n\r\n        return 2;\r\n    }          \r\n\r\n    function mintToken(uint256 newItemId, string memory tokenURI) public returns(uint) {\r\n        // _tokenIds.increment();\r\n        // uint256 newItemId = _tokenIds.current();\r\n        _mint(msg.sender, newItemId);\r\n        // set the token URI: id and url\r\n        _setTokenURI(newItemId, tokenURI);\r\n        // give the marketplace the approval to transact between users\r\n        setApprovalForAll(address(this), true);\r\n        // mint the token and set it for sale - return the id to do so\r\n        return newItemId;\r\n    }\r\n\r\n    // create function to like a meme\r\n    function likeMeme(uint tokenId) public payable nonReentrant {\r\n        MarketToken storage m = idToMarketToken[tokenId];\r\n        TokenLikesComment storage mLike = idToTokenLikes[tokenId];\r\n        if (mLike.addToLike[msg.sender] == true) {\r\n            mLike.addToLike[msg.sender] = false;\r\n            m.likes-=1;\r\n        } else {\r\n            mLike.addToLike[msg.sender] = true;\r\n            m.likes+=1;\r\n            if (mLike.addToDislike[msg.sender] == true) {\r\n                m.dislikes-=1;\r\n                mLike.addToDislike[msg.sender] = false;\r\n            }\r\n        }\r\n        \r\n        // it is a good practice to emit event after modifying value transaction\r\n        emit TokenSocialEvent(tokenId, m.likes, m.dislikes);\r\n    }\r\n\r\n    // create function to dislike a meme\r\n    function dislikeMeme(uint tokenId) public payable nonReentrant {\r\n        MarketToken storage m = idToMarketToken[tokenId];\r\n        TokenLikesComment storage mLike = idToTokenLikes[tokenId];\r\n        if (mLike.addToDislike[msg.sender] == true) {\r\n            mLike.addToDislike[msg.sender] = false;\r\n            m.dislikes-=1;\r\n        } else {\r\n            mLike.addToDislike[msg.sender] = true;\r\n            m.dislikes+=1;\r\n            if (mLike.addToLike[msg.sender] == true) {\r\n                m.likes-=1;\r\n                mLike.addToLike[msg.sender] = false;\r\n            }\r\n        }\r\n\r\n        // it is a good practice to emit event after modifying value transaction\r\n        emit TokenSocialEvent(tokenId, m.likes, m.dislikes);\r\n    }\r\n\r\n    // create function to adda comment\r\n    function commentMeme(uint tokenId, string calldata comment) public payable nonReentrant {\r\n        TokenLikesComment storage mLike = idToTokenLikes[tokenId];\r\n        mLike.comments.push(Comment(msg.sender, comment));\r\n    }\r\n\r\n    // two functios to interact with contract\r\n    // 1. create a market item to put it up for sale\r\n    // 2. create a market sale for buying and selling between parties\r\n\r\n    function makeMarketItem(\r\n        uint tokenId,\r\n        uint price,\r\n        string memory tokenURI,\r\n        uint category\r\n    ) \r\n    public payable nonReentrant {\r\n        // nonReentrant is a modifier to prevent reentry attack\r\n\r\n        require(price > 0, 'Price must be at least one wei');\r\n        require(msg.value >= LISTING_PRICE, 'transaction value must be equal to listing price');\r\n        uint itemId;\r\n        // // approve marketplace\r\n        // IERC721(nftContract).approve(address(this),tokenId); \r\n \r\n\r\n        if (isTokenExists(tokenId)) {\r\n            // this mean token exist in marketplace before\r\n            address ownerNow = ownerOf(tokenId);\r\n            require(payable(msg.sender) == ownerNow, 'You cannot manage this NFTs');\r\n            // update the status of the item\r\n            idToMarketToken[tokenId].seller = payable(msg.sender);\r\n            idToMarketToken[tokenId].owner = payable(address(0));\r\n            idToMarketToken[tokenId].price = price;\r\n            idToMarketToken[tokenId].sold = false;\r\n            itemId = tokenId;\r\n          \r\n        } else {\r\n            // this mean token is new in market place\r\n            _tokenIds.increment();\r\n            itemId = _tokenIds.current();\r\n            mintToken(itemId, tokenURI);\r\n\r\n            //putting it up for sale - bool - no owner\r\n            MarketToken storage m = idToMarketToken[itemId];\r\n            m.itemId = itemId;\r\n            m.nftContract = address(this);\r\n            m.tokenId = itemId;\r\n            m.seller = payable(msg.sender);\r\n            m.owner = payable(address(0));\r\n            m.minter = payable(msg.sender);\r\n            m.price = price;\r\n            m.sold = false;\r\n            m.isExist = true;\r\n            m.timeCreated = block.timestamp;\r\n            m.category = category;\r\n\r\n        }\r\n\r\n        //NFT transaction\r\n        IERC721(address(this)).transferFrom(msg.sender, address(this), itemId);\r\n\r\n        emit MarketTokenMinted(\r\n            itemId, \r\n            address(this), \r\n            itemId, \r\n            payable(msg.sender), \r\n            address(0), \r\n            payable(msg.sender), \r\n            price, \r\n            false,\r\n            true\r\n        );\r\n\r\n    }\r\n\r\n    // two functios to interact with contract\r\n    // 1. create a market item but not sale\r\n\r\n    function makeMarketItemNonSale(\r\n        uint tokenId,\r\n        string memory tokenURI,\r\n        uint category\r\n    ) \r\n    public payable nonReentrant {\r\n        // nonReentrant is a modifier to prevent reentry attack\r\n\r\n        // require(price > 0, 'Price must be at least one wei');\r\n        // require(msg.value > listingPrice, 'transaction value must be equal to listing price');\r\n        uint itemId;\r\n\r\n        // require(msg.value >= listingPrice, 'transaction value must be equal to listing price');\r\n\r\n        if (isTokenExists(tokenId)) {\r\n            // this mean token exist in marketplace before\r\n            \r\n            address ownerNow = ownerOf(tokenId);\r\n            require(payable(msg.sender) == ownerNow, 'You cannot manage this NFTs');\r\n\r\n            idToMarketToken[tokenId].seller = payable(msg.sender);\r\n            idToMarketToken[tokenId].owner = payable(msg.sender);\r\n            idToMarketToken[tokenId].price = 0; \r\n            idToMarketToken[tokenId].sold = true;\r\n            itemId = tokenId;\r\n          \r\n        } else {\r\n            // this mean token is new in market place\r\n            _tokenIds.increment();\r\n            itemId = _tokenIds.current();\r\n            mintToken(itemId, tokenURI);\r\n\r\n            // referencing differently because of mapping inside struct\r\n            MarketToken storage m = idToMarketToken[itemId];\r\n            m.itemId = itemId;\r\n            m.nftContract = address(this);\r\n            m.tokenId = itemId;\r\n            m.seller = payable(msg.sender);\r\n            m.owner = payable(msg.sender);\r\n            m.minter = payable(msg.sender);\r\n            m.price = 0;\r\n            m.sold = true;\r\n            m.isExist = true;\r\n            m.timeCreated = block.timestamp;\r\n            m.category = category;\r\n\r\n        }\r\n\r\n        emit MarketTokenMinted(\r\n            itemId, \r\n            address(this), \r\n            itemId, \r\n            payable(msg.sender), \r\n            address(0), \r\n            payable(msg.sender), \r\n            0, \r\n            false,\r\n            true\r\n        );\r\n\r\n    }\r\n\r\n    // function to conduct transactions and market sales\r\n\r\n    function createMarketSale(\r\n        uint tokenId\r\n    )\r\n    public payable nonReentrant {\r\n        uint price = idToMarketToken[tokenId].price;\r\n        uint currTokenId = idToMarketToken[tokenId].tokenId;\r\n\r\n        require(payable(msg.sender) != idToMarketToken[currTokenId].seller, 'You cannot buy your own NFT');\r\n\r\n        require(msg.value == price, 'Please submit the asking price in order to continue');\r\n\r\n        // transfer the amount to the seller\r\n        idToMarketToken[currTokenId].seller.transfer(msg.value);\r\n\r\n        // transfer the token from contract address to the buyer\r\n        IERC721(address(this)).transferFrom(address(this), msg.sender, tokenId);\r\n\r\n        setApprovalForAll(address(this), true);\r\n        _tokensSold.increment();\r\n        totalEthSold += price;\r\n        idToMarketToken[currTokenId].owner = payable(msg.sender);\r\n        idToMarketToken[currTokenId].seller = payable(msg.sender);\r\n        idToMarketToken[currTokenId].sold = true;\r\n        idToMarketToken[currTokenId].price = 0;\r\n\r\n        payable(i_contractOwner).transfer(LISTING_PRICE);\r\n\r\n    }\r\n\r\n    // function to cancel NFT listing\r\n\r\n    function cancelMarketSale(\r\n        uint tokenId\r\n    )\r\n    public payable nonReentrant {\r\n\r\n        // uint price = idToMarketToken[tokenId].price;\r\n        uint currTokenId = idToMarketToken[tokenId].tokenId;\r\n\r\n        // address ownerNow = IERC721(nftContract).ownerOf(tokenId);\r\n        require(payable(msg.sender) == idToMarketToken[currTokenId].seller, 'You cannot manage this NFTs');\r\n\r\n        // transfer the token from contract address to the owner back\r\n        IERC721(address(this)).transferFrom(address(this), msg.sender, tokenId);\r\n        idToMarketToken[currTokenId].owner = payable(msg.sender);\r\n        idToMarketToken[currTokenId].seller = payable(msg.sender);\r\n        idToMarketToken[currTokenId].sold = true;\r\n        idToMarketToken[currTokenId].price = 0;\r\n\r\n\r\n        // transfer back the listing price\r\n        idToMarketToken[currTokenId].seller.transfer(LISTING_PRICE);\r\n\r\n    }\r\n\r\n    //function to fetchMarketItems - minting, buying and selling\r\n    // return the number of unsold items\r\n\r\n    function fetchMarketTokens() public view returns(MarketToken[] memory) {\r\n        uint itemCount = _tokenIds.current();\r\n        // uint unsoldItemCount = itemCount - _tokensSold.current();\r\n        uint currentIndex = 0;\r\n        uint checkingIndex = 0;\r\n\r\n        // looping over the number of items created (if number has not been sold populate the array) \r\n        //  MarketToken[] memory items = new MarketToken[](itemCount);\r\n        MarketToken[] memory items = new MarketToken[](itemCount);\r\n        while (checkingIndex < itemCount) {\r\n            \r\n            if (idToMarketToken[checkingIndex + 1].isExist == true) {\r\n                uint currentId = checkingIndex + 1;\r\n                MarketToken storage currentItem = idToMarketToken[currentId];\r\n                if (currentItem.owner == payable(address(0)) && currentItem.isExist == true) {\r\n                    items[currentIndex] = currentItem;\r\n                    currentIndex += 1;\r\n                }\r\n\r\n            }\r\n            checkingIndex +=1;\r\n        }\r\n        return items;\r\n    }\r\n\r\n    // return nfts that the user has purchased\r\n\r\n    function fetchMyNFTs() public view returns (MarketToken[] memory) {\r\n        uint totalItemCount = _tokenIds.current();\r\n        // a second counter for each individual user\r\n        uint currentIndex = 0;\r\n        uint checkingIndex = 0;\r\n        uint itemCount = 0;\r\n\r\n        for (uint i = 0; i < totalItemCount; i++) {\r\n            if(idToMarketToken[i + 1].owner == msg.sender || idToMarketToken[i + 1].seller == msg.sender) {\r\n                \r\n                 if (idToMarketToken[i + 1].isExist == true) {\r\n                    itemCount += 1;\r\n                }               \r\n            }\r\n        }\r\n\r\n\r\n        MarketToken[] memory items = new MarketToken[](itemCount);\r\n        while (checkingIndex < totalItemCount) {\r\n            if (idToMarketToken[checkingIndex + 1].owner == msg.sender || idToMarketToken[checkingIndex + 1].seller == msg.sender) {\r\n                uint currentId = checkingIndex + 1;\r\n                // current array\r\n                MarketToken storage currentItem = idToMarketToken[currentId];\r\n                if (currentItem.isExist == true) {\r\n                    items[currentIndex] = currentItem;\r\n                    currentIndex += 1;\r\n                }\r\n\r\n            }\r\n            checkingIndex +=1;\r\n        }\r\n        return items;\r\n    }\r\n\r\n\r\n    function fetchMarketAllTokens() public view returns(MarketToken[] memory) {\r\n        uint itemCount = _tokenIds.current();\r\n        // uint unsoldItemCount = itemCount - _tokensSold.current();\r\n        uint currentIndex = 0;\r\n        uint checkingIndex = 0;\r\n\r\n        // looping over the number of items created (if number has not been sold populate the array)\r\n        // MarketToken[] memory items = new MarketToken[](itemCount);\r\n        MarketToken[] memory items = new MarketToken[](itemCount);\r\n        while (checkingIndex < itemCount) {\r\n\r\n            uint currentId = checkingIndex + 1;\r\n            MarketToken storage currentItem = idToMarketToken[currentId];\r\n            if (currentItem.isExist == true) {\r\n                items[currentIndex] = currentItem;\r\n                currentIndex += 1;\r\n            }\r\n            checkingIndex +=1;\r\n        }\r\n        return items;\r\n    }\r\n\r\n     function fetchMarketCategory(\r\n        uint category\r\n     ) \r\n     public view returns(MarketToken[] memory) {\r\n        uint totalItemCount = _tokenIds.current();\r\n        // uint unsoldItemCount = itemCount - _tokensSold.current();\r\n        uint currentIndex = 0;\r\n        uint checkingIndex = 0;\r\n        uint itemCount = 0;\r\n\r\n        for (uint i = 0; i < totalItemCount; i++) {\r\n            if (idToMarketToken[i + 1].isExist == true && idToMarketToken[i + 1].category == category) {\r\n                itemCount += 1;             \r\n            }\r\n        }\r\n\r\n\r\n        // looping over the number of items created (if category same, the return)\r\n        MarketToken[] memory items = new MarketToken[](itemCount);\r\n        while (checkingIndex < totalItemCount) {\r\n\r\n            uint currentId = checkingIndex + 1;\r\n            MarketToken storage currentItem = idToMarketToken[currentId];\r\n            if (currentItem.isExist == true && currentItem.category == category) {\r\n                items[currentIndex] = currentItem;\r\n                currentIndex += 1;\r\n            }\r\n            checkingIndex +=1;\r\n        }\r\n        return items;\r\n    }         \r\n\r\n    \r\n}",
  "sourcePath": "D:\\react-next-js\\meme-chain\\contracts\\MemeMarketplaceV2.sol",
  "compiler": {
    "name": "solc",
    "version": "0.8.13+commit.abaa5c0e.Emscripten.clang"
  },
  "schemaVersion": "3.4.7",
  "updatedAt": "2022-07-16T14:58:16.719Z",
  "networkType": "ethereum",
  "devdoc": {
    "kind": "dev",
    "methods": {
      "approve(address,uint256)": {
        "details": "See {IERC721-approve}."
      },
      "balanceOf(address)": {
        "details": "See {IERC721-balanceOf}."
      },
      "getApproved(uint256)": {
        "details": "See {IERC721-getApproved}."
      },
      "isApprovedForAll(address,address)": {
        "details": "See {IERC721-isApprovedForAll}."
      },
      "name()": {
        "details": "See {IERC721Metadata-name}."
      },
      "ownerOf(uint256)": {
        "details": "See {IERC721-ownerOf}."
      },
      "safeTransferFrom(address,address,uint256)": {
        "details": "See {IERC721-safeTransferFrom}."
      },
      "safeTransferFrom(address,address,uint256,bytes)": {
        "details": "See {IERC721-safeTransferFrom}."
      },
      "setApprovalForAll(address,bool)": {
        "details": "See {IERC721-setApprovalForAll}."
      },
      "supportsInterface(bytes4)": {
        "details": "See {IERC165-supportsInterface}."
      },
      "symbol()": {
        "details": "See {IERC721Metadata-symbol}."
      },
      "tokenURI(uint256)": {
        "details": "See {IERC721Metadata-tokenURI}."
      },
      "transferFrom(address,address,uint256)": {
        "details": "See {IERC721-transferFrom}."
      }
    },
    "version": 1
  },
  "userdoc": {
    "kind": "user",
    "methods": {},
    "version": 1
  }
}