{
  "contractName": "MemeMarketplace",
  "abi": [
    {
      "inputs": [],
      "stateMutability": "nonpayable",
      "type": "constructor"
    },
    {
      "anonymous": false,
      "inputs": [
        {
          "indexed": true,
          "internalType": "uint256",
          "name": "itemId",
          "type": "uint256"
        },
        {
          "indexed": true,
          "internalType": "address",
          "name": "nftContract",
          "type": "address"
        },
        {
          "indexed": true,
          "internalType": "uint256",
          "name": "tokenId",
          "type": "uint256"
        },
        {
          "indexed": false,
          "internalType": "address",
          "name": "seller",
          "type": "address"
        },
        {
          "indexed": false,
          "internalType": "address",
          "name": "owner",
          "type": "address"
        },
        {
          "indexed": false,
          "internalType": "address",
          "name": "minter",
          "type": "address"
        },
        {
          "indexed": false,
          "internalType": "uint256",
          "name": "price",
          "type": "uint256"
        },
        {
          "indexed": false,
          "internalType": "bool",
          "name": "sold",
          "type": "bool"
        },
        {
          "indexed": false,
          "internalType": "bool",
          "name": "isExist",
          "type": "bool"
        }
      ],
      "name": "MarketTokenMinted",
      "type": "event"
    },
    {
      "anonymous": false,
      "inputs": [
        {
          "indexed": true,
          "internalType": "uint256",
          "name": "itemId",
          "type": "uint256"
        },
        {
          "indexed": false,
          "internalType": "uint256",
          "name": "likes",
          "type": "uint256"
        },
        {
          "indexed": false,
          "internalType": "uint256",
          "name": "dislikes",
          "type": "uint256"
        }
      ],
      "name": "TokenSocialEvent",
      "type": "event"
    },
    {
      "inputs": [],
      "name": "getListingPrice",
      "outputs": [
        {
          "internalType": "uint256",
          "name": "",
          "type": "uint256"
        }
      ],
      "stateMutability": "view",
      "type": "function",
      "constant": true
    },
    {
      "inputs": [],
      "name": "getTotalSoldCount",
      "outputs": [
        {
          "internalType": "uint256",
          "name": "",
          "type": "uint256"
        }
      ],
      "stateMutability": "view",
      "type": "function",
      "constant": true
    },
    {
      "inputs": [],
      "name": "getTotalSold",
      "outputs": [
        {
          "internalType": "uint256",
          "name": "",
          "type": "uint256"
        }
      ],
      "stateMutability": "view",
      "type": "function",
      "constant": true
    },
    {
      "inputs": [],
      "name": "getCount",
      "outputs": [
        {
          "internalType": "uint256",
          "name": "",
          "type": "uint256"
        }
      ],
      "stateMutability": "view",
      "type": "function",
      "constant": true
    },
    {
      "inputs": [
        {
          "internalType": "address",
          "name": "nftContract",
          "type": "address"
        },
        {
          "internalType": "uint256",
          "name": "tokenId",
          "type": "uint256"
        }
      ],
      "name": "getOwner",
      "outputs": [
        {
          "internalType": "address",
          "name": "",
          "type": "address"
        }
      ],
      "stateMutability": "view",
      "type": "function",
      "constant": true
    },
    {
      "inputs": [
        {
          "internalType": "uint256",
          "name": "tokenId",
          "type": "uint256"
        }
      ],
      "name": "getSingleMarketToken",
      "outputs": [
        {
          "components": [
            {
              "internalType": "uint256",
              "name": "itemId",
              "type": "uint256"
            },
            {
              "internalType": "address",
              "name": "nftContract",
              "type": "address"
            },
            {
              "internalType": "uint256",
              "name": "tokenId",
              "type": "uint256"
            },
            {
              "internalType": "address payable",
              "name": "seller",
              "type": "address"
            },
            {
              "internalType": "address payable",
              "name": "owner",
              "type": "address"
            },
            {
              "internalType": "address payable",
              "name": "minter",
              "type": "address"
            },
            {
              "internalType": "uint256",
              "name": "price",
              "type": "uint256"
            },
            {
              "internalType": "bool",
              "name": "sold",
              "type": "bool"
            },
            {
              "internalType": "bool",
              "name": "isExist",
              "type": "bool"
            },
            {
              "internalType": "uint256",
              "name": "timeCreated",
              "type": "uint256"
            },
            {
              "internalType": "uint256",
              "name": "likes",
              "type": "uint256"
            },
            {
              "internalType": "uint256",
              "name": "dislikes",
              "type": "uint256"
            }
          ],
          "internalType": "struct MemeMarketplace.MarketToken",
          "name": "",
          "type": "tuple"
        }
      ],
      "stateMutability": "view",
      "type": "function",
      "constant": true
    },
    {
      "inputs": [
        {
          "internalType": "uint256",
          "name": "tokenId",
          "type": "uint256"
        }
      ],
      "name": "isTokenExists",
      "outputs": [
        {
          "internalType": "bool",
          "name": "",
          "type": "bool"
        }
      ],
      "stateMutability": "view",
      "type": "function",
      "constant": true
    },
    {
      "inputs": [
        {
          "internalType": "uint256",
          "name": "tokenId",
          "type": "uint256"
        }
      ],
      "name": "getComments",
      "outputs": [
        {
          "components": [
            {
              "internalType": "address",
              "name": "addr",
              "type": "address"
            },
            {
              "internalType": "string",
              "name": "comment",
              "type": "string"
            }
          ],
          "internalType": "struct MemeMarketplace.Comment[]",
          "name": "",
          "type": "tuple[]"
        }
      ],
      "stateMutability": "view",
      "type": "function",
      "constant": true
    },
    {
      "inputs": [
        {
          "internalType": "uint256",
          "name": "tokenId",
          "type": "uint256"
        }
      ],
      "name": "getLikeStatus",
      "outputs": [
        {
          "internalType": "uint256",
          "name": "",
          "type": "uint256"
        }
      ],
      "stateMutability": "view",
      "type": "function",
      "constant": true
    },
    {
      "inputs": [
        {
          "internalType": "uint256",
          "name": "tokenId",
          "type": "uint256"
        }
      ],
      "name": "likeMeme",
      "outputs": [],
      "stateMutability": "payable",
      "type": "function",
      "payable": true
    },
    {
      "inputs": [
        {
          "internalType": "uint256",
          "name": "tokenId",
          "type": "uint256"
        }
      ],
      "name": "dislikeMeme",
      "outputs": [],
      "stateMutability": "payable",
      "type": "function",
      "payable": true
    },
    {
      "inputs": [
        {
          "internalType": "uint256",
          "name": "tokenId",
          "type": "uint256"
        },
        {
          "internalType": "string",
          "name": "comment",
          "type": "string"
        }
      ],
      "name": "commentMeme",
      "outputs": [],
      "stateMutability": "payable",
      "type": "function",
      "payable": true
    },
    {
      "inputs": [
        {
          "internalType": "address",
          "name": "nftContract",
          "type": "address"
        },
        {
          "internalType": "uint256",
          "name": "tokenId",
          "type": "uint256"
        },
        {
          "internalType": "uint256",
          "name": "price",
          "type": "uint256"
        }
      ],
      "name": "makeMarketItem",
      "outputs": [],
      "stateMutability": "payable",
      "type": "function",
      "payable": true
    },
    {
      "inputs": [
        {
          "internalType": "address",
          "name": "nftContract",
          "type": "address"
        },
        {
          "internalType": "uint256",
          "name": "tokenId",
          "type": "uint256"
        }
      ],
      "name": "makeMarketItemNonSale",
      "outputs": [],
      "stateMutability": "payable",
      "type": "function",
      "payable": true
    },
    {
      "inputs": [
        {
          "internalType": "address",
          "name": "nftContract",
          "type": "address"
        },
        {
          "internalType": "uint256",
          "name": "tokenId",
          "type": "uint256"
        }
      ],
      "name": "createMarketSale",
      "outputs": [],
      "stateMutability": "payable",
      "type": "function",
      "payable": true
    },
    {
      "inputs": [
        {
          "internalType": "address",
          "name": "nftContract",
          "type": "address"
        },
        {
          "internalType": "uint256",
          "name": "tokenId",
          "type": "uint256"
        }
      ],
      "name": "cancelMarketSale",
      "outputs": [],
      "stateMutability": "payable",
      "type": "function",
      "payable": true
    },
    {
      "inputs": [],
      "name": "fetchMarketTokens",
      "outputs": [
        {
          "components": [
            {
              "internalType": "uint256",
              "name": "itemId",
              "type": "uint256"
            },
            {
              "internalType": "address",
              "name": "nftContract",
              "type": "address"
            },
            {
              "internalType": "uint256",
              "name": "tokenId",
              "type": "uint256"
            },
            {
              "internalType": "address payable",
              "name": "seller",
              "type": "address"
            },
            {
              "internalType": "address payable",
              "name": "owner",
              "type": "address"
            },
            {
              "internalType": "address payable",
              "name": "minter",
              "type": "address"
            },
            {
              "internalType": "uint256",
              "name": "price",
              "type": "uint256"
            },
            {
              "internalType": "bool",
              "name": "sold",
              "type": "bool"
            },
            {
              "internalType": "bool",
              "name": "isExist",
              "type": "bool"
            },
            {
              "internalType": "uint256",
              "name": "timeCreated",
              "type": "uint256"
            },
            {
              "internalType": "uint256",
              "name": "likes",
              "type": "uint256"
            },
            {
              "internalType": "uint256",
              "name": "dislikes",
              "type": "uint256"
            }
          ],
          "internalType": "struct MemeMarketplace.MarketToken[]",
          "name": "",
          "type": "tuple[]"
        }
      ],
      "stateMutability": "view",
      "type": "function",
      "constant": true
    },
    {
      "inputs": [],
      "name": "fetchMyNFTs",
      "outputs": [
        {
          "components": [
            {
              "internalType": "uint256",
              "name": "itemId",
              "type": "uint256"
            },
            {
              "internalType": "address",
              "name": "nftContract",
              "type": "address"
            },
            {
              "internalType": "uint256",
              "name": "tokenId",
              "type": "uint256"
            },
            {
              "internalType": "address payable",
              "name": "seller",
              "type": "address"
            },
            {
              "internalType": "address payable",
              "name": "owner",
              "type": "address"
            },
            {
              "internalType": "address payable",
              "name": "minter",
              "type": "address"
            },
            {
              "internalType": "uint256",
              "name": "price",
              "type": "uint256"
            },
            {
              "internalType": "bool",
              "name": "sold",
              "type": "bool"
            },
            {
              "internalType": "bool",
              "name": "isExist",
              "type": "bool"
            },
            {
              "internalType": "uint256",
              "name": "timeCreated",
              "type": "uint256"
            },
            {
              "internalType": "uint256",
              "name": "likes",
              "type": "uint256"
            },
            {
              "internalType": "uint256",
              "name": "dislikes",
              "type": "uint256"
            }
          ],
          "internalType": "struct MemeMarketplace.MarketToken[]",
          "name": "",
          "type": "tuple[]"
        }
      ],
      "stateMutability": "view",
      "type": "function",
      "constant": true
    },
    {
      "inputs": [],
      "name": "fetchItemsCreated",
      "outputs": [
        {
          "components": [
            {
              "internalType": "uint256",
              "name": "itemId",
              "type": "uint256"
            },
            {
              "internalType": "address",
              "name": "nftContract",
              "type": "address"
            },
            {
              "internalType": "uint256",
              "name": "tokenId",
              "type": "uint256"
            },
            {
              "internalType": "address payable",
              "name": "seller",
              "type": "address"
            },
            {
              "internalType": "address payable",
              "name": "owner",
              "type": "address"
            },
            {
              "internalType": "address payable",
              "name": "minter",
              "type": "address"
            },
            {
              "internalType": "uint256",
              "name": "price",
              "type": "uint256"
            },
            {
              "internalType": "bool",
              "name": "sold",
              "type": "bool"
            },
            {
              "internalType": "bool",
              "name": "isExist",
              "type": "bool"
            },
            {
              "internalType": "uint256",
              "name": "timeCreated",
              "type": "uint256"
            },
            {
              "internalType": "uint256",
              "name": "likes",
              "type": "uint256"
            },
            {
              "internalType": "uint256",
              "name": "dislikes",
              "type": "uint256"
            }
          ],
          "internalType": "struct MemeMarketplace.MarketToken[]",
          "name": "",
          "type": "tuple[]"
        }
      ],
      "stateMutability": "view",
      "type": "function",
      "constant": true
    },
    {
      "inputs": [],
      "name": "fetchMarketAllTokens",
      "outputs": [
        {
          "components": [
            {
              "internalType": "uint256",
              "name": "itemId",
              "type": "uint256"
            },
            {
              "internalType": "address",
              "name": "nftContract",
              "type": "address"
            },
            {
              "internalType": "uint256",
              "name": "tokenId",
              "type": "uint256"
            },
            {
              "internalType": "address payable",
              "name": "seller",
              "type": "address"
            },
            {
              "internalType": "address payable",
              "name": "owner",
              "type": "address"
            },
            {
              "internalType": "address payable",
              "name": "minter",
              "type": "address"
            },
            {
              "internalType": "uint256",
              "name": "price",
              "type": "uint256"
            },
            {
              "internalType": "bool",
              "name": "sold",
              "type": "bool"
            },
            {
              "internalType": "bool",
              "name": "isExist",
              "type": "bool"
            },
            {
              "internalType": "uint256",
              "name": "timeCreated",
              "type": "uint256"
            },
            {
              "internalType": "uint256",
              "name": "likes",
              "type": "uint256"
            },
            {
              "internalType": "uint256",
              "name": "dislikes",
              "type": "uint256"
            }
          ],
          "internalType": "struct MemeMarketplace.MarketToken[]",
          "name": "",
          "type": "tuple[]"
        }
      ],
      "stateMutability": "view",
      "type": "function",
      "constant": true
    }
  ],
  "bytecode": "0x60806040526000600355669fdf42f6e4800060055534801561002057600080fd5b50600160008190555033600460006101000a81548173ffffffffffffffffffffffffffffffffffffffff021916908373ffffffffffffffffffffffffffffffffffffffff160217905550613d01806100796000396000f3fe60806040526004361061011f5760003560e01c80639c55a70f116100a0578063c23b139e11610064578063c23b139e146103a6578063c69bdf75146103c2578063ce69f767146103ed578063de4f72a314610409578063f064c32e146104465761011f565b80639c55a70f146102de5780639d7b8e68146102fa578063a87d942c14610325578063ae76cd4f14610350578063ae78cea11461037b5761011f565b80632f634a90116100e75780632f634a901461021057806331f2479c1461024d578063634a2bd81461028a578063685b3e5c146102a65780637a060f56146102c25761011f565b806312e85585146101245780631dd9cf861461014f5780631f7017041461016b578063202e3740146101a857806323edf697146101d3575b600080fd5b34801561013057600080fd5b50610139610471565b6040516101469190612f1f565b60405180910390f35b61016960048036038101906101649190612fce565b61047b565b005b34801561017757600080fd5b50610192600480360381019061018d919061300e565b6106f8565b60405161019f9190613056565b60405180910390f35b3480156101b457600080fd5b506101bd610725565b6040516101ca9190613265565b60405180910390f35b3480156101df57600080fd5b506101fa60048036038101906101f5919061300e565b610c09565b604051610207919061341f565b60405180910390f35b34801561021c57600080fd5b5061023760048036038101906102329190612fce565b610d66565b6040516102449190613450565b60405180910390f35b34801561025957600080fd5b50610274600480360381019061026f919061300e565b610dea565b6040516102819190613561565b60405180910390f35b6102a4600480360381019061029f919061300e565b610fe2565b005b6102c060048036038101906102bb9190612fce565b6112c9565b005b6102dc60048036038101906102d7919061357d565b6116f4565b005b6102f860048036038101906102f3919061300e565b611b47565b005b34801561030657600080fd5b5061030f611e2e565b60405161031c9190612f1f565b60405180910390f35b34801561033157600080fd5b5061033a611e38565b6040516103479190612f1f565b60405180910390f35b34801561035c57600080fd5b50610365611e49565b6040516103729190612f1f565b60405180910390f35b34801561038757600080fd5b50610390611e5a565b60405161039d9190613265565b60405180910390f35b6103c060048036038101906103bb9190612fce565b612119565b005b3480156103ce57600080fd5b506103d76123f0565b6040516103e49190613265565b60405180910390f35b61040760048036038101906104029190613635565b612726565b005b34801561041557600080fd5b50610430600480360381019061042b919061300e565b61289a565b60405161043d9190612f1f565b60405180910390f35b34801561045257600080fd5b5061045b612990565b6040516104689190613265565b60405180910390f35b6000600554905090565b6002600054036104c0576040517f08c379a00000000000000000000000000000000000000000000000000000000081526004016104b7906136f2565b60405180910390fd5b60026000819055506000600660008381526020019081526020016000206002015490506006600082815260200190815260200160002060030160009054906101000a900473ffffffffffffffffffffffffffffffffffffffff1673ffffffffffffffffffffffffffffffffffffffff163373ffffffffffffffffffffffffffffffffffffffff1614610587576040517f08c379a000000000000000000000000000000000000000000000000000000000815260040161057e9061375e565b60405180910390fd5b8273ffffffffffffffffffffffffffffffffffffffff166323b872dd3033856040518463ffffffff1660e01b81526004016105c49392919061377e565b600060405180830381600087803b1580156105de57600080fd5b505af11580156105f2573d6000803e3d6000fd5b50505050336006600083815260200190815260200160002060040160006101000a81548173ffffffffffffffffffffffffffffffffffffffff021916908373ffffffffffffffffffffffffffffffffffffffff160217905550336006600083815260200190815260200160002060030160006101000a81548173ffffffffffffffffffffffffffffffffffffffff021916908373ffffffffffffffffffffffffffffffffffffffff16021790555060016006600083815260200190815260200160002060070160006101000a81548160ff021916908315150217905550600060066000838152602001908152602001600020600601819055505060016000819055505050565b60006006600083815260200190815260200160002060070160019054906101000a900460ff169050919050565b606060006107336001612d82565b905060008060005b83811015610854573373ffffffffffffffffffffffffffffffffffffffff166006600060018461076b91906137e4565b815260200190815260200160002060040160009054906101000a900473ffffffffffffffffffffffffffffffffffffffff1673ffffffffffffffffffffffffffffffffffffffff16148061082c57503373ffffffffffffffffffffffffffffffffffffffff16600660006001846107e291906137e4565b815260200190815260200160002060040160009054906101000a900473ffffffffffffffffffffffffffffffffffffffff1673ffffffffffffffffffffffffffffffffffffffff16145b156108415760018361083e91906137e4565b92505b808061084c9061383a565b91505061073b565b5060008367ffffffffffffffff81111561087157610870613882565b5b6040519080825280602002602001820160405280156108aa57816020015b610897612da6565b81526020019060019003908161088f5790505b50905060005b84811015610bfe573373ffffffffffffffffffffffffffffffffffffffff16600660006001846108e091906137e4565b815260200190815260200160002060040160009054906101000a900473ffffffffffffffffffffffffffffffffffffffff1673ffffffffffffffffffffffffffffffffffffffff1614806109a157503373ffffffffffffffffffffffffffffffffffffffff166006600060018461095791906137e4565b815260200190815260200160002060030160009054906101000a900473ffffffffffffffffffffffffffffffffffffffff1673ffffffffffffffffffffffffffffffffffffffff16145b15610beb576000600660006001846109b991906137e4565b815260200190815260200160002060000154905060006006600083815260200190815260200160002090508060405180610180016040529081600082015481526020016001820160009054906101000a900473ffffffffffffffffffffffffffffffffffffffff1673ffffffffffffffffffffffffffffffffffffffff1673ffffffffffffffffffffffffffffffffffffffff168152602001600282015481526020016003820160009054906101000a900473ffffffffffffffffffffffffffffffffffffffff1673ffffffffffffffffffffffffffffffffffffffff1673ffffffffffffffffffffffffffffffffffffffff1681526020016004820160009054906101000a900473ffffffffffffffffffffffffffffffffffffffff1673ffffffffffffffffffffffffffffffffffffffff1673ffffffffffffffffffffffffffffffffffffffff1681526020016005820160009054906101000a900473ffffffffffffffffffffffffffffffffffffffff1673ffffffffffffffffffffffffffffffffffffffff1673ffffffffffffffffffffffffffffffffffffffff168152602001600682015481526020016007820160009054906101000a900460ff161515151581526020016007820160019054906101000a900460ff161515151581526020016008820154815260200160098201548152602001600a82015481525050848681518110610bce57610bcd6138b1565b5b6020026020010181905250600185610be691906137e4565b945050505b8080610bf69061383a565b9150506108b0565b508094505050505090565b606060076000838152602001908152602001600020600301805480602002602001604051908101604052809291908181526020016000905b82821015610d5b57838290600052602060002090600202016040518060400160405290816000820160009054906101000a900473ffffffffffffffffffffffffffffffffffffffff1673ffffffffffffffffffffffffffffffffffffffff1673ffffffffffffffffffffffffffffffffffffffff168152602001600182018054610cca9061390f565b80601f0160208091040260200160405190810160405280929190818152602001828054610cf69061390f565b8015610d435780601f10610d1857610100808354040283529160200191610d43565b820191906000526020600020905b815481529060010190602001808311610d2657829003601f168201915b50505050508152505081526020019060010190610c41565b505050509050919050565b60008273ffffffffffffffffffffffffffffffffffffffff16636352211e836040518263ffffffff1660e01b8152600401610da19190612f1f565b602060405180830381865afa158015610dbe573d6000803e3d6000fd5b505050506040513d601f19601f82011682018060405250810190610de29190613955565b905092915050565b610df2612da6565b6006600083815260200190815260200160002060405180610180016040529081600082015481526020016001820160009054906101000a900473ffffffffffffffffffffffffffffffffffffffff1673ffffffffffffffffffffffffffffffffffffffff1673ffffffffffffffffffffffffffffffffffffffff168152602001600282015481526020016003820160009054906101000a900473ffffffffffffffffffffffffffffffffffffffff1673ffffffffffffffffffffffffffffffffffffffff1673ffffffffffffffffffffffffffffffffffffffff1681526020016004820160009054906101000a900473ffffffffffffffffffffffffffffffffffffffff1673ffffffffffffffffffffffffffffffffffffffff1673ffffffffffffffffffffffffffffffffffffffff1681526020016005820160009054906101000a900473ffffffffffffffffffffffffffffffffffffffff1673ffffffffffffffffffffffffffffffffffffffff1673ffffffffffffffffffffffffffffffffffffffff168152602001600682015481526020016007820160009054906101000a900460ff161515151581526020016007820160019054906101000a900460ff161515151581526020016008820154815260200160098201548152602001600a820154815250509050919050565b600260005403611027576040517f08c379a000000000000000000000000000000000000000000000000000000000815260040161101e906136f2565b60405180910390fd5b600260008190555060006006600083815260200190815260200160002090506000600760008481526020019081526020016000209050600115158160020160003373ffffffffffffffffffffffffffffffffffffffff1673ffffffffffffffffffffffffffffffffffffffff16815260200190815260200160002060009054906101000a900460ff161515036111325760008160020160003373ffffffffffffffffffffffffffffffffffffffff1673ffffffffffffffffffffffffffffffffffffffff16815260200190815260200160002060006101000a81548160ff021916908315150217905550600182600a0160008282546111269190613982565b9250508190555061127a565b60018160020160003373ffffffffffffffffffffffffffffffffffffffff1673ffffffffffffffffffffffffffffffffffffffff16815260200190815260200160002060006101000a81548160ff021916908315150217905550600182600a0160008282546111a191906137e4565b92505081905550600115158160010160003373ffffffffffffffffffffffffffffffffffffffff1673ffffffffffffffffffffffffffffffffffffffff16815260200190815260200160002060009054906101000a900460ff161515036112795760018260090160008282546112179190613982565b9250508190555060008160010160003373ffffffffffffffffffffffffffffffffffffffff1673ffffffffffffffffffffffffffffffffffffffff16815260200190815260200160002060006101000a81548160ff0219169083151502179055505b5b827ff49c1ce45188f667b0f55bb9e92eeeb8bc7fcabe5ae102ba9e50d0495192a715836009015484600a01546040516112b49291906139b6565b60405180910390a25050600160008190555050565b60026000540361130e576040517f08c379a0000000000000000000000000000000000000000000000000000000008152600401611305906136f2565b60405180910390fd5b60026000819055506000808373ffffffffffffffffffffffffffffffffffffffff16636352211e846040518263ffffffff1660e01b81526004016113529190612f1f565b602060405180830381865afa15801561136f573d6000803e3d6000fd5b505050506040513d601f19601f820116820180604052508101906113939190613955565b90508073ffffffffffffffffffffffffffffffffffffffff163373ffffffffffffffffffffffffffffffffffffffff1614611403576040517f08c379a00000000000000000000000000000000000000000000000000000000081526004016113fa9061375e565b60405180910390fd5b61140c836106f8565b156114ef57336006600085815260200190815260200160002060030160006101000a81548173ffffffffffffffffffffffffffffffffffffffff021916908373ffffffffffffffffffffffffffffffffffffffff160217905550336006600085815260200190815260200160002060040160006101000a81548173ffffffffffffffffffffffffffffffffffffffff021916908373ffffffffffffffffffffffffffffffffffffffff16021790555060016006600085815260200190815260200160002060070160006101000a81548160ff021916908315150217905550611689565b6114f96001612d90565b6115036001612d82565b91506000600660008581526020019081526020016000209050828160000181905550848160010160006101000a81548173ffffffffffffffffffffffffffffffffffffffff021916908373ffffffffffffffffffffffffffffffffffffffff160217905550838160020181905550338160030160006101000a81548173ffffffffffffffffffffffffffffffffffffffff021916908373ffffffffffffffffffffffffffffffffffffffff160217905550338160040160006101000a81548173ffffffffffffffffffffffffffffffffffffffff021916908373ffffffffffffffffffffffffffffffffffffffff160217905550338160050160006101000a81548173ffffffffffffffffffffffffffffffffffffffff021916908373ffffffffffffffffffffffffffffffffffffffff1602179055506000816006018190555060018160070160006101000a81548160ff02191690831515021790555060018160070160016101000a81548160ff021916908315150217905550428160080181905550505b828473ffffffffffffffffffffffffffffffffffffffff16837f4eb35c3c60bb4872625f5629b63edf6fc44c316e5c83f472a8c89883bd30cf293360003360008060016040516116de96959493929190613a79565b60405180910390a4505060016000819055505050565b600260005403611739576040517f08c379a0000000000000000000000000000000000000000000000000000000008152600401611730906136f2565b60405180910390fd5b600260008190555060008111611784576040517f08c379a000000000000000000000000000000000000000000000000000000000815260040161177b90613b26565b60405180910390fd5b6005543410156117c9576040517f08c379a00000000000000000000000000000000000000000000000000000000081526004016117c090613bb8565b60405180910390fd5b60008373ffffffffffffffffffffffffffffffffffffffff166323b872dd3330866040518463ffffffff1660e01b81526004016118089392919061377e565b600060405180830381600087803b15801561182257600080fd5b505af1158015611836573d6000803e3d6000fd5b50505050611843836106f8565b1561194257336006600085815260200190815260200160002060030160006101000a81548173ffffffffffffffffffffffffffffffffffffffff021916908373ffffffffffffffffffffffffffffffffffffffff16021790555060006006600085815260200190815260200160002060040160006101000a81548173ffffffffffffffffffffffffffffffffffffffff021916908373ffffffffffffffffffffffffffffffffffffffff16021790555081600660008581526020019081526020016000206006018190555060006006600085815260200190815260200160002060070160006101000a81548160ff021916908315150217905550611adc565b61194c6001612d90565b6119566001612d82565b90506000600660008581526020019081526020016000209050818160000181905550848160010160006101000a81548173ffffffffffffffffffffffffffffffffffffffff021916908373ffffffffffffffffffffffffffffffffffffffff160217905550838160020181905550338160030160006101000a81548173ffffffffffffffffffffffffffffffffffffffff021916908373ffffffffffffffffffffffffffffffffffffffff16021790555060008160040160006101000a81548173ffffffffffffffffffffffffffffffffffffffff021916908373ffffffffffffffffffffffffffffffffffffffff160217905550338160050160006101000a81548173ffffffffffffffffffffffffffffffffffffffff021916908373ffffffffffffffffffffffffffffffffffffffff16021790555082816006018190555060008160070160006101000a81548160ff02191690831515021790555060018160070160016101000a81548160ff021916908315150217905550428160080181905550505b828473ffffffffffffffffffffffffffffffffffffffff16827f4eb35c3c60bb4872625f5629b63edf6fc44c316e5c83f472a8c89883bd30cf29336000338860006001604051611b3196959493929190613bd8565b60405180910390a4506001600081905550505050565b600260005403611b8c576040517f08c379a0000000000000000000000000000000000000000000000000000000008152600401611b83906136f2565b60405180910390fd5b600260008190555060006006600083815260200190815260200160002090506000600760008481526020019081526020016000209050600115158160010160003373ffffffffffffffffffffffffffffffffffffffff1673ffffffffffffffffffffffffffffffffffffffff16815260200190815260200160002060009054906101000a900460ff16151503611c975760008160010160003373ffffffffffffffffffffffffffffffffffffffff1673ffffffffffffffffffffffffffffffffffffffff16815260200190815260200160002060006101000a81548160ff0219169083151502179055506001826009016000828254611c8b9190613982565b92505081905550611ddf565b60018160010160003373ffffffffffffffffffffffffffffffffffffffff1673ffffffffffffffffffffffffffffffffffffffff16815260200190815260200160002060006101000a81548160ff0219169083151502179055506001826009016000828254611d0691906137e4565b92505081905550600115158160020160003373ffffffffffffffffffffffffffffffffffffffff1673ffffffffffffffffffffffffffffffffffffffff16815260200190815260200160002060009054906101000a900460ff16151503611dde57600182600a016000828254611d7c9190613982565b9250508190555060008160020160003373ffffffffffffffffffffffffffffffffffffffff1673ffffffffffffffffffffffffffffffffffffffff16815260200190815260200160002060006101000a81548160ff0219169083151502179055505b5b827ff49c1ce45188f667b0f55bb9e92eeeb8bc7fcabe5ae102ba9e50d0495192a715836009015484600a0154604051611e199291906139b6565b60405180910390a25050600160008190555050565b6000600354905090565b6000611e446001612d82565b905090565b6000611e556002612d82565b905090565b60606000611e686001612d82565b90506000808267ffffffffffffffff811115611e8757611e86613882565b5b604051908082528060200260200182016040528015611ec057816020015b611ead612da6565b815260200190600190039081611ea55790505b50905060005b8381101561210f576000600182611edd91906137e4565b905060006006600083815260200190815260200160002090508060405180610180016040529081600082015481526020016001820160009054906101000a900473ffffffffffffffffffffffffffffffffffffffff1673ffffffffffffffffffffffffffffffffffffffff1673ffffffffffffffffffffffffffffffffffffffff168152602001600282015481526020016003820160009054906101000a900473ffffffffffffffffffffffffffffffffffffffff1673ffffffffffffffffffffffffffffffffffffffff1673ffffffffffffffffffffffffffffffffffffffff1681526020016004820160009054906101000a900473ffffffffffffffffffffffffffffffffffffffff1673ffffffffffffffffffffffffffffffffffffffff1673ffffffffffffffffffffffffffffffffffffffff1681526020016005820160009054906101000a900473ffffffffffffffffffffffffffffffffffffffff1673ffffffffffffffffffffffffffffffffffffffff1673ffffffffffffffffffffffffffffffffffffffff168152602001600682015481526020016007820160009054906101000a900460ff161515151581526020016007820160019054906101000a900460ff161515151581526020016008820154815260200160098201548152602001600a820154815250508486815181106120e0576120df6138b1565b5b60200260200101819052506001856120f891906137e4565b9450505080806121079061383a565b915050611ec6565b5080935050505090565b60026000540361215e576040517f08c379a0000000000000000000000000000000000000000000000000000000008152600401612155906136f2565b60405180910390fd5b60026000819055506000600660008381526020019081526020016000206006015490506000600660008481526020019081526020016000206002015490508134146121de576040517f08c379a00000000000000000000000000000000000000000000000000000000081526004016121d590613cab565b60405180910390fd5b6006600082815260200190815260200160002060030160009054906101000a900473ffffffffffffffffffffffffffffffffffffffff1673ffffffffffffffffffffffffffffffffffffffff166108fc349081150290604051600060405180830381858888f1935050505015801561225a573d6000803e3d6000fd5b508373ffffffffffffffffffffffffffffffffffffffff166323b872dd3033866040518463ffffffff1660e01b81526004016122989392919061377e565b600060405180830381600087803b1580156122b257600080fd5b505af11580156122c6573d6000803e3d6000fd5b505050506122d46002612d90565b81600360008282546122e691906137e4565b92505081905550336006600083815260200190815260200160002060040160006101000a81548173ffffffffffffffffffffffffffffffffffffffff021916908373ffffffffffffffffffffffffffffffffffffffff160217905550336006600083815260200190815260200160002060030160006101000a81548173ffffffffffffffffffffffffffffffffffffffff021916908373ffffffffffffffffffffffffffffffffffffffff16021790555060016006600083815260200190815260200160002060070160006101000a81548160ff02191690831515021790555060006006600083815260200190815260200160002060060181905550505060016000819055505050565b606060006123fe6001612d82565b90506000808267ffffffffffffffff81111561241d5761241c613882565b5b60405190808252806020026020018201604052801561245657816020015b612443612da6565b81526020019060019003908161243b5790505b50905060005b8381101561271c57600073ffffffffffffffffffffffffffffffffffffffff166006600060018461248d91906137e4565b815260200190815260200160002060040160009054906101000a900473ffffffffffffffffffffffffffffffffffffffff1673ffffffffffffffffffffffffffffffffffffffff16036127095760006001826124e991906137e4565b905060006006600083815260200190815260200160002090508060405180610180016040529081600082015481526020016001820160009054906101000a900473ffffffffffffffffffffffffffffffffffffffff1673ffffffffffffffffffffffffffffffffffffffff1673ffffffffffffffffffffffffffffffffffffffff168152602001600282015481526020016003820160009054906101000a900473ffffffffffffffffffffffffffffffffffffffff1673ffffffffffffffffffffffffffffffffffffffff1673ffffffffffffffffffffffffffffffffffffffff1681526020016004820160009054906101000a900473ffffffffffffffffffffffffffffffffffffffff1673ffffffffffffffffffffffffffffffffffffffff1673ffffffffffffffffffffffffffffffffffffffff1681526020016005820160009054906101000a900473ffffffffffffffffffffffffffffffffffffffff1673ffffffffffffffffffffffffffffffffffffffff1673ffffffffffffffffffffffffffffffffffffffff168152602001600682015481526020016007820160009054906101000a900460ff161515151581526020016007820160019054906101000a900460ff161515151581526020016008820154815260200160098201548152602001600a820154815250508486815181106126ec576126eb6138b1565b5b602002602001018190525060018561270491906137e4565b945050505b80806127149061383a565b91505061245c565b5080935050505090565b60026000540361276b576040517f08c379a0000000000000000000000000000000000000000000000000000000008152600401612762906136f2565b60405180910390fd5b600260008190555060006007600085815260200190815260200160002090508060030160405180604001604052803373ffffffffffffffffffffffffffffffffffffffff16815260200185858080601f016020809104026020016040519081016040528093929190818152602001838380828437600081840152601f19601f82011690508083019250505050505050815250908060018154018082558091505060019003906000526020600020906002020160009091909190915060008201518160000160006101000a81548173ffffffffffffffffffffffffffffffffffffffff021916908373ffffffffffffffffffffffffffffffffffffffff1602179055506020820151816001019080519060200190612889929190612e63565b505050506001600081905550505050565b6000600115156007600084815260200190815260200160002060010160003373ffffffffffffffffffffffffffffffffffffffff1673ffffffffffffffffffffffffffffffffffffffff16815260200190815260200160002060009054906101000a900460ff16151503612911576000905061298b565b600115156007600084815260200190815260200160002060020160003373ffffffffffffffffffffffffffffffffffffffff1673ffffffffffffffffffffffffffffffffffffffff16815260200190815260200160002060009054906101000a900460ff16151503612986576001905061298b565b600290505b919050565b6060600061299e6001612d82565b905060008060005b83811015612a46573373ffffffffffffffffffffffffffffffffffffffff16600660006001846129d691906137e4565b815260200190815260200160002060050160009054906101000a900473ffffffffffffffffffffffffffffffffffffffff1673ffffffffffffffffffffffffffffffffffffffff1603612a3357600183612a3091906137e4565b92505b8080612a3e9061383a565b9150506129a6565b5060008267ffffffffffffffff811115612a6357612a62613882565b5b604051908082528060200260200182016040528015612a9c57816020015b612a89612da6565b815260200190600190039081612a815790505b50905060005b84811015612d77573373ffffffffffffffffffffffffffffffffffffffff1660066000600184612ad291906137e4565b815260200190815260200160002060030160009054906101000a900473ffffffffffffffffffffffffffffffffffffffff1673ffffffffffffffffffffffffffffffffffffffff1603612d6457600060066000600184612b3291906137e4565b815260200190815260200160002060000154905060006006600083815260200190815260200160002090508060405180610180016040529081600082015481526020016001820160009054906101000a900473ffffffffffffffffffffffffffffffffffffffff1673ffffffffffffffffffffffffffffffffffffffff1673ffffffffffffffffffffffffffffffffffffffff168152602001600282015481526020016003820160009054906101000a900473ffffffffffffffffffffffffffffffffffffffff1673ffffffffffffffffffffffffffffffffffffffff1673ffffffffffffffffffffffffffffffffffffffff1681526020016004820160009054906101000a900473ffffffffffffffffffffffffffffffffffffffff1673ffffffffffffffffffffffffffffffffffffffff1673ffffffffffffffffffffffffffffffffffffffff1681526020016005820160009054906101000a900473ffffffffffffffffffffffffffffffffffffffff1673ffffffffffffffffffffffffffffffffffffffff1673ffffffffffffffffffffffffffffffffffffffff168152602001600682015481526020016007820160009054906101000a900460ff161515151581526020016007820160019054906101000a900460ff161515151581526020016008820154815260200160098201548152602001600a82015481525050848681518110612d4757612d466138b1565b5b6020026020010181905250600185612d5f91906137e4565b945050505b8080612d6f9061383a565b915050612aa2565b508094505050505090565b600081600001549050919050565b6001816000016000828254019250508190555050565b60405180610180016040528060008152602001600073ffffffffffffffffffffffffffffffffffffffff16815260200160008152602001600073ffffffffffffffffffffffffffffffffffffffff168152602001600073ffffffffffffffffffffffffffffffffffffffff168152602001600073ffffffffffffffffffffffffffffffffffffffff168152602001600081526020016000151581526020016000151581526020016000815260200160008152602001600081525090565b828054612e6f9061390f565b90600052602060002090601f016020900481019282612e915760008555612ed8565b82601f10612eaa57805160ff1916838001178555612ed8565b82800160010185558215612ed8579182015b82811115612ed7578251825591602001919060010190612ebc565b5b509050612ee59190612ee9565b5090565b5b80821115612f02576000816000905550600101612eea565b5090565b6000819050919050565b612f1981612f06565b82525050565b6000602082019050612f346000830184612f10565b92915050565b600080fd5b600080fd5b600073ffffffffffffffffffffffffffffffffffffffff82169050919050565b6000612f6f82612f44565b9050919050565b612f7f81612f64565b8114612f8a57600080fd5b50565b600081359050612f9c81612f76565b92915050565b612fab81612f06565b8114612fb657600080fd5b50565b600081359050612fc881612fa2565b92915050565b60008060408385031215612fe557612fe4612f3a565b5b6000612ff385828601612f8d565b925050602061300485828601612fb9565b9150509250929050565b60006020828403121561302457613023612f3a565b5b600061303284828501612fb9565b91505092915050565b60008115159050919050565b6130508161303b565b82525050565b600060208201905061306b6000830184613047565b92915050565b600081519050919050565b600082825260208201905092915050565b6000819050602082019050919050565b6130a681612f06565b82525050565b6130b581612f64565b82525050565b60006130c682612f44565b9050919050565b6130d6816130bb565b82525050565b6130e58161303b565b82525050565b61018082016000820151613102600085018261309d565b50602082015161311560208501826130ac565b506040820151613128604085018261309d565b50606082015161313b60608501826130cd565b50608082015161314e60808501826130cd565b5060a082015161316160a08501826130cd565b5060c082015161317460c085018261309d565b5060e082015161318760e08501826130dc565b5061010082015161319c6101008501826130dc565b506101208201516131b161012085018261309d565b506101408201516131c661014085018261309d565b506101608201516131db61016085018261309d565b50505050565b60006131ed83836130eb565b6101808301905092915050565b6000602082019050919050565b600061321282613071565b61321c818561307c565b93506132278361308d565b8060005b8381101561325857815161323f88826131e1565b975061324a836131fa565b92505060018101905061322b565b5085935050505092915050565b6000602082019050818103600083015261327f8184613207565b905092915050565b600081519050919050565b600082825260208201905092915050565b6000819050602082019050919050565b600081519050919050565b600082825260208201905092915050565b60005b838110156132ed5780820151818401526020810190506132d2565b838111156132fc576000848401525b50505050565b6000601f19601f8301169050919050565b600061331e826132b3565b61332881856132be565b93506133388185602086016132cf565b61334181613302565b840191505092915050565b600060408301600083015161336460008601826130ac565b506020830151848203602086015261337c8282613313565b9150508091505092915050565b6000613395838361334c565b905092915050565b6000602082019050919050565b60006133b582613287565b6133bf8185613292565b9350836020820285016133d1856132a3565b8060005b8581101561340d57848403895281516133ee8582613389565b94506133f98361339d565b925060208a019950506001810190506133d5565b50829750879550505050505092915050565b6000602082019050818103600083015261343981846133aa565b905092915050565b61344a81612f64565b82525050565b60006020820190506134656000830184613441565b92915050565b61018082016000820151613482600085018261309d565b50602082015161349560208501826130ac565b5060408201516134a8604085018261309d565b5060608201516134bb60608501826130cd565b5060808201516134ce60808501826130cd565b5060a08201516134e160a08501826130cd565b5060c08201516134f460c085018261309d565b5060e082015161350760e08501826130dc565b5061010082015161351c6101008501826130dc565b5061012082015161353161012085018261309d565b5061014082015161354661014085018261309d565b5061016082015161355b61016085018261309d565b50505050565b600061018082019050613577600083018461346b565b92915050565b60008060006060848603121561359657613595612f3a565b5b60006135a486828701612f8d565b93505060206135b586828701612fb9565b92505060406135c686828701612fb9565b9150509250925092565b600080fd5b600080fd5b600080fd5b60008083601f8401126135f5576135f46135d0565b5b8235905067ffffffffffffffff811115613612576136116135d5565b5b60208301915083600182028301111561362e5761362d6135da565b5b9250929050565b60008060006040848603121561364e5761364d612f3a565b5b600061365c86828701612fb9565b935050602084013567ffffffffffffffff81111561367d5761367c612f3f565b5b613689868287016135df565b92509250509250925092565b600082825260208201905092915050565b7f5265656e7472616e637947756172643a207265656e7472616e742063616c6c00600082015250565b60006136dc601f83613695565b91506136e7826136a6565b602082019050919050565b6000602082019050818103600083015261370b816136cf565b9050919050565b7f596f752063616e6e6f74206d616e6167652074686973204e4654730000000000600082015250565b6000613748601b83613695565b915061375382613712565b602082019050919050565b600060208201905081810360008301526137778161373b565b9050919050565b60006060820190506137936000830186613441565b6137a06020830185613441565b6137ad6040830184612f10565b949350505050565b7f4e487b7100000000000000000000000000000000000000000000000000000000600052601160045260246000fd5b60006137ef82612f06565b91506137fa83612f06565b9250827fffffffffffffffffffffffffffffffffffffffffffffffffffffffffffffffff0382111561382f5761382e6137b5565b5b828201905092915050565b600061384582612f06565b91507fffffffffffffffffffffffffffffffffffffffffffffffffffffffffffffffff8203613877576138766137b5565b5b600182019050919050565b7f4e487b7100000000000000000000000000000000000000000000000000000000600052604160045260246000fd5b7f4e487b7100000000000000000000000000000000000000000000000000000000600052603260045260246000fd5b7f4e487b7100000000000000000000000000000000000000000000000000000000600052602260045260246000fd5b6000600282049050600182168061392757607f821691505b60208210810361393a576139396138e0565b5b50919050565b60008151905061394f81612f76565b92915050565b60006020828403121561396b5761396a612f3a565b5b600061397984828501613940565b91505092915050565b600061398d82612f06565b915061399883612f06565b9250828210156139ab576139aa6137b5565b5b828203905092915050565b60006040820190506139cb6000830185612f10565b6139d86020830184612f10565b9392505050565b6000819050919050565b6000613a046139ff6139fa84612f44565b6139df565b612f44565b9050919050565b6000613a16826139e9565b9050919050565b6000613a2882613a0b565b9050919050565b613a3881613a1d565b82525050565b6000819050919050565b6000613a63613a5e613a5984613a3e565b6139df565b612f06565b9050919050565b613a7381613a48565b82525050565b600060c082019050613a8e6000830189613a2f565b613a9b6020830188613441565b613aa86040830187613a2f565b613ab56060830186613a6a565b613ac26080830185613047565b613acf60a0830184613047565b979650505050505050565b7f5072696365206d757374206265206174206c65617374206f6e65207765690000600082015250565b6000613b10601e83613695565b9150613b1b82613ada565b602082019050919050565b60006020820190508181036000830152613b3f81613b03565b9050919050565b7f7472616e73616374696f6e2076616c7565206d75737420626520657175616c2060008201527f746f206c697374696e6720707269636500000000000000000000000000000000602082015250565b6000613ba2603083613695565b9150613bad82613b46565b604082019050919050565b60006020820190508181036000830152613bd181613b95565b9050919050565b600060c082019050613bed6000830189613a2f565b613bfa6020830188613441565b613c076040830187613a2f565b613c146060830186612f10565b613c216080830185613047565b613c2e60a0830184613047565b979650505050505050565b7f506c65617365207375626d6974207468652061736b696e67207072696365206960008201527f6e206f7264657220746f20636f6e74696e756500000000000000000000000000602082015250565b6000613c95603383613695565b9150613ca082613c39565b604082019050919050565b60006020820190508181036000830152613cc481613c88565b905091905056fea264697066735822122032f8fa16b0bff587f3172d7a3225b983939649891f82b0426c638d39228c456564736f6c634300080d0033",
  "immutableReferences": {},
  "source": "//SPDX-License-Identifier: MIT\r\npragma solidity ^0.8.4;\r\n\r\nimport '@openzeppelin/contracts/token/ERC721/ERC721.sol';\r\n// security against transactions for multiple request\r\nimport '@openzeppelin/contracts/security/ReentrancyGuard.sol';\r\nimport '@openzeppelin/contracts/utils/Counters.sol';\r\n\r\ncontract MemeMarketplace is ReentrancyGuard {\r\n    using Counters for Counters.Counter;\r\n\r\n    /* number of items minting, number of transactions, token that have not been sold\r\n    keep track of tokens total number - tokenId\r\n    arrays need to know the lentgth - help to keep track for arrays */\r\n\r\n    Counters.Counter private _tokenIds;\r\n    Counters.Counter private _tokensSold;\r\n    uint256 totalEthSold = 0;\r\n\r\n    // determine who is the owner of the contract\r\n    // charge a listing fee so the owner makes a commission\r\n\r\n    address payable owner;\r\n    // we are deploying to matic the API is the same so you can use ether the same as matic\r\n    // they both have 18 deimal\r\n    // mind the matic vs ether price!\r\n    uint256 listingPrice = 0.045 ether;\r\n\r\n    constructor() {\r\n        //set the owner\r\n        owner = payable(msg.sender);\r\n    }\r\n    // structs to hold the comments\r\n    struct Comment {\r\n        address addr;\r\n        string comment;\r\n    }\r\n\r\n    // comment, likes and dislikes\r\n    struct TokenLikesComment {\r\n        uint itemId;\r\n        mapping(address => bool) addToLike;\r\n        mapping(address => bool) addToDislike;\r\n        Comment[] comments;\r\n    }\r\n\r\n    // structs can act like objects\r\n\r\n    struct MarketToken {\r\n        uint itemId;\r\n        address nftContract;\r\n        uint256 tokenId;\r\n        address payable seller;\r\n        address payable owner;\r\n        address payable minter;\r\n        uint256 price;\r\n        bool sold;\r\n        bool isExist;\r\n        uint timeCreated;\r\n        uint likes;\r\n        uint dislikes;\r\n    }\r\n\r\n    // tokenId return which marketToken - fetch which one it is\r\n\r\n    mapping(uint256 => MarketToken) private idToMarketToken;\r\n\r\n    // tokenId to token likes dislike comment\r\n\r\n    mapping(uint256 => TokenLikesComment) private idToTokenLikes;\r\n\r\n    // listen to events for front end applications\r\n    event MarketTokenMinted(\r\n        uint indexed itemId,\r\n        address indexed nftContract,\r\n        uint indexed tokenId,\r\n        address seller,\r\n        address owner,\r\n        address minter,\r\n        uint256 price,\r\n        bool sold,\r\n        bool isExist\r\n    );\r\n\r\n    // listen to events of socials for front end applications\r\n    event TokenSocialEvent(\r\n        uint indexed itemId,\r\n        uint likes,\r\n        uint dislikes\r\n    );\r\n\r\n    // get the listing price\r\n    function getListingPrice() public view returns (uint256) {\r\n        return listingPrice;\r\n    }\r\n\r\n    // get the total sold\r\n    function getTotalSoldCount() public view returns (uint256) {\r\n        return _tokensSold.current();\r\n    }\r\n\r\n    // get the total sold in currency\r\n    function getTotalSold() public view returns (uint256) {\r\n        return totalEthSold;\r\n    }\r\n\r\n    function getCount() public view returns (uint) {\r\n        return _tokenIds.current();\r\n    }\r\n\r\n    // check the owner of NFTs\r\n    function getOwner(address nftContract, uint tokenId) public view returns (address) {\r\n        return IERC721(nftContract).ownerOf(tokenId);\r\n    }\r\n\r\n    // check if tokenId exists\r\n    function getSingleMarketToken(uint256 tokenId) public view returns (MarketToken memory) {\r\n        return idToMarketToken[tokenId];\r\n    }\r\n\r\n    // check if tokenId exists\r\n    function isTokenExists(uint256 tokenId) public view returns (bool) {\r\n        return idToMarketToken[tokenId].isExist;\r\n    }\r\n\r\n    // function to return all comments\r\n    function getComments(uint tokenId) public view returns (Comment[] memory) {\r\n        return idToTokenLikes[tokenId].comments;\r\n    }\r\n\r\n    // function to check if like or dislike or neither\r\n    function getLikeStatus(uint tokenId) public view returns (uint) {\r\n\r\n        if (idToTokenLikes[tokenId].addToLike[msg.sender] == true) {\r\n            return 0;\r\n        }\r\n\r\n        if (idToTokenLikes[tokenId].addToDislike[msg.sender] == true) {\r\n            return 1;\r\n        }\r\n\r\n        return 2;\r\n    }    \r\n\r\n    // create function to like a meme\r\n    function likeMeme(uint tokenId) public payable nonReentrant {\r\n        MarketToken storage m = idToMarketToken[tokenId];\r\n        TokenLikesComment storage mLike = idToTokenLikes[tokenId];\r\n        if (mLike.addToLike[msg.sender] == true) {\r\n            mLike.addToLike[msg.sender] = false;\r\n            m.likes-=1;\r\n        } else {\r\n            mLike.addToLike[msg.sender] = true;\r\n            m.likes+=1;\r\n            if (mLike.addToDislike[msg.sender] == true) {\r\n                m.dislikes-=1;\r\n                mLike.addToDislike[msg.sender] = false;\r\n            }\r\n        }\r\n        \r\n        // it is a good practice to emit event after modifying value transaction\r\n        emit TokenSocialEvent(tokenId, m.likes, m.dislikes);\r\n    }\r\n\r\n    // create function to dislike a meme\r\n    function dislikeMeme(uint tokenId) public payable nonReentrant {\r\n        MarketToken storage m = idToMarketToken[tokenId];\r\n        TokenLikesComment storage mLike = idToTokenLikes[tokenId];\r\n        if (mLike.addToDislike[msg.sender] == true) {\r\n            mLike.addToDislike[msg.sender] = false;\r\n            m.dislikes-=1;\r\n        } else {\r\n            mLike.addToDislike[msg.sender] = true;\r\n            m.dislikes+=1;\r\n            if (mLike.addToLike[msg.sender] == true) {\r\n                m.likes-=1;\r\n                mLike.addToLike[msg.sender] = false;\r\n            }\r\n        }\r\n\r\n        // it is a good practice to emit event after modifying value transaction\r\n        emit TokenSocialEvent(tokenId, m.likes, m.dislikes);\r\n    }\r\n\r\n    // create function to adda comment\r\n    function commentMeme(uint tokenId, string calldata comment) public payable nonReentrant {\r\n        TokenLikesComment storage mLike = idToTokenLikes[tokenId];\r\n        mLike.comments.push(Comment(msg.sender, comment));\r\n    }\r\n\r\n\r\n\r\n    // two functios to interact with contract\r\n    // 1. create a market item to put it up for sale\r\n    // 2. create a market sale for buying and selling between parties\r\n\r\n    function makeMarketItem(\r\n        address nftContract,\r\n        uint tokenId,\r\n        uint price\r\n    ) \r\n    public payable nonReentrant {\r\n        // nonReentrant is a modifier to prevent reentry attack\r\n\r\n        require(price > 0, 'Price must be at least one wei');\r\n        require(msg.value >= listingPrice, 'transaction value must be equal to listing price');\r\n        uint itemId;\r\n        // // approve marketplace\r\n        // IERC721(nftContract).approve(address(this),tokenId); \r\n        //NFT transaction\r\n        IERC721(nftContract).transferFrom(msg.sender, address(this), tokenId);\r\n\r\n        if (isTokenExists(tokenId)) {\r\n            // this mean token exist in marketplace before\r\n            idToMarketToken[tokenId].seller = payable(msg.sender);\r\n            idToMarketToken[tokenId].owner = payable(address(0));\r\n            idToMarketToken[tokenId].price = price;\r\n            idToMarketToken[tokenId].sold = false;\r\n          \r\n        } else {\r\n            // this mean token is new in market place\r\n            _tokenIds.increment();\r\n            itemId = _tokenIds.current();\r\n\r\n            //putting it up for sale - bool - no owner\r\n            MarketToken storage m = idToMarketToken[tokenId];\r\n            m.itemId = itemId;\r\n            m.nftContract = nftContract;\r\n            m.tokenId = tokenId;\r\n            m.seller = payable(msg.sender);\r\n            m.owner = payable(address(0));\r\n            m.minter = payable(msg.sender);\r\n            m.price = price;\r\n            m.sold = false;\r\n            m.isExist = true;\r\n            m.timeCreated = block.timestamp;\r\n            // idToMarketToken[tokenId] = MarketToken(\r\n            //     itemId,\r\n            //     nftContract,\r\n            //     tokenId,\r\n            //     payable(msg.sender),\r\n            //     payable(address(0)),\r\n            //     payable(msg.sender),\r\n            //     price,\r\n            //     false,\r\n            //     true,\r\n            //     block.timestamp          \r\n            // );\r\n        }\r\n\r\n\r\n    \r\n\r\n        emit MarketTokenMinted(\r\n            itemId, \r\n            nftContract, \r\n            tokenId, \r\n            payable(msg.sender), \r\n            address(0), \r\n            payable(msg.sender), \r\n            price, \r\n            false,\r\n            true\r\n        );\r\n\r\n    }\r\n\r\n    // two functios to interact with contract\r\n    // 1. create a market item but not sale\r\n\r\n    function makeMarketItemNonSale(\r\n        address nftContract,\r\n        uint tokenId\r\n    ) \r\n    public payable nonReentrant {\r\n        // nonReentrant is a modifier to prevent reentry attack\r\n\r\n        // require(price > 0, 'Price must be at least one wei');\r\n        // require(msg.value > listingPrice, 'transaction value must be equal to listing price');\r\n        uint itemId;\r\n        address ownerNow = IERC721(nftContract).ownerOf(tokenId);\r\n        require(payable(msg.sender) == ownerNow, 'You cannot manage this NFTs');\r\n        // require(msg.value >= listingPrice, 'transaction value must be equal to listing price');\r\n\r\n        if (isTokenExists(tokenId)) {\r\n            // this mean token exist in marketplace before\r\n            idToMarketToken[tokenId].seller = payable(msg.sender);\r\n            idToMarketToken[tokenId].owner = payable(msg.sender);\r\n            idToMarketToken[tokenId].sold = true;\r\n          \r\n        } else {\r\n            // this mean token is new in market place\r\n            _tokenIds.increment();\r\n            itemId = _tokenIds.current();\r\n\r\n            // referencing differently because of mapping inside struct\r\n            MarketToken storage m = idToMarketToken[tokenId];\r\n            m.itemId = itemId;\r\n            m.nftContract = nftContract;\r\n            m.tokenId = tokenId;\r\n            m.seller = payable(msg.sender);\r\n            m.owner = payable(msg.sender);\r\n            m.minter = payable(msg.sender);\r\n            m.price = 0;\r\n            m.sold = true;\r\n            m.isExist = true;\r\n            m.timeCreated = block.timestamp;\r\n\r\n            //putting it up for sale - bool - no owner\r\n            // idToMarketToken[tokenId] = MarketToken(\r\n            //     itemId,\r\n            //     nftContract,\r\n            //     tokenId,\r\n            //     payable(msg.sender),\r\n            //     payable(msg.sender),\r\n            //     payable(msg.sender),\r\n            //     0,\r\n            //     true,\r\n            //     true,\r\n            //     block.timestamp           \r\n            // );\r\n        }\r\n\r\n\r\n        emit MarketTokenMinted(\r\n            itemId, \r\n            nftContract, \r\n            tokenId, \r\n            payable(msg.sender), \r\n            address(0), \r\n            payable(msg.sender), \r\n            0, \r\n            false,\r\n            true\r\n        );\r\n\r\n    }\r\n\r\n    // function to conduct transactions and market sales\r\n\r\n    function createMarketSale(\r\n        address nftContract,\r\n        uint tokenId\r\n    )\r\n    public payable nonReentrant {\r\n        uint price = idToMarketToken[tokenId].price;\r\n        uint currTokenId = idToMarketToken[tokenId].tokenId;\r\n\r\n        require(msg.value == price, 'Please submit the asking price in order to continue');\r\n\r\n        // transfer the amount to the seller\r\n        idToMarketToken[currTokenId].seller.transfer(msg.value);\r\n\r\n        // transfer the token from contract address to the buyer\r\n        ERC721(nftContract).transferFrom(address(this), msg.sender, tokenId);\r\n        _tokensSold.increment();\r\n        totalEthSold += price;\r\n        idToMarketToken[currTokenId].owner = payable(msg.sender);\r\n        idToMarketToken[currTokenId].seller = payable(msg.sender);\r\n        idToMarketToken[currTokenId].sold = true;\r\n        idToMarketToken[currTokenId].price = 0;\r\n\r\n\r\n        // payable(owner).transfer(listingPrice);\r\n\r\n    }\r\n\r\n    // function to cancel NFT listing\r\n\r\n    function cancelMarketSale(\r\n        address nftContract,\r\n        uint tokenId\r\n    )\r\n    public payable nonReentrant {\r\n\r\n\r\n\r\n\r\n        // uint price = idToMarketToken[tokenId].price;\r\n        uint currTokenId = idToMarketToken[tokenId].tokenId;\r\n\r\n        // address ownerNow = IERC721(nftContract).ownerOf(tokenId);\r\n        require(payable(msg.sender) == idToMarketToken[currTokenId].seller, 'You cannot manage this NFTs');\r\n\r\n\r\n        // transfer the token from contract address to the owner back\r\n        ERC721(nftContract).transferFrom(address(this), msg.sender, tokenId);\r\n        idToMarketToken[currTokenId].owner = payable(msg.sender);\r\n        idToMarketToken[currTokenId].seller = payable(msg.sender);\r\n        idToMarketToken[currTokenId].sold = true;\r\n        idToMarketToken[currTokenId].price = 0;\r\n        // _tokensSold.increment();\r\n\r\n        // transfer back the listing price\r\n        // idToMarketToken[currTokenId].seller.transfer(listingPrice);\r\n\r\n    }\r\n\r\n    //function to fetchMarketItems - minting, buying and selling\r\n    // return the number of unsold items\r\n\r\n    function fetchMarketTokens() public view returns(MarketToken[] memory) {\r\n        uint itemCount = _tokenIds.current();\r\n        // uint unsoldItemCount = itemCount - _tokensSold.current();\r\n        uint currentIndex = 0;\r\n\r\n        // looping over the number of items created (if number has not been sold populate the array)\r\n        MarketToken[] memory items = new MarketToken[](itemCount);\r\n        for (uint i=0; i < itemCount; i++) {\r\n            if (idToMarketToken[i + 1].owner == address(0)) {\r\n                uint currentId = i + 1;\r\n                MarketToken storage currentItem = idToMarketToken[currentId];\r\n                items[currentIndex] = currentItem;\r\n                currentIndex += 1;\r\n            }\r\n        }\r\n        return items;\r\n    }\r\n\r\n    // return nfts that the user has purchased\r\n\r\n    function fetchMyNFTs() public view returns (MarketToken[] memory) {\r\n        uint totalItemCount = _tokenIds.current();\r\n        // a second counter for each individual user\r\n        uint itemCount = 0;\r\n        uint currentIndex = 0;\r\n\r\n        for (uint i = 0; i < totalItemCount; i++) {\r\n            if(idToMarketToken[i + 1].owner == msg.sender || idToMarketToken[i + 1].owner == payable(msg.sender)) {\r\n                itemCount += 1;\r\n            }\r\n        }\r\n\r\n        // MarketToken[] memory items = new MarketToken[](itemCount);\r\n        // for (uint i = 0; i < totalItemCount; i++) {\r\n        //     if (idToMarketToken[i + 1].owner == msg.sender || idToMarketToken[i + 1].owner == payable(msg.sender)) {\r\n        //         uint currentId = idToMarketToken[i + 1].itemId;\r\n        //         // current aray\r\n        //         MarketToken storage currenItem = idToMarketToken[currentId];\r\n        //         items[currentIndex] = currenItem;\r\n        //         currentIndex += 1;\r\n        //     }\r\n        // }\r\n\r\n        MarketToken[] memory items = new MarketToken[](totalItemCount);\r\n        for (uint i = 0; i < totalItemCount; i++) {\r\n            if (idToMarketToken[i + 1].owner == msg.sender || idToMarketToken[i + 1].seller == msg.sender) {\r\n                uint currentId = idToMarketToken[i + 1].itemId;\r\n                // current aray\r\n                MarketToken storage currenItem = idToMarketToken[currentId];\r\n                items[currentIndex] = currenItem;\r\n                currentIndex += 1;\r\n            }\r\n        }\r\n        return items;\r\n    }\r\n\r\n    //function for returning an array of minted nfts\r\n    function fetchItemsCreated() public view returns(MarketToken[] memory) {\r\n        // insted of owner, it will be the seller\r\n        uint totalItemCount = _tokenIds.current();\r\n        uint itemCount = 0;\r\n        uint currentIndex = 0;\r\n\r\n        for (uint i = 0; i < totalItemCount; i++) {\r\n            if (idToMarketToken[i + 1].minter == msg.sender) {\r\n                itemCount += 1;\r\n            }\r\n        }\r\n\r\n        MarketToken[] memory items = new MarketToken[](itemCount);\r\n\r\n        for (uint i = 0; i < totalItemCount; i++) {\r\n            if (idToMarketToken[i + 1].seller == msg.sender) {\r\n                uint currentId = idToMarketToken[i + 1].itemId;\r\n                MarketToken storage currentItem = idToMarketToken[currentId];\r\n                items[currentIndex] = currentItem;\r\n                currentIndex += 1;\r\n            }\r\n        }\r\n        return items;\r\n    }\r\n\r\n    //function to fetchAllItems - \r\n    // return the number of all items\r\n\r\n    function fetchMarketAllTokens() public view returns(MarketToken[] memory) {\r\n        uint itemCount = _tokenIds.current();\r\n        // uint unsoldItemCount = itemCount - _tokensSold.current();\r\n        uint currentIndex = 0;\r\n\r\n        // looping over the number of items created (if number has not been sold populate the array)\r\n        MarketToken[] memory items = new MarketToken[](itemCount);\r\n        for (uint i=0; i < itemCount; i++) {\r\n\r\n            uint currentId = i + 1;\r\n            MarketToken storage currentItem = idToMarketToken[currentId];\r\n            items[currentIndex] = currentItem;\r\n            currentIndex += 1;\r\n        \r\n        }\r\n        return items;\r\n    }\r\n\r\n\r\n\r\n}",
  "sourcePath": "D:\\react-next-js\\meme-chain\\contracts\\MemeMarketplace.sol",
  "compiler": {
    "name": "solc",
    "version": "0.8.13+commit.abaa5c0e.Emscripten.clang"
  },
  "schemaVersion": "3.4.7",
  "updatedAt": "2022-07-05T05:00:27.482Z",
  "networkType": "ethereum",
  "devdoc": {
    "kind": "dev",
    "methods": {},
    "version": 1
  },
  "userdoc": {
    "kind": "user",
    "methods": {},
    "version": 1
  }
}