{
  "contractName": "MemeMarketplace",
  "abi": [
    {
      "inputs": [],
      "stateMutability": "nonpayable",
      "type": "constructor"
    },
    {
      "anonymous": false,
      "inputs": [
        {
          "indexed": true,
          "internalType": "uint256",
          "name": "itemId",
          "type": "uint256"
        },
        {
          "indexed": true,
          "internalType": "address",
          "name": "nftContract",
          "type": "address"
        },
        {
          "indexed": true,
          "internalType": "uint256",
          "name": "tokenId",
          "type": "uint256"
        },
        {
          "indexed": false,
          "internalType": "address",
          "name": "seller",
          "type": "address"
        },
        {
          "indexed": false,
          "internalType": "address",
          "name": "owner",
          "type": "address"
        },
        {
          "indexed": false,
          "internalType": "address",
          "name": "minter",
          "type": "address"
        },
        {
          "indexed": false,
          "internalType": "uint256",
          "name": "price",
          "type": "uint256"
        },
        {
          "indexed": false,
          "internalType": "bool",
          "name": "sold",
          "type": "bool"
        },
        {
          "indexed": false,
          "internalType": "bool",
          "name": "isExist",
          "type": "bool"
        }
      ],
      "name": "MarketTokenMinted",
      "type": "event"
    },
    {
      "inputs": [],
      "name": "getListingPrice",
      "outputs": [
        {
          "internalType": "uint256",
          "name": "",
          "type": "uint256"
        }
      ],
      "stateMutability": "view",
      "type": "function",
      "constant": true
    },
    {
      "inputs": [
        {
          "internalType": "uint256",
          "name": "tokenId",
          "type": "uint256"
        }
      ],
      "name": "isTokenExists",
      "outputs": [
        {
          "internalType": "bool",
          "name": "",
          "type": "bool"
        }
      ],
      "stateMutability": "view",
      "type": "function",
      "constant": true
    },
    {
      "inputs": [
        {
          "internalType": "address",
          "name": "nftContract",
          "type": "address"
        },
        {
          "internalType": "uint256",
          "name": "tokenId",
          "type": "uint256"
        },
        {
          "internalType": "uint256",
          "name": "price",
          "type": "uint256"
        }
      ],
      "name": "makeMarketItem",
      "outputs": [],
      "stateMutability": "payable",
      "type": "function",
      "payable": true
    },
    {
      "inputs": [
        {
          "internalType": "address",
          "name": "nftContract",
          "type": "address"
        },
        {
          "internalType": "uint256",
          "name": "tokenId",
          "type": "uint256"
        }
      ],
      "name": "makeMarketItemNonSale",
      "outputs": [],
      "stateMutability": "payable",
      "type": "function",
      "payable": true
    },
    {
      "inputs": [
        {
          "internalType": "address",
          "name": "nftContract",
          "type": "address"
        },
        {
          "internalType": "uint256",
          "name": "tokenId",
          "type": "uint256"
        }
      ],
      "name": "createMarketSale",
      "outputs": [],
      "stateMutability": "payable",
      "type": "function",
      "payable": true
    },
    {
      "inputs": [],
      "name": "fetchMarketTokens",
      "outputs": [
        {
          "components": [
            {
              "internalType": "uint256",
              "name": "itemId",
              "type": "uint256"
            },
            {
              "internalType": "address",
              "name": "nftContract",
              "type": "address"
            },
            {
              "internalType": "uint256",
              "name": "tokenId",
              "type": "uint256"
            },
            {
              "internalType": "address payable",
              "name": "seller",
              "type": "address"
            },
            {
              "internalType": "address payable",
              "name": "owner",
              "type": "address"
            },
            {
              "internalType": "address payable",
              "name": "minter",
              "type": "address"
            },
            {
              "internalType": "uint256",
              "name": "price",
              "type": "uint256"
            },
            {
              "internalType": "bool",
              "name": "sold",
              "type": "bool"
            },
            {
              "internalType": "bool",
              "name": "isExist",
              "type": "bool"
            }
          ],
          "internalType": "struct MemeMarketplace.MarketToken[]",
          "name": "",
          "type": "tuple[]"
        }
      ],
      "stateMutability": "view",
      "type": "function",
      "constant": true
    },
    {
      "inputs": [],
      "name": "fetchMyNFTs",
      "outputs": [
        {
          "components": [
            {
              "internalType": "uint256",
              "name": "itemId",
              "type": "uint256"
            },
            {
              "internalType": "address",
              "name": "nftContract",
              "type": "address"
            },
            {
              "internalType": "uint256",
              "name": "tokenId",
              "type": "uint256"
            },
            {
              "internalType": "address payable",
              "name": "seller",
              "type": "address"
            },
            {
              "internalType": "address payable",
              "name": "owner",
              "type": "address"
            },
            {
              "internalType": "address payable",
              "name": "minter",
              "type": "address"
            },
            {
              "internalType": "uint256",
              "name": "price",
              "type": "uint256"
            },
            {
              "internalType": "bool",
              "name": "sold",
              "type": "bool"
            },
            {
              "internalType": "bool",
              "name": "isExist",
              "type": "bool"
            }
          ],
          "internalType": "struct MemeMarketplace.MarketToken[]",
          "name": "",
          "type": "tuple[]"
        }
      ],
      "stateMutability": "view",
      "type": "function",
      "constant": true
    },
    {
      "inputs": [],
      "name": "fetchItemsCreated",
      "outputs": [
        {
          "components": [
            {
              "internalType": "uint256",
              "name": "itemId",
              "type": "uint256"
            },
            {
              "internalType": "address",
              "name": "nftContract",
              "type": "address"
            },
            {
              "internalType": "uint256",
              "name": "tokenId",
              "type": "uint256"
            },
            {
              "internalType": "address payable",
              "name": "seller",
              "type": "address"
            },
            {
              "internalType": "address payable",
              "name": "owner",
              "type": "address"
            },
            {
              "internalType": "address payable",
              "name": "minter",
              "type": "address"
            },
            {
              "internalType": "uint256",
              "name": "price",
              "type": "uint256"
            },
            {
              "internalType": "bool",
              "name": "sold",
              "type": "bool"
            },
            {
              "internalType": "bool",
              "name": "isExist",
              "type": "bool"
            }
          ],
          "internalType": "struct MemeMarketplace.MarketToken[]",
          "name": "",
          "type": "tuple[]"
        }
      ],
      "stateMutability": "view",
      "type": "function",
      "constant": true
    },
    {
      "inputs": [],
      "name": "fetchMarketAllTokens",
      "outputs": [
        {
          "components": [
            {
              "internalType": "uint256",
              "name": "itemId",
              "type": "uint256"
            },
            {
              "internalType": "address",
              "name": "nftContract",
              "type": "address"
            },
            {
              "internalType": "uint256",
              "name": "tokenId",
              "type": "uint256"
            },
            {
              "internalType": "address payable",
              "name": "seller",
              "type": "address"
            },
            {
              "internalType": "address payable",
              "name": "owner",
              "type": "address"
            },
            {
              "internalType": "address payable",
              "name": "minter",
              "type": "address"
            },
            {
              "internalType": "uint256",
              "name": "price",
              "type": "uint256"
            },
            {
              "internalType": "bool",
              "name": "sold",
              "type": "bool"
            },
            {
              "internalType": "bool",
              "name": "isExist",
              "type": "bool"
            }
          ],
          "internalType": "struct MemeMarketplace.MarketToken[]",
          "name": "",
          "type": "tuple[]"
        }
      ],
      "stateMutability": "view",
      "type": "function",
      "constant": true
    }
  ],
  "bytecode": "0x6080604052669fdf42f6e4800060045534801561001b57600080fd5b50600160008190555033600360006101000a81548173ffffffffffffffffffffffffffffffffffffffff021916908373ffffffffffffffffffffffffffffffffffffffff160217905550612683806100746000396000f3fe6080604052600436106100865760003560e01c80637a060f56116100595780637a060f561461013a578063ae78cea114610156578063c23b139e14610181578063c69bdf751461019d578063f064c32e146101c857610086565b806312e855851461008b5780631f701704146100b6578063202e3740146100f3578063685b3e5c1461011e575b600080fd5b34801561009757600080fd5b506100a06101f3565b6040516100ad9190611d1a565b60405180910390f35b3480156100c257600080fd5b506100dd60048036038101906100d89190611d66565b6101fd565b6040516100ea9190611dae565b60405180910390f35b3480156100ff57600080fd5b5061010861022a565b6040516101159190611fb0565b60405180910390f35b61013860048036038101906101339190611ffe565b6105fe565b005b610154600480360381019061014f919061203e565b610ad6565b005b34801561016257600080fd5b5061016b610fd6565b6040516101789190611fb0565b60405180910390f35b61019b60048036038101906101969190611ffe565b611277565b005b3480156101a957600080fd5b506101b261152f565b6040516101bf9190611fb0565b60405180910390f35b3480156101d457600080fd5b506101dd611861565b6040516101ea9190611fb0565b60405180910390f35b6000600454905090565b60006005600083815260200190815260200160002060070160019054906101000a900460ff169050919050565b606060006102386001611c35565b905060008060005b838110156102e0573373ffffffffffffffffffffffffffffffffffffffff166005600060018461027091906120c0565b815260200190815260200160002060040160009054906101000a900473ffffffffffffffffffffffffffffffffffffffff1673ffffffffffffffffffffffffffffffffffffffff16036102cd576001836102ca91906120c0565b92505b80806102d890612116565b915050610240565b5060008267ffffffffffffffff8111156102fd576102fc61215e565b5b60405190808252806020026020018201604052801561033657816020015b610323611c59565b81526020019060019003908161031b5790505b50905060005b848110156105f3573373ffffffffffffffffffffffffffffffffffffffff166005600060018461036c91906120c0565b815260200190815260200160002060040160009054906101000a900473ffffffffffffffffffffffffffffffffffffffff1673ffffffffffffffffffffffffffffffffffffffff16036105e0576000600560006001846103cc91906120c0565b815260200190815260200160002060000154905060006005600083815260200190815260200160002090508060405180610120016040529081600082015481526020016001820160009054906101000a900473ffffffffffffffffffffffffffffffffffffffff1673ffffffffffffffffffffffffffffffffffffffff1673ffffffffffffffffffffffffffffffffffffffff168152602001600282015481526020016003820160009054906101000a900473ffffffffffffffffffffffffffffffffffffffff1673ffffffffffffffffffffffffffffffffffffffff1673ffffffffffffffffffffffffffffffffffffffff1681526020016004820160009054906101000a900473ffffffffffffffffffffffffffffffffffffffff1673ffffffffffffffffffffffffffffffffffffffff1673ffffffffffffffffffffffffffffffffffffffff1681526020016005820160009054906101000a900473ffffffffffffffffffffffffffffffffffffffff1673ffffffffffffffffffffffffffffffffffffffff1673ffffffffffffffffffffffffffffffffffffffff168152602001600682015481526020016007820160009054906101000a900460ff161515151581526020016007820160019054906101000a900460ff1615151515815250508486815181106105c3576105c261218d565b5b60200260200101819052506001856105db91906120c0565b945050505b80806105eb90612116565b91505061033c565b508094505050505090565b600260005403610643576040517f08c379a000000000000000000000000000000000000000000000000000000000815260040161063a90612219565b60405180910390fd5b60026000819055506000808373ffffffffffffffffffffffffffffffffffffffff16636352211e846040518263ffffffff1660e01b81526004016106879190611d1a565b602060405180830381865afa1580156106a4573d6000803e3d6000fd5b505050506040513d601f19601f820116820180604052508101906106c8919061224e565b90508073ffffffffffffffffffffffffffffffffffffffff163373ffffffffffffffffffffffffffffffffffffffff1614610738576040517f08c379a000000000000000000000000000000000000000000000000000000000815260040161072f906122c7565b60405180910390fd5b610741836101fd565b1561082457336005600085815260200190815260200160002060030160006101000a81548173ffffffffffffffffffffffffffffffffffffffff021916908373ffffffffffffffffffffffffffffffffffffffff160217905550336005600085815260200190815260200160002060040160006101000a81548173ffffffffffffffffffffffffffffffffffffffff021916908373ffffffffffffffffffffffffffffffffffffffff16021790555060016005600085815260200190815260200160002060070160006101000a81548160ff021916908315150217905550610a6b565b61082e6001611c43565b6108386001611c35565b91506040518061012001604052808381526020018573ffffffffffffffffffffffffffffffffffffffff1681526020018481526020013373ffffffffffffffffffffffffffffffffffffffff1681526020013373ffffffffffffffffffffffffffffffffffffffff1681526020013373ffffffffffffffffffffffffffffffffffffffff1681526020016000815260200160011515815260200160011515815250600560008581526020019081526020016000206000820151816000015560208201518160010160006101000a81548173ffffffffffffffffffffffffffffffffffffffff021916908373ffffffffffffffffffffffffffffffffffffffff1602179055506040820151816002015560608201518160030160006101000a81548173ffffffffffffffffffffffffffffffffffffffff021916908373ffffffffffffffffffffffffffffffffffffffff16021790555060808201518160040160006101000a81548173ffffffffffffffffffffffffffffffffffffffff021916908373ffffffffffffffffffffffffffffffffffffffff16021790555060a08201518160050160006101000a81548173ffffffffffffffffffffffffffffffffffffffff021916908373ffffffffffffffffffffffffffffffffffffffff16021790555060c0820151816006015560e08201518160070160006101000a81548160ff0219169083151502179055506101008201518160070160016101000a81548160ff0219169083151502179055509050505b828473ffffffffffffffffffffffffffffffffffffffff16837f4eb35c3c60bb4872625f5629b63edf6fc44c316e5c83f472a8c89883bd30cf29336000336000806001604051610ac096959493929190612390565b60405180910390a4505060016000819055505050565b600260005403610b1b576040517f08c379a0000000000000000000000000000000000000000000000000000000008152600401610b1290612219565b60405180910390fd5b600260008190555060008111610b66576040517f08c379a0000000000000000000000000000000000000000000000000000000008152600401610b5d9061243d565b60405180910390fd5b600454341015610bab576040517f08c379a0000000000000000000000000000000000000000000000000000000008152600401610ba2906124cf565b60405180910390fd5b60008373ffffffffffffffffffffffffffffffffffffffff166323b872dd3330866040518463ffffffff1660e01b8152600401610bea939291906124ef565b600060405180830381600087803b158015610c0457600080fd5b505af1158015610c18573d6000803e3d6000fd5b50505050610c25836101fd565b15610d2457336005600085815260200190815260200160002060030160006101000a81548173ffffffffffffffffffffffffffffffffffffffff021916908373ffffffffffffffffffffffffffffffffffffffff16021790555060006005600085815260200190815260200160002060040160006101000a81548173ffffffffffffffffffffffffffffffffffffffff021916908373ffffffffffffffffffffffffffffffffffffffff16021790555081600560008581526020019081526020016000206006018190555060006005600085815260200190815260200160002060070160006101000a81548160ff021916908315150217905550610f6b565b610d2e6001611c43565b610d386001611c35565b90506040518061012001604052808281526020018573ffffffffffffffffffffffffffffffffffffffff1681526020018481526020013373ffffffffffffffffffffffffffffffffffffffff168152602001600073ffffffffffffffffffffffffffffffffffffffff1681526020013373ffffffffffffffffffffffffffffffffffffffff16815260200183815260200160001515815260200160011515815250600560008581526020019081526020016000206000820151816000015560208201518160010160006101000a81548173ffffffffffffffffffffffffffffffffffffffff021916908373ffffffffffffffffffffffffffffffffffffffff1602179055506040820151816002015560608201518160030160006101000a81548173ffffffffffffffffffffffffffffffffffffffff021916908373ffffffffffffffffffffffffffffffffffffffff16021790555060808201518160040160006101000a81548173ffffffffffffffffffffffffffffffffffffffff021916908373ffffffffffffffffffffffffffffffffffffffff16021790555060a08201518160050160006101000a81548173ffffffffffffffffffffffffffffffffffffffff021916908373ffffffffffffffffffffffffffffffffffffffff16021790555060c0820151816006015560e08201518160070160006101000a81548160ff0219169083151502179055506101008201518160070160016101000a81548160ff0219169083151502179055509050505b828473ffffffffffffffffffffffffffffffffffffffff16827f4eb35c3c60bb4872625f5629b63edf6fc44c316e5c83f472a8c89883bd30cf29336000338860006001604051610fc096959493929190612526565b60405180910390a4506001600081905550505050565b60606000610fe46001611c35565b90506000808267ffffffffffffffff8111156110035761100261215e565b5b60405190808252806020026020018201604052801561103c57816020015b611029611c59565b8152602001906001900390816110215790505b50905060005b8381101561126d57600060018261105991906120c0565b905060006005600083815260200190815260200160002090508060405180610120016040529081600082015481526020016001820160009054906101000a900473ffffffffffffffffffffffffffffffffffffffff1673ffffffffffffffffffffffffffffffffffffffff1673ffffffffffffffffffffffffffffffffffffffff168152602001600282015481526020016003820160009054906101000a900473ffffffffffffffffffffffffffffffffffffffff1673ffffffffffffffffffffffffffffffffffffffff1673ffffffffffffffffffffffffffffffffffffffff1681526020016004820160009054906101000a900473ffffffffffffffffffffffffffffffffffffffff1673ffffffffffffffffffffffffffffffffffffffff1673ffffffffffffffffffffffffffffffffffffffff1681526020016005820160009054906101000a900473ffffffffffffffffffffffffffffffffffffffff1673ffffffffffffffffffffffffffffffffffffffff1673ffffffffffffffffffffffffffffffffffffffff168152602001600682015481526020016007820160009054906101000a900460ff161515151581526020016007820160019054906101000a900460ff16151515158152505084868151811061123e5761123d61218d565b5b602002602001018190525060018561125691906120c0565b94505050808061126590612116565b915050611042565b5080935050505090565b6002600054036112bc576040517f08c379a00000000000000000000000000000000000000000000000000000000081526004016112b390612219565b60405180910390fd5b600260008190555060006005600083815260200190815260200160002060060154905060006005600084815260200190815260200160002060020154905081341461133c576040517f08c379a0000000000000000000000000000000000000000000000000000000008152600401611333906125f9565b60405180910390fd5b6005600082815260200190815260200160002060030160009054906101000a900473ffffffffffffffffffffffffffffffffffffffff1673ffffffffffffffffffffffffffffffffffffffff166108fc349081150290604051600060405180830381858888f193505050501580156113b8573d6000803e3d6000fd5b508373ffffffffffffffffffffffffffffffffffffffff166323b872dd3033866040518463ffffffff1660e01b81526004016113f6939291906124ef565b600060405180830381600087803b15801561141057600080fd5b505af1158015611424573d6000803e3d6000fd5b50505050336005600083815260200190815260200160002060040160006101000a81548173ffffffffffffffffffffffffffffffffffffffff021916908373ffffffffffffffffffffffffffffffffffffffff16021790555060016005600083815260200190815260200160002060070160006101000a81548160ff0219169083151502179055506114b66002611c43565b600360009054906101000a900473ffffffffffffffffffffffffffffffffffffffff1673ffffffffffffffffffffffffffffffffffffffff166108fc6004549081150290604051600060405180830381858888f19350505050158015611520573d6000803e3d6000fd5b50505060016000819055505050565b6060600061153d6001611c35565b9050600061154b6002611c35565b826115569190612619565b90506000808267ffffffffffffffff8111156115755761157461215e565b5b6040519080825280602002602001820160405280156115ae57816020015b61159b611c59565b8152602001906001900390816115935790505b50905060005b8481101561185657600073ffffffffffffffffffffffffffffffffffffffff16600560006001846115e591906120c0565b815260200190815260200160002060040160009054906101000a900473ffffffffffffffffffffffffffffffffffffffff1673ffffffffffffffffffffffffffffffffffffffff160361184357600060018261164191906120c0565b905060006005600083815260200190815260200160002090508060405180610120016040529081600082015481526020016001820160009054906101000a900473ffffffffffffffffffffffffffffffffffffffff1673ffffffffffffffffffffffffffffffffffffffff1673ffffffffffffffffffffffffffffffffffffffff168152602001600282015481526020016003820160009054906101000a900473ffffffffffffffffffffffffffffffffffffffff1673ffffffffffffffffffffffffffffffffffffffff1673ffffffffffffffffffffffffffffffffffffffff1681526020016004820160009054906101000a900473ffffffffffffffffffffffffffffffffffffffff1673ffffffffffffffffffffffffffffffffffffffff1673ffffffffffffffffffffffffffffffffffffffff1681526020016005820160009054906101000a900473ffffffffffffffffffffffffffffffffffffffff1673ffffffffffffffffffffffffffffffffffffffff1673ffffffffffffffffffffffffffffffffffffffff168152602001600682015481526020016007820160009054906101000a900460ff161515151581526020016007820160019054906101000a900460ff1615151515815250508486815181106118265761182561218d565b5b602002602001018190525060018561183e91906120c0565b945050505b808061184e90612116565b9150506115b4565b508094505050505090565b6060600061186f6001611c35565b905060008060005b83811015611917573373ffffffffffffffffffffffffffffffffffffffff16600560006001846118a791906120c0565b815260200190815260200160002060050160009054906101000a900473ffffffffffffffffffffffffffffffffffffffff1673ffffffffffffffffffffffffffffffffffffffff16036119045760018361190191906120c0565b92505b808061190f90612116565b915050611877565b5060008267ffffffffffffffff8111156119345761193361215e565b5b60405190808252806020026020018201604052801561196d57816020015b61195a611c59565b8152602001906001900390816119525790505b50905060005b84811015611c2a573373ffffffffffffffffffffffffffffffffffffffff16600560006001846119a391906120c0565b815260200190815260200160002060030160009054906101000a900473ffffffffffffffffffffffffffffffffffffffff1673ffffffffffffffffffffffffffffffffffffffff1603611c1757600060056000600184611a0391906120c0565b815260200190815260200160002060000154905060006005600083815260200190815260200160002090508060405180610120016040529081600082015481526020016001820160009054906101000a900473ffffffffffffffffffffffffffffffffffffffff1673ffffffffffffffffffffffffffffffffffffffff1673ffffffffffffffffffffffffffffffffffffffff168152602001600282015481526020016003820160009054906101000a900473ffffffffffffffffffffffffffffffffffffffff1673ffffffffffffffffffffffffffffffffffffffff1673ffffffffffffffffffffffffffffffffffffffff1681526020016004820160009054906101000a900473ffffffffffffffffffffffffffffffffffffffff1673ffffffffffffffffffffffffffffffffffffffff1673ffffffffffffffffffffffffffffffffffffffff1681526020016005820160009054906101000a900473ffffffffffffffffffffffffffffffffffffffff1673ffffffffffffffffffffffffffffffffffffffff1673ffffffffffffffffffffffffffffffffffffffff168152602001600682015481526020016007820160009054906101000a900460ff161515151581526020016007820160019054906101000a900460ff161515151581525050848681518110611bfa57611bf961218d565b5b6020026020010181905250600185611c1291906120c0565b945050505b8080611c2290612116565b915050611973565b508094505050505090565b600081600001549050919050565b6001816000016000828254019250508190555050565b60405180610120016040528060008152602001600073ffffffffffffffffffffffffffffffffffffffff16815260200160008152602001600073ffffffffffffffffffffffffffffffffffffffff168152602001600073ffffffffffffffffffffffffffffffffffffffff168152602001600073ffffffffffffffffffffffffffffffffffffffff168152602001600081526020016000151581526020016000151581525090565b6000819050919050565b611d1481611d01565b82525050565b6000602082019050611d2f6000830184611d0b565b92915050565b600080fd5b611d4381611d01565b8114611d4e57600080fd5b50565b600081359050611d6081611d3a565b92915050565b600060208284031215611d7c57611d7b611d35565b5b6000611d8a84828501611d51565b91505092915050565b60008115159050919050565b611da881611d93565b82525050565b6000602082019050611dc36000830184611d9f565b92915050565b600081519050919050565b600082825260208201905092915050565b6000819050602082019050919050565b611dfe81611d01565b82525050565b600073ffffffffffffffffffffffffffffffffffffffff82169050919050565b6000611e2f82611e04565b9050919050565b611e3f81611e24565b82525050565b6000611e5082611e04565b9050919050565b611e6081611e45565b82525050565b611e6f81611d93565b82525050565b61012082016000820151611e8c6000850182611df5565b506020820151611e9f6020850182611e36565b506040820151611eb26040850182611df5565b506060820151611ec56060850182611e57565b506080820151611ed86080850182611e57565b5060a0820151611eeb60a0850182611e57565b5060c0820151611efe60c0850182611df5565b5060e0820151611f1160e0850182611e66565b50610100820151611f26610100850182611e66565b50505050565b6000611f388383611e75565b6101208301905092915050565b6000602082019050919050565b6000611f5d82611dc9565b611f678185611dd4565b9350611f7283611de5565b8060005b83811015611fa3578151611f8a8882611f2c565b9750611f9583611f45565b925050600181019050611f76565b5085935050505092915050565b60006020820190508181036000830152611fca8184611f52565b905092915050565b611fdb81611e24565b8114611fe657600080fd5b50565b600081359050611ff881611fd2565b92915050565b6000806040838503121561201557612014611d35565b5b600061202385828601611fe9565b925050602061203485828601611d51565b9150509250929050565b60008060006060848603121561205757612056611d35565b5b600061206586828701611fe9565b935050602061207686828701611d51565b925050604061208786828701611d51565b9150509250925092565b7f4e487b7100000000000000000000000000000000000000000000000000000000600052601160045260246000fd5b60006120cb82611d01565b91506120d683611d01565b9250827fffffffffffffffffffffffffffffffffffffffffffffffffffffffffffffffff0382111561210b5761210a612091565b5b828201905092915050565b600061212182611d01565b91507fffffffffffffffffffffffffffffffffffffffffffffffffffffffffffffffff820361215357612152612091565b5b600182019050919050565b7f4e487b7100000000000000000000000000000000000000000000000000000000600052604160045260246000fd5b7f4e487b7100000000000000000000000000000000000000000000000000000000600052603260045260246000fd5b600082825260208201905092915050565b7f5265656e7472616e637947756172643a207265656e7472616e742063616c6c00600082015250565b6000612203601f836121bc565b915061220e826121cd565b602082019050919050565b60006020820190508181036000830152612232816121f6565b9050919050565b60008151905061224881611fd2565b92915050565b60006020828403121561226457612263611d35565b5b600061227284828501612239565b91505092915050565b7f596f752063616e6e6f74206d616e6167652074686973204e4654730000000000600082015250565b60006122b1601b836121bc565b91506122bc8261227b565b602082019050919050565b600060208201905081810360008301526122e0816122a4565b9050919050565b6000819050919050565b600061230c61230761230284611e04565b6122e7565b611e04565b9050919050565b600061231e826122f1565b9050919050565b600061233082612313565b9050919050565b61234081612325565b82525050565b61234f81611e24565b82525050565b6000819050919050565b600061237a61237561237084612355565b6122e7565b611d01565b9050919050565b61238a8161235f565b82525050565b600060c0820190506123a56000830189612337565b6123b26020830188612346565b6123bf6040830187612337565b6123cc6060830186612381565b6123d96080830185611d9f565b6123e660a0830184611d9f565b979650505050505050565b7f5072696365206d757374206265206174206c65617374206f6e65207765690000600082015250565b6000612427601e836121bc565b9150612432826123f1565b602082019050919050565b600060208201905081810360008301526124568161241a565b9050919050565b7f7472616e73616374696f6e2076616c7565206d75737420626520657175616c2060008201527f746f206c697374696e6720707269636500000000000000000000000000000000602082015250565b60006124b96030836121bc565b91506124c48261245d565b604082019050919050565b600060208201905081810360008301526124e8816124ac565b9050919050565b60006060820190506125046000830186612346565b6125116020830185612346565b61251e6040830184611d0b565b949350505050565b600060c08201905061253b6000830189612337565b6125486020830188612346565b6125556040830187612337565b6125626060830186611d0b565b61256f6080830185611d9f565b61257c60a0830184611d9f565b979650505050505050565b7f506c65617365207375626d6974207468652061736b696e67207072696365206960008201527f6e206f7264657220746f20636f6e74696e756500000000000000000000000000602082015250565b60006125e36033836121bc565b91506125ee82612587565b604082019050919050565b60006020820190508181036000830152612612816125d6565b9050919050565b600061262482611d01565b915061262f83611d01565b92508282101561264257612641612091565b5b82820390509291505056fea264697066735822122017308c15d4504ac187d7a64e2c3e276017b9b637395c4ebad46a7e84539b568d64736f6c634300080d0033",
  "immutableReferences": {},
  "source": "//SPDX-License-Identifier: MIT\r\npragma solidity ^0.8.4;\r\n\r\nimport '@openzeppelin/contracts/token/ERC721/ERC721.sol';\r\n// security against transactions for multiple request\r\nimport '@openzeppelin/contracts/security/ReentrancyGuard.sol';\r\nimport '@openzeppelin/contracts/utils/Counters.sol';\r\n\r\ncontract MemeMarketplace is ReentrancyGuard {\r\n    using Counters for Counters.Counter;\r\n\r\n    /* number of items minting, number of transactions, token that have not been sold\r\n    keep track of tokens total number - tokenId\r\n    arrays need to know the lentgth - help to keep track for arrays */\r\n\r\n    Counters.Counter private _tokenIds;\r\n    Counters.Counter private _tokensSold;\r\n\r\n    // determine who is the owner of the contract\r\n    // charge a listing fee so the owner makes a commission\r\n\r\n    address payable owner;\r\n    // we are deploying to matic the API is the same so you can use ether the same as matic\r\n    // they both have 18 deimal\r\n    // mind the matic vs ether price!\r\n    uint256 listingPrice = 0.045 ether;\r\n\r\n    constructor() {\r\n        //set the owner\r\n        owner = payable(msg.sender);\r\n    }\r\n\r\n    // structs can act like objects\r\n\r\n    struct MarketToken {\r\n        uint itemId;\r\n        address nftContract;\r\n        uint256 tokenId;\r\n        address payable seller;\r\n        address payable owner;\r\n        address payable minter;\r\n        uint256 price;\r\n        bool sold;\r\n        bool isExist;\r\n    }\r\n\r\n    // tokenId return which marketToken - fetch which one it is\r\n\r\n    mapping(uint256 => MarketToken) private idToMarketToken;\r\n\r\n    // listen to events from front end applications\r\n    event MarketTokenMinted(\r\n        uint indexed itemId,\r\n        address indexed nftContract,\r\n        uint indexed tokenId,\r\n        address seller,\r\n        address owner,\r\n        address minter,\r\n        uint256 price,\r\n        bool sold,\r\n        bool isExist\r\n    );\r\n\r\n    // get the listing price\r\n    function getListingPrice() public view returns (uint256) {\r\n        return listingPrice;\r\n    }\r\n\r\n    // check if tokenId exists\r\n        function isTokenExists(uint256 tokenId) public view returns (bool) {\r\n        return idToMarketToken[tokenId].isExist;\r\n    }\r\n\r\n    // two functios to interact with contract\r\n    // 1. create a market item to put it up for sale\r\n    // 2. create a market sale for buying and selling between parties\r\n\r\n    function makeMarketItem(\r\n        address nftContract,\r\n        uint tokenId,\r\n        uint price\r\n    ) \r\n    public payable nonReentrant {\r\n        // nonReentrant is a modifier to prevent reentry attack\r\n\r\n        require(price > 0, 'Price must be at least one wei');\r\n        require(msg.value >= listingPrice, 'transaction value must be equal to listing price');\r\n        uint itemId;\r\n        //NFT transaction\r\n        IERC721(nftContract).transferFrom(msg.sender, address(this), tokenId);\r\n\r\n        if (isTokenExists(tokenId)) {\r\n            // this mean token exist in marketplace before\r\n            idToMarketToken[tokenId].seller = payable(msg.sender);\r\n            idToMarketToken[tokenId].owner = payable(address(0));\r\n            idToMarketToken[tokenId].price = price;\r\n            idToMarketToken[tokenId].sold = false;\r\n          \r\n        } else {\r\n            // this mean token is new in market place\r\n            _tokenIds.increment();\r\n            itemId = _tokenIds.current();\r\n\r\n            //putting it up for sale - bool - no owner\r\n            idToMarketToken[tokenId] = MarketToken(\r\n                itemId,\r\n                nftContract,\r\n                tokenId,\r\n                payable(msg.sender),\r\n                payable(address(0)),\r\n                payable(msg.sender),\r\n                price,\r\n                false,\r\n                true           \r\n            );\r\n        }\r\n\r\n\r\n    \r\n\r\n        emit MarketTokenMinted(\r\n            itemId, \r\n            nftContract, \r\n            tokenId, \r\n            payable(msg.sender), \r\n            address(0), \r\n            payable(msg.sender), \r\n            price, \r\n            false,\r\n            true\r\n        );\r\n\r\n    }\r\n\r\n    // two functios to interact with contract\r\n    // 1. create a market item but not sale\r\n\r\n    function makeMarketItemNonSale(\r\n        address nftContract,\r\n        uint tokenId\r\n    ) \r\n    public payable nonReentrant {\r\n        // nonReentrant is a modifier to prevent reentry attack\r\n\r\n        // require(price > 0, 'Price must be at least one wei');\r\n        // require(msg.value > listingPrice, 'transaction value must be equal to listing price');\r\n        uint itemId;\r\n        address ownerNow = IERC721(nftContract).ownerOf(tokenId);\r\n        require(msg.sender == ownerNow, 'You cannot manage this NFTs');\r\n\r\n        if (isTokenExists(tokenId)) {\r\n            // this mean token exist in marketplace before\r\n            idToMarketToken[tokenId].seller = payable(msg.sender);\r\n            idToMarketToken[tokenId].owner = payable(msg.sender);\r\n            idToMarketToken[tokenId].sold = true;\r\n          \r\n        } else {\r\n            // this mean token is new in market place\r\n            _tokenIds.increment();\r\n            itemId = _tokenIds.current();\r\n\r\n            //putting it up for sale - bool - no owner\r\n            idToMarketToken[tokenId] = MarketToken(\r\n                itemId,\r\n                nftContract,\r\n                tokenId,\r\n                payable(msg.sender),\r\n                payable(msg.sender),\r\n                payable(msg.sender),\r\n                0,\r\n                true,\r\n                true           \r\n            );\r\n        }\r\n\r\n\r\n        emit MarketTokenMinted(\r\n            itemId, \r\n            nftContract, \r\n            tokenId, \r\n            payable(msg.sender), \r\n            address(0), \r\n            payable(msg.sender), \r\n            0, \r\n            false,\r\n            true\r\n        );\r\n\r\n    }\r\n\r\n    // function to conduct transactions and market sales\r\n\r\n    function createMarketSale(\r\n        address nftContract,\r\n        uint tokenId\r\n    )\r\n    public payable nonReentrant {\r\n        uint price = idToMarketToken[tokenId].price;\r\n        uint currTokenId = idToMarketToken[tokenId].tokenId;\r\n\r\n        require(msg.value == price, 'Please submit the asking price in order to continue');\r\n\r\n        // transfer the amount to the seller\r\n        idToMarketToken[currTokenId].seller.transfer(msg.value);\r\n\r\n        // transfer the token from contract address to the buyer\r\n        ERC721(nftContract).transferFrom(address(this), msg.sender, tokenId);\r\n        idToMarketToken[currTokenId].owner = payable(msg.sender);\r\n        idToMarketToken[currTokenId].sold = true;\r\n        _tokensSold.increment();\r\n\r\n        payable(owner).transfer(listingPrice);\r\n\r\n    }\r\n\r\n    //function to fetchMarketItems - minting, buying and selling\r\n    // return the number of unsold items\r\n\r\n    function fetchMarketTokens() public view returns(MarketToken[] memory) {\r\n        uint itemCount = _tokenIds.current();\r\n        uint unsoldItemCount = itemCount - _tokensSold.current();\r\n        uint currentIndex = 0;\r\n\r\n        // looping over the number of items created (if number has not been sold populate the array)\r\n        MarketToken[] memory items = new MarketToken[](unsoldItemCount);\r\n        for (uint i=0; i < itemCount; i++) {\r\n            if (idToMarketToken[i + 1].owner == address(0)) {\r\n                uint currentId = i + 1;\r\n                MarketToken storage currentItem = idToMarketToken[currentId];\r\n                items[currentIndex] = currentItem;\r\n                currentIndex += 1;\r\n            }\r\n        }\r\n        return items;\r\n    }\r\n\r\n    // return nfts that the user has purchased\r\n\r\n    function fetchMyNFTs() public view returns (MarketToken[] memory) {\r\n        uint totalItemCount = _tokenIds.current();\r\n        // a second counter for each individual user\r\n        uint itemCount = 0;\r\n        uint currentIndex = 0;\r\n\r\n        for (uint i = 0; i < totalItemCount; i++) {\r\n            if(idToMarketToken[i + 1].owner == msg.sender) {\r\n                itemCount += 1;\r\n            }\r\n        }\r\n\r\n        MarketToken[] memory items = new MarketToken[](itemCount);\r\n        for (uint i = 0; i < totalItemCount; i++) {\r\n            if (idToMarketToken[i + 1].owner == msg.sender) {\r\n                uint currentId = idToMarketToken[i + 1].itemId;\r\n                // current aray\r\n                MarketToken storage currenItem = idToMarketToken[currentId];\r\n                items[currentIndex] = currenItem;\r\n                currentIndex += 1;\r\n            }\r\n        }\r\n        return items;\r\n    }\r\n\r\n    //function for returning an array of minted nfts\r\n    function fetchItemsCreated() public view returns(MarketToken[] memory) {\r\n        // insted of owner, it will be the seller\r\n        uint totalItemCount = _tokenIds.current();\r\n        uint itemCount = 0;\r\n        uint currentIndex = 0;\r\n\r\n        for (uint i = 0; i < totalItemCount; i++) {\r\n            if (idToMarketToken[i + 1].minter == msg.sender) {\r\n                itemCount += 1;\r\n            }\r\n        }\r\n\r\n        MarketToken[] memory items = new MarketToken[](itemCount);\r\n\r\n        for (uint i = 0; i < totalItemCount; i++) {\r\n            if (idToMarketToken[i + 1].seller == msg.sender) {\r\n                uint currentId = idToMarketToken[i + 1].itemId;\r\n                MarketToken storage currentItem = idToMarketToken[currentId];\r\n                items[currentIndex] = currentItem;\r\n                currentIndex += 1;\r\n            }\r\n        }\r\n        return items;\r\n    }\r\n\r\n    //function to fetchAllItems - \r\n    // return the number of all items\r\n\r\n    function fetchMarketAllTokens() public view returns(MarketToken[] memory) {\r\n        uint itemCount = _tokenIds.current();\r\n        // uint unsoldItemCount = itemCount - _tokensSold.current();\r\n        uint currentIndex = 0;\r\n\r\n        // looping over the number of items created (if number has not been sold populate the array)\r\n        MarketToken[] memory items = new MarketToken[](itemCount);\r\n        for (uint i=0; i < itemCount; i++) {\r\n\r\n            uint currentId = i + 1;\r\n            MarketToken storage currentItem = idToMarketToken[currentId];\r\n            items[currentIndex] = currentItem;\r\n            currentIndex += 1;\r\n        \r\n        }\r\n        return items;\r\n    }\r\n\r\n\r\n\r\n}",
  "sourcePath": "D:\\react-next-js\\meme-chain\\contracts\\MemeMarketplace.sol",
  "compiler": {
    "name": "solc",
    "version": "0.8.13+commit.abaa5c0e.Emscripten.clang"
  },
  "schemaVersion": "3.4.7",
  "updatedAt": "2022-06-15T16:21:33.093Z",
  "networkType": "ethereum",
  "devdoc": {
    "kind": "dev",
    "methods": {},
    "version": 1
  },
  "userdoc": {
    "kind": "user",
    "methods": {},
    "version": 1
  }
}