{
  "contractName": "MemeMarketplace",
  "abi": [
    {
      "inputs": [],
      "stateMutability": "nonpayable",
      "type": "constructor"
    },
    {
      "anonymous": false,
      "inputs": [
        {
          "indexed": true,
          "internalType": "uint256",
          "name": "itemId",
          "type": "uint256"
        },
        {
          "indexed": true,
          "internalType": "address",
          "name": "nftContract",
          "type": "address"
        },
        {
          "indexed": true,
          "internalType": "uint256",
          "name": "tokenId",
          "type": "uint256"
        },
        {
          "indexed": false,
          "internalType": "address",
          "name": "seller",
          "type": "address"
        },
        {
          "indexed": false,
          "internalType": "address",
          "name": "owner",
          "type": "address"
        },
        {
          "indexed": false,
          "internalType": "address",
          "name": "minter",
          "type": "address"
        },
        {
          "indexed": false,
          "internalType": "uint256",
          "name": "price",
          "type": "uint256"
        },
        {
          "indexed": false,
          "internalType": "bool",
          "name": "sold",
          "type": "bool"
        },
        {
          "indexed": false,
          "internalType": "bool",
          "name": "isExist",
          "type": "bool"
        }
      ],
      "name": "MarketTokenMinted",
      "type": "event"
    },
    {
      "inputs": [],
      "name": "getListingPrice",
      "outputs": [
        {
          "internalType": "uint256",
          "name": "",
          "type": "uint256"
        }
      ],
      "stateMutability": "view",
      "type": "function",
      "constant": true
    },
    {
      "inputs": [],
      "name": "getTotalSoldCount",
      "outputs": [
        {
          "internalType": "uint256",
          "name": "",
          "type": "uint256"
        }
      ],
      "stateMutability": "view",
      "type": "function",
      "constant": true
    },
    {
      "inputs": [],
      "name": "getTotalSold",
      "outputs": [
        {
          "internalType": "uint256",
          "name": "",
          "type": "uint256"
        }
      ],
      "stateMutability": "view",
      "type": "function",
      "constant": true
    },
    {
      "inputs": [],
      "name": "getCount",
      "outputs": [
        {
          "internalType": "uint256",
          "name": "",
          "type": "uint256"
        }
      ],
      "stateMutability": "view",
      "type": "function",
      "constant": true
    },
    {
      "inputs": [
        {
          "internalType": "address",
          "name": "nftContract",
          "type": "address"
        },
        {
          "internalType": "uint256",
          "name": "tokenId",
          "type": "uint256"
        }
      ],
      "name": "getOwner",
      "outputs": [
        {
          "internalType": "address",
          "name": "",
          "type": "address"
        }
      ],
      "stateMutability": "view",
      "type": "function",
      "constant": true
    },
    {
      "inputs": [
        {
          "internalType": "uint256",
          "name": "tokenId",
          "type": "uint256"
        }
      ],
      "name": "getSingleMarketToken",
      "outputs": [
        {
          "components": [
            {
              "internalType": "uint256",
              "name": "itemId",
              "type": "uint256"
            },
            {
              "internalType": "address",
              "name": "nftContract",
              "type": "address"
            },
            {
              "internalType": "uint256",
              "name": "tokenId",
              "type": "uint256"
            },
            {
              "internalType": "address payable",
              "name": "seller",
              "type": "address"
            },
            {
              "internalType": "address payable",
              "name": "owner",
              "type": "address"
            },
            {
              "internalType": "address payable",
              "name": "minter",
              "type": "address"
            },
            {
              "internalType": "uint256",
              "name": "price",
              "type": "uint256"
            },
            {
              "internalType": "bool",
              "name": "sold",
              "type": "bool"
            },
            {
              "internalType": "bool",
              "name": "isExist",
              "type": "bool"
            },
            {
              "internalType": "uint256",
              "name": "timeCreated",
              "type": "uint256"
            }
          ],
          "internalType": "struct MemeMarketplace.MarketToken",
          "name": "",
          "type": "tuple"
        }
      ],
      "stateMutability": "view",
      "type": "function",
      "constant": true
    },
    {
      "inputs": [
        {
          "internalType": "uint256",
          "name": "tokenId",
          "type": "uint256"
        }
      ],
      "name": "isTokenExists",
      "outputs": [
        {
          "internalType": "bool",
          "name": "",
          "type": "bool"
        }
      ],
      "stateMutability": "view",
      "type": "function",
      "constant": true
    },
    {
      "inputs": [
        {
          "internalType": "address",
          "name": "nftContract",
          "type": "address"
        },
        {
          "internalType": "uint256",
          "name": "tokenId",
          "type": "uint256"
        },
        {
          "internalType": "uint256",
          "name": "price",
          "type": "uint256"
        }
      ],
      "name": "makeMarketItem",
      "outputs": [],
      "stateMutability": "payable",
      "type": "function",
      "payable": true
    },
    {
      "inputs": [
        {
          "internalType": "address",
          "name": "nftContract",
          "type": "address"
        },
        {
          "internalType": "uint256",
          "name": "tokenId",
          "type": "uint256"
        }
      ],
      "name": "makeMarketItemNonSale",
      "outputs": [],
      "stateMutability": "payable",
      "type": "function",
      "payable": true
    },
    {
      "inputs": [
        {
          "internalType": "address",
          "name": "nftContract",
          "type": "address"
        },
        {
          "internalType": "uint256",
          "name": "tokenId",
          "type": "uint256"
        }
      ],
      "name": "createMarketSale",
      "outputs": [],
      "stateMutability": "payable",
      "type": "function",
      "payable": true
    },
    {
      "inputs": [
        {
          "internalType": "address",
          "name": "nftContract",
          "type": "address"
        },
        {
          "internalType": "uint256",
          "name": "tokenId",
          "type": "uint256"
        }
      ],
      "name": "cancelMarketSale",
      "outputs": [],
      "stateMutability": "payable",
      "type": "function",
      "payable": true
    },
    {
      "inputs": [],
      "name": "fetchMarketTokens",
      "outputs": [
        {
          "components": [
            {
              "internalType": "uint256",
              "name": "itemId",
              "type": "uint256"
            },
            {
              "internalType": "address",
              "name": "nftContract",
              "type": "address"
            },
            {
              "internalType": "uint256",
              "name": "tokenId",
              "type": "uint256"
            },
            {
              "internalType": "address payable",
              "name": "seller",
              "type": "address"
            },
            {
              "internalType": "address payable",
              "name": "owner",
              "type": "address"
            },
            {
              "internalType": "address payable",
              "name": "minter",
              "type": "address"
            },
            {
              "internalType": "uint256",
              "name": "price",
              "type": "uint256"
            },
            {
              "internalType": "bool",
              "name": "sold",
              "type": "bool"
            },
            {
              "internalType": "bool",
              "name": "isExist",
              "type": "bool"
            },
            {
              "internalType": "uint256",
              "name": "timeCreated",
              "type": "uint256"
            }
          ],
          "internalType": "struct MemeMarketplace.MarketToken[]",
          "name": "",
          "type": "tuple[]"
        }
      ],
      "stateMutability": "view",
      "type": "function",
      "constant": true
    },
    {
      "inputs": [],
      "name": "fetchMyNFTs",
      "outputs": [
        {
          "components": [
            {
              "internalType": "uint256",
              "name": "itemId",
              "type": "uint256"
            },
            {
              "internalType": "address",
              "name": "nftContract",
              "type": "address"
            },
            {
              "internalType": "uint256",
              "name": "tokenId",
              "type": "uint256"
            },
            {
              "internalType": "address payable",
              "name": "seller",
              "type": "address"
            },
            {
              "internalType": "address payable",
              "name": "owner",
              "type": "address"
            },
            {
              "internalType": "address payable",
              "name": "minter",
              "type": "address"
            },
            {
              "internalType": "uint256",
              "name": "price",
              "type": "uint256"
            },
            {
              "internalType": "bool",
              "name": "sold",
              "type": "bool"
            },
            {
              "internalType": "bool",
              "name": "isExist",
              "type": "bool"
            },
            {
              "internalType": "uint256",
              "name": "timeCreated",
              "type": "uint256"
            }
          ],
          "internalType": "struct MemeMarketplace.MarketToken[]",
          "name": "",
          "type": "tuple[]"
        }
      ],
      "stateMutability": "view",
      "type": "function",
      "constant": true
    },
    {
      "inputs": [],
      "name": "fetchItemsCreated",
      "outputs": [
        {
          "components": [
            {
              "internalType": "uint256",
              "name": "itemId",
              "type": "uint256"
            },
            {
              "internalType": "address",
              "name": "nftContract",
              "type": "address"
            },
            {
              "internalType": "uint256",
              "name": "tokenId",
              "type": "uint256"
            },
            {
              "internalType": "address payable",
              "name": "seller",
              "type": "address"
            },
            {
              "internalType": "address payable",
              "name": "owner",
              "type": "address"
            },
            {
              "internalType": "address payable",
              "name": "minter",
              "type": "address"
            },
            {
              "internalType": "uint256",
              "name": "price",
              "type": "uint256"
            },
            {
              "internalType": "bool",
              "name": "sold",
              "type": "bool"
            },
            {
              "internalType": "bool",
              "name": "isExist",
              "type": "bool"
            },
            {
              "internalType": "uint256",
              "name": "timeCreated",
              "type": "uint256"
            }
          ],
          "internalType": "struct MemeMarketplace.MarketToken[]",
          "name": "",
          "type": "tuple[]"
        }
      ],
      "stateMutability": "view",
      "type": "function",
      "constant": true
    },
    {
      "inputs": [],
      "name": "fetchMarketAllTokens",
      "outputs": [
        {
          "components": [
            {
              "internalType": "uint256",
              "name": "itemId",
              "type": "uint256"
            },
            {
              "internalType": "address",
              "name": "nftContract",
              "type": "address"
            },
            {
              "internalType": "uint256",
              "name": "tokenId",
              "type": "uint256"
            },
            {
              "internalType": "address payable",
              "name": "seller",
              "type": "address"
            },
            {
              "internalType": "address payable",
              "name": "owner",
              "type": "address"
            },
            {
              "internalType": "address payable",
              "name": "minter",
              "type": "address"
            },
            {
              "internalType": "uint256",
              "name": "price",
              "type": "uint256"
            },
            {
              "internalType": "bool",
              "name": "sold",
              "type": "bool"
            },
            {
              "internalType": "bool",
              "name": "isExist",
              "type": "bool"
            },
            {
              "internalType": "uint256",
              "name": "timeCreated",
              "type": "uint256"
            }
          ],
          "internalType": "struct MemeMarketplace.MarketToken[]",
          "name": "",
          "type": "tuple[]"
        }
      ],
      "stateMutability": "view",
      "type": "function",
      "constant": true
    }
  ],
  "bytecode": "0x60806040526000600355669fdf42f6e4800060055534801561002057600080fd5b50600160008190555033600460006101000a81548173ffffffffffffffffffffffffffffffffffffffff021916908373ffffffffffffffffffffffffffffffffffffffff160217905550612f39806100796000396000f3fe6080604052600436106100e85760003560e01c80637a060f561161008a578063ae78cea111610059578063ae78cea1146102cf578063c23b139e146102fa578063c69bdf7514610316578063f064c32e14610341576100e8565b80637a060f56146102325780639d7b8e681461024e578063a87d942c14610279578063ae76cd4f146102a4576100e8565b8063202e3740116100c6578063202e3740146101715780632f634a901461019c57806331f2479c146101d9578063685b3e5c14610216576100e8565b806312e85585146100ed5780631dd9cf86146101185780631f70170414610134575b600080fd5b3480156100f957600080fd5b5061010261036c565b60405161010f91906124ec565b60405180910390f35b610132600480360381019061012d9190612596565b610376565b005b34801561014057600080fd5b5061015b600480360381019061015691906125d6565b6105f3565b604051610168919061261e565b60405180910390f35b34801561017d57600080fd5b50610186610620565b6040516101939190612803565b60405180910390f35b3480156101a857600080fd5b506101c360048036038101906101be9190612596565b610af0565b6040516101d09190612834565b60405180910390f35b3480156101e557600080fd5b5061020060048036038101906101fb91906125d6565b610b74565b60405161020d919061291b565b60405180910390f35b610230600480360381019061022b9190612596565b610d58565b005b61024c60048036038101906102479190612937565b611241565b005b34801561025a57600080fd5b50610263611752565b60405161027091906124ec565b60405180910390f35b34801561028557600080fd5b5061028e61175c565b60405161029b91906124ec565b60405180910390f35b3480156102b057600080fd5b506102b961176d565b6040516102c691906124ec565b60405180910390f35b3480156102db57600080fd5b506102e461177e565b6040516102f19190612803565b60405180910390f35b610314600480360381019061030f9190612596565b611a29565b005b34801561032257600080fd5b5061032b611d00565b6040516103389190612803565b60405180910390f35b34801561034d57600080fd5b50610356612022565b6040516103639190612803565b60405180910390f35b6000600554905090565b6002600054036103bb576040517f08c379a00000000000000000000000000000000000000000000000000000000081526004016103b2906129e7565b60405180910390fd5b60026000819055506000600660008381526020019081526020016000206002015490506006600082815260200190815260200160002060030160009054906101000a900473ffffffffffffffffffffffffffffffffffffffff1673ffffffffffffffffffffffffffffffffffffffff163373ffffffffffffffffffffffffffffffffffffffff1614610482576040517f08c379a000000000000000000000000000000000000000000000000000000000815260040161047990612a53565b60405180910390fd5b8273ffffffffffffffffffffffffffffffffffffffff166323b872dd3033856040518463ffffffff1660e01b81526004016104bf93929190612a73565b600060405180830381600087803b1580156104d957600080fd5b505af11580156104ed573d6000803e3d6000fd5b50505050336006600083815260200190815260200160002060040160006101000a81548173ffffffffffffffffffffffffffffffffffffffff021916908373ffffffffffffffffffffffffffffffffffffffff160217905550336006600083815260200190815260200160002060030160006101000a81548173ffffffffffffffffffffffffffffffffffffffff021916908373ffffffffffffffffffffffffffffffffffffffff16021790555060016006600083815260200190815260200160002060070160006101000a81548160ff021916908315150217905550600060066000838152602001908152602001600020600601819055505060016000819055505050565b60006006600083815260200190815260200160002060070160019054906101000a900460ff169050919050565b6060600061062e6001612400565b905060008060005b8381101561074f573373ffffffffffffffffffffffffffffffffffffffff16600660006001846106669190612ad9565b815260200190815260200160002060040160009054906101000a900473ffffffffffffffffffffffffffffffffffffffff1673ffffffffffffffffffffffffffffffffffffffff16148061072757503373ffffffffffffffffffffffffffffffffffffffff16600660006001846106dd9190612ad9565b815260200190815260200160002060040160009054906101000a900473ffffffffffffffffffffffffffffffffffffffff1673ffffffffffffffffffffffffffffffffffffffff16145b1561073c576001836107399190612ad9565b92505b808061074790612b2f565b915050610636565b5060008367ffffffffffffffff81111561076c5761076b612b77565b5b6040519080825280602002602001820160405280156107a557816020015b610792612424565b81526020019060019003908161078a5790505b50905060005b84811015610ae5573373ffffffffffffffffffffffffffffffffffffffff16600660006001846107db9190612ad9565b815260200190815260200160002060040160009054906101000a900473ffffffffffffffffffffffffffffffffffffffff1673ffffffffffffffffffffffffffffffffffffffff16148061089c57503373ffffffffffffffffffffffffffffffffffffffff16600660006001846108529190612ad9565b815260200190815260200160002060030160009054906101000a900473ffffffffffffffffffffffffffffffffffffffff1673ffffffffffffffffffffffffffffffffffffffff16145b15610ad2576000600660006001846108b49190612ad9565b815260200190815260200160002060000154905060006006600083815260200190815260200160002090508060405180610140016040529081600082015481526020016001820160009054906101000a900473ffffffffffffffffffffffffffffffffffffffff1673ffffffffffffffffffffffffffffffffffffffff1673ffffffffffffffffffffffffffffffffffffffff168152602001600282015481526020016003820160009054906101000a900473ffffffffffffffffffffffffffffffffffffffff1673ffffffffffffffffffffffffffffffffffffffff1673ffffffffffffffffffffffffffffffffffffffff1681526020016004820160009054906101000a900473ffffffffffffffffffffffffffffffffffffffff1673ffffffffffffffffffffffffffffffffffffffff1673ffffffffffffffffffffffffffffffffffffffff1681526020016005820160009054906101000a900473ffffffffffffffffffffffffffffffffffffffff1673ffffffffffffffffffffffffffffffffffffffff1673ffffffffffffffffffffffffffffffffffffffff168152602001600682015481526020016007820160009054906101000a900460ff161515151581526020016007820160019054906101000a900460ff16151515158152602001600882015481525050848681518110610ab557610ab4612ba6565b5b6020026020010181905250600185610acd9190612ad9565b945050505b8080610add90612b2f565b9150506107ab565b508094505050505090565b60008273ffffffffffffffffffffffffffffffffffffffff16636352211e836040518263ffffffff1660e01b8152600401610b2b91906124ec565b602060405180830381865afa158015610b48573d6000803e3d6000fd5b505050506040513d601f19601f82011682018060405250810190610b6c9190612bea565b905092915050565b610b7c612424565b6006600083815260200190815260200160002060405180610140016040529081600082015481526020016001820160009054906101000a900473ffffffffffffffffffffffffffffffffffffffff1673ffffffffffffffffffffffffffffffffffffffff1673ffffffffffffffffffffffffffffffffffffffff168152602001600282015481526020016003820160009054906101000a900473ffffffffffffffffffffffffffffffffffffffff1673ffffffffffffffffffffffffffffffffffffffff1673ffffffffffffffffffffffffffffffffffffffff1681526020016004820160009054906101000a900473ffffffffffffffffffffffffffffffffffffffff1673ffffffffffffffffffffffffffffffffffffffff1673ffffffffffffffffffffffffffffffffffffffff1681526020016005820160009054906101000a900473ffffffffffffffffffffffffffffffffffffffff1673ffffffffffffffffffffffffffffffffffffffff1673ffffffffffffffffffffffffffffffffffffffff168152602001600682015481526020016007820160009054906101000a900460ff161515151581526020016007820160019054906101000a900460ff161515151581526020016008820154815250509050919050565b600260005403610d9d576040517f08c379a0000000000000000000000000000000000000000000000000000000008152600401610d94906129e7565b60405180910390fd5b60026000819055506000808373ffffffffffffffffffffffffffffffffffffffff16636352211e846040518263ffffffff1660e01b8152600401610de191906124ec565b602060405180830381865afa158015610dfe573d6000803e3d6000fd5b505050506040513d601f19601f82011682018060405250810190610e229190612bea565b90508073ffffffffffffffffffffffffffffffffffffffff163373ffffffffffffffffffffffffffffffffffffffff1614610e92576040517f08c379a0000000000000000000000000000000000000000000000000000000008152600401610e8990612a53565b60405180910390fd5b610e9b836105f3565b15610f7e57336006600085815260200190815260200160002060030160006101000a81548173ffffffffffffffffffffffffffffffffffffffff021916908373ffffffffffffffffffffffffffffffffffffffff160217905550336006600085815260200190815260200160002060040160006101000a81548173ffffffffffffffffffffffffffffffffffffffff021916908373ffffffffffffffffffffffffffffffffffffffff16021790555060016006600085815260200190815260200160002060070160006101000a81548160ff0219169083151502179055506111d6565b610f88600161240e565b610f926001612400565b91506040518061014001604052808381526020018573ffffffffffffffffffffffffffffffffffffffff1681526020018481526020013373ffffffffffffffffffffffffffffffffffffffff1681526020013373ffffffffffffffffffffffffffffffffffffffff1681526020013373ffffffffffffffffffffffffffffffffffffffff1681526020016000815260200160011515815260200160011515815260200142815250600660008581526020019081526020016000206000820151816000015560208201518160010160006101000a81548173ffffffffffffffffffffffffffffffffffffffff021916908373ffffffffffffffffffffffffffffffffffffffff1602179055506040820151816002015560608201518160030160006101000a81548173ffffffffffffffffffffffffffffffffffffffff021916908373ffffffffffffffffffffffffffffffffffffffff16021790555060808201518160040160006101000a81548173ffffffffffffffffffffffffffffffffffffffff021916908373ffffffffffffffffffffffffffffffffffffffff16021790555060a08201518160050160006101000a81548173ffffffffffffffffffffffffffffffffffffffff021916908373ffffffffffffffffffffffffffffffffffffffff16021790555060c0820151816006015560e08201518160070160006101000a81548160ff0219169083151502179055506101008201518160070160016101000a81548160ff02191690831515021790555061012082015181600801559050505b828473ffffffffffffffffffffffffffffffffffffffff16837f4eb35c3c60bb4872625f5629b63edf6fc44c316e5c83f472a8c89883bd30cf2933600033600080600160405161122b96959493929190612cb1565b60405180910390a4505060016000819055505050565b600260005403611286576040517f08c379a000000000000000000000000000000000000000000000000000000000815260040161127d906129e7565b60405180910390fd5b6002600081905550600081116112d1576040517f08c379a00000000000000000000000000000000000000000000000000000000081526004016112c890612d5e565b60405180910390fd5b600554341015611316576040517f08c379a000000000000000000000000000000000000000000000000000000000815260040161130d90612df0565b60405180910390fd5b60008373ffffffffffffffffffffffffffffffffffffffff166323b872dd3330866040518463ffffffff1660e01b815260040161135593929190612a73565b600060405180830381600087803b15801561136f57600080fd5b505af1158015611383573d6000803e3d6000fd5b50505050611390836105f3565b1561148f57336006600085815260200190815260200160002060030160006101000a81548173ffffffffffffffffffffffffffffffffffffffff021916908373ffffffffffffffffffffffffffffffffffffffff16021790555060006006600085815260200190815260200160002060040160006101000a81548173ffffffffffffffffffffffffffffffffffffffff021916908373ffffffffffffffffffffffffffffffffffffffff16021790555081600660008581526020019081526020016000206006018190555060006006600085815260200190815260200160002060070160006101000a81548160ff0219169083151502179055506116e7565b611499600161240e565b6114a36001612400565b90506040518061014001604052808281526020018573ffffffffffffffffffffffffffffffffffffffff1681526020018481526020013373ffffffffffffffffffffffffffffffffffffffff168152602001600073ffffffffffffffffffffffffffffffffffffffff1681526020013373ffffffffffffffffffffffffffffffffffffffff16815260200183815260200160001515815260200160011515815260200142815250600660008581526020019081526020016000206000820151816000015560208201518160010160006101000a81548173ffffffffffffffffffffffffffffffffffffffff021916908373ffffffffffffffffffffffffffffffffffffffff1602179055506040820151816002015560608201518160030160006101000a81548173ffffffffffffffffffffffffffffffffffffffff021916908373ffffffffffffffffffffffffffffffffffffffff16021790555060808201518160040160006101000a81548173ffffffffffffffffffffffffffffffffffffffff021916908373ffffffffffffffffffffffffffffffffffffffff16021790555060a08201518160050160006101000a81548173ffffffffffffffffffffffffffffffffffffffff021916908373ffffffffffffffffffffffffffffffffffffffff16021790555060c0820151816006015560e08201518160070160006101000a81548160ff0219169083151502179055506101008201518160070160016101000a81548160ff02191690831515021790555061012082015181600801559050505b828473ffffffffffffffffffffffffffffffffffffffff16827f4eb35c3c60bb4872625f5629b63edf6fc44c316e5c83f472a8c89883bd30cf2933600033886000600160405161173c96959493929190612e10565b60405180910390a4506001600081905550505050565b6000600354905090565b60006117686001612400565b905090565b60006117796002612400565b905090565b6060600061178c6001612400565b90506000808267ffffffffffffffff8111156117ab576117aa612b77565b5b6040519080825280602002602001820160405280156117e457816020015b6117d1612424565b8152602001906001900390816117c95790505b50905060005b83811015611a1f5760006001826118019190612ad9565b905060006006600083815260200190815260200160002090508060405180610140016040529081600082015481526020016001820160009054906101000a900473ffffffffffffffffffffffffffffffffffffffff1673ffffffffffffffffffffffffffffffffffffffff1673ffffffffffffffffffffffffffffffffffffffff168152602001600282015481526020016003820160009054906101000a900473ffffffffffffffffffffffffffffffffffffffff1673ffffffffffffffffffffffffffffffffffffffff1673ffffffffffffffffffffffffffffffffffffffff1681526020016004820160009054906101000a900473ffffffffffffffffffffffffffffffffffffffff1673ffffffffffffffffffffffffffffffffffffffff1673ffffffffffffffffffffffffffffffffffffffff1681526020016005820160009054906101000a900473ffffffffffffffffffffffffffffffffffffffff1673ffffffffffffffffffffffffffffffffffffffff1673ffffffffffffffffffffffffffffffffffffffff168152602001600682015481526020016007820160009054906101000a900460ff161515151581526020016007820160019054906101000a900460ff161515151581526020016008820154815250508486815181106119f0576119ef612ba6565b5b6020026020010181905250600185611a089190612ad9565b945050508080611a1790612b2f565b9150506117ea565b5080935050505090565b600260005403611a6e576040517f08c379a0000000000000000000000000000000000000000000000000000000008152600401611a65906129e7565b60405180910390fd5b6002600081905550600060066000838152602001908152602001600020600601549050600060066000848152602001908152602001600020600201549050813414611aee576040517f08c379a0000000000000000000000000000000000000000000000000000000008152600401611ae590612ee3565b60405180910390fd5b6006600082815260200190815260200160002060030160009054906101000a900473ffffffffffffffffffffffffffffffffffffffff1673ffffffffffffffffffffffffffffffffffffffff166108fc349081150290604051600060405180830381858888f19350505050158015611b6a573d6000803e3d6000fd5b508373ffffffffffffffffffffffffffffffffffffffff166323b872dd3033866040518463ffffffff1660e01b8152600401611ba893929190612a73565b600060405180830381600087803b158015611bc257600080fd5b505af1158015611bd6573d6000803e3d6000fd5b50505050611be4600261240e565b8160036000828254611bf69190612ad9565b92505081905550336006600083815260200190815260200160002060040160006101000a81548173ffffffffffffffffffffffffffffffffffffffff021916908373ffffffffffffffffffffffffffffffffffffffff160217905550336006600083815260200190815260200160002060030160006101000a81548173ffffffffffffffffffffffffffffffffffffffff021916908373ffffffffffffffffffffffffffffffffffffffff16021790555060016006600083815260200190815260200160002060070160006101000a81548160ff02191690831515021790555060006006600083815260200190815260200160002060060181905550505060016000819055505050565b60606000611d0e6001612400565b90506000808267ffffffffffffffff811115611d2d57611d2c612b77565b5b604051908082528060200260200182016040528015611d6657816020015b611d53612424565b815260200190600190039081611d4b5790505b50905060005b8381101561201857600073ffffffffffffffffffffffffffffffffffffffff1660066000600184611d9d9190612ad9565b815260200190815260200160002060040160009054906101000a900473ffffffffffffffffffffffffffffffffffffffff1673ffffffffffffffffffffffffffffffffffffffff1603612005576000600182611df99190612ad9565b905060006006600083815260200190815260200160002090508060405180610140016040529081600082015481526020016001820160009054906101000a900473ffffffffffffffffffffffffffffffffffffffff1673ffffffffffffffffffffffffffffffffffffffff1673ffffffffffffffffffffffffffffffffffffffff168152602001600282015481526020016003820160009054906101000a900473ffffffffffffffffffffffffffffffffffffffff1673ffffffffffffffffffffffffffffffffffffffff1673ffffffffffffffffffffffffffffffffffffffff1681526020016004820160009054906101000a900473ffffffffffffffffffffffffffffffffffffffff1673ffffffffffffffffffffffffffffffffffffffff1673ffffffffffffffffffffffffffffffffffffffff1681526020016005820160009054906101000a900473ffffffffffffffffffffffffffffffffffffffff1673ffffffffffffffffffffffffffffffffffffffff1673ffffffffffffffffffffffffffffffffffffffff168152602001600682015481526020016007820160009054906101000a900460ff161515151581526020016007820160019054906101000a900460ff16151515158152602001600882015481525050848681518110611fe857611fe7612ba6565b5b60200260200101819052506001856120009190612ad9565b945050505b808061201090612b2f565b915050611d6c565b5080935050505090565b606060006120306001612400565b905060008060005b838110156120d8573373ffffffffffffffffffffffffffffffffffffffff16600660006001846120689190612ad9565b815260200190815260200160002060050160009054906101000a900473ffffffffffffffffffffffffffffffffffffffff1673ffffffffffffffffffffffffffffffffffffffff16036120c5576001836120c29190612ad9565b92505b80806120d090612b2f565b915050612038565b5060008267ffffffffffffffff8111156120f5576120f4612b77565b5b60405190808252806020026020018201604052801561212e57816020015b61211b612424565b8152602001906001900390816121135790505b50905060005b848110156123f5573373ffffffffffffffffffffffffffffffffffffffff16600660006001846121649190612ad9565b815260200190815260200160002060030160009054906101000a900473ffffffffffffffffffffffffffffffffffffffff1673ffffffffffffffffffffffffffffffffffffffff16036123e2576000600660006001846121c49190612ad9565b815260200190815260200160002060000154905060006006600083815260200190815260200160002090508060405180610140016040529081600082015481526020016001820160009054906101000a900473ffffffffffffffffffffffffffffffffffffffff1673ffffffffffffffffffffffffffffffffffffffff1673ffffffffffffffffffffffffffffffffffffffff168152602001600282015481526020016003820160009054906101000a900473ffffffffffffffffffffffffffffffffffffffff1673ffffffffffffffffffffffffffffffffffffffff1673ffffffffffffffffffffffffffffffffffffffff1681526020016004820160009054906101000a900473ffffffffffffffffffffffffffffffffffffffff1673ffffffffffffffffffffffffffffffffffffffff1673ffffffffffffffffffffffffffffffffffffffff1681526020016005820160009054906101000a900473ffffffffffffffffffffffffffffffffffffffff1673ffffffffffffffffffffffffffffffffffffffff1673ffffffffffffffffffffffffffffffffffffffff168152602001600682015481526020016007820160009054906101000a900460ff161515151581526020016007820160019054906101000a900460ff161515151581526020016008820154815250508486815181106123c5576123c4612ba6565b5b60200260200101819052506001856123dd9190612ad9565b945050505b80806123ed90612b2f565b915050612134565b508094505050505090565b600081600001549050919050565b6001816000016000828254019250508190555050565b60405180610140016040528060008152602001600073ffffffffffffffffffffffffffffffffffffffff16815260200160008152602001600073ffffffffffffffffffffffffffffffffffffffff168152602001600073ffffffffffffffffffffffffffffffffffffffff168152602001600073ffffffffffffffffffffffffffffffffffffffff16815260200160008152602001600015158152602001600015158152602001600081525090565b6000819050919050565b6124e6816124d3565b82525050565b600060208201905061250160008301846124dd565b92915050565b600080fd5b600073ffffffffffffffffffffffffffffffffffffffff82169050919050565b60006125378261250c565b9050919050565b6125478161252c565b811461255257600080fd5b50565b6000813590506125648161253e565b92915050565b612573816124d3565b811461257e57600080fd5b50565b6000813590506125908161256a565b92915050565b600080604083850312156125ad576125ac612507565b5b60006125bb85828601612555565b92505060206125cc85828601612581565b9150509250929050565b6000602082840312156125ec576125eb612507565b5b60006125fa84828501612581565b91505092915050565b60008115159050919050565b61261881612603565b82525050565b6000602082019050612633600083018461260f565b92915050565b600081519050919050565b600082825260208201905092915050565b6000819050602082019050919050565b61266e816124d3565b82525050565b61267d8161252c565b82525050565b600061268e8261250c565b9050919050565b61269e81612683565b82525050565b6126ad81612603565b82525050565b610140820160008201516126ca6000850182612665565b5060208201516126dd6020850182612674565b5060408201516126f06040850182612665565b5060608201516127036060850182612695565b5060808201516127166080850182612695565b5060a082015161272960a0850182612695565b5060c082015161273c60c0850182612665565b5060e082015161274f60e08501826126a4565b506101008201516127646101008501826126a4565b50610120820151612779610120850182612665565b50505050565b600061278b83836126b3565b6101408301905092915050565b6000602082019050919050565b60006127b082612639565b6127ba8185612644565b93506127c583612655565b8060005b838110156127f65781516127dd888261277f565b97506127e883612798565b9250506001810190506127c9565b5085935050505092915050565b6000602082019050818103600083015261281d81846127a5565b905092915050565b61282e8161252c565b82525050565b60006020820190506128496000830184612825565b92915050565b610140820160008201516128666000850182612665565b5060208201516128796020850182612674565b50604082015161288c6040850182612665565b50606082015161289f6060850182612695565b5060808201516128b26080850182612695565b5060a08201516128c560a0850182612695565b5060c08201516128d860c0850182612665565b5060e08201516128eb60e08501826126a4565b506101008201516129006101008501826126a4565b50610120820151612915610120850182612665565b50505050565b600061014082019050612931600083018461284f565b92915050565b6000806000606084860312156129505761294f612507565b5b600061295e86828701612555565b935050602061296f86828701612581565b925050604061298086828701612581565b9150509250925092565b600082825260208201905092915050565b7f5265656e7472616e637947756172643a207265656e7472616e742063616c6c00600082015250565b60006129d1601f8361298a565b91506129dc8261299b565b602082019050919050565b60006020820190508181036000830152612a00816129c4565b9050919050565b7f596f752063616e6e6f74206d616e6167652074686973204e4654730000000000600082015250565b6000612a3d601b8361298a565b9150612a4882612a07565b602082019050919050565b60006020820190508181036000830152612a6c81612a30565b9050919050565b6000606082019050612a886000830186612825565b612a956020830185612825565b612aa260408301846124dd565b949350505050565b7f4e487b7100000000000000000000000000000000000000000000000000000000600052601160045260246000fd5b6000612ae4826124d3565b9150612aef836124d3565b9250827fffffffffffffffffffffffffffffffffffffffffffffffffffffffffffffffff03821115612b2457612b23612aaa565b5b828201905092915050565b6000612b3a826124d3565b91507fffffffffffffffffffffffffffffffffffffffffffffffffffffffffffffffff8203612b6c57612b6b612aaa565b5b600182019050919050565b7f4e487b7100000000000000000000000000000000000000000000000000000000600052604160045260246000fd5b7f4e487b7100000000000000000000000000000000000000000000000000000000600052603260045260246000fd5b600081519050612be48161253e565b92915050565b600060208284031215612c0057612bff612507565b5b6000612c0e84828501612bd5565b91505092915050565b6000819050919050565b6000612c3c612c37612c328461250c565b612c17565b61250c565b9050919050565b6000612c4e82612c21565b9050919050565b6000612c6082612c43565b9050919050565b612c7081612c55565b82525050565b6000819050919050565b6000612c9b612c96612c9184612c76565b612c17565b6124d3565b9050919050565b612cab81612c80565b82525050565b600060c082019050612cc66000830189612c67565b612cd36020830188612825565b612ce06040830187612c67565b612ced6060830186612ca2565b612cfa608083018561260f565b612d0760a083018461260f565b979650505050505050565b7f5072696365206d757374206265206174206c65617374206f6e65207765690000600082015250565b6000612d48601e8361298a565b9150612d5382612d12565b602082019050919050565b60006020820190508181036000830152612d7781612d3b565b9050919050565b7f7472616e73616374696f6e2076616c7565206d75737420626520657175616c2060008201527f746f206c697374696e6720707269636500000000000000000000000000000000602082015250565b6000612dda60308361298a565b9150612de582612d7e565b604082019050919050565b60006020820190508181036000830152612e0981612dcd565b9050919050565b600060c082019050612e256000830189612c67565b612e326020830188612825565b612e3f6040830187612c67565b612e4c60608301866124dd565b612e59608083018561260f565b612e6660a083018461260f565b979650505050505050565b7f506c65617365207375626d6974207468652061736b696e67207072696365206960008201527f6e206f7264657220746f20636f6e74696e756500000000000000000000000000602082015250565b6000612ecd60338361298a565b9150612ed882612e71565b604082019050919050565b60006020820190508181036000830152612efc81612ec0565b905091905056fea2646970667358221220e1d5d7e0b4dfcd281d310c30f97fcb75605740756b174349ec06d275e5a8eebb64736f6c634300080d0033",
  "immutableReferences": {},
  "source": "//SPDX-License-Identifier: MIT\r\npragma solidity ^0.8.4;\r\n\r\nimport '@openzeppelin/contracts/token/ERC721/ERC721.sol';\r\n// security against transactions for multiple request\r\nimport '@openzeppelin/contracts/security/ReentrancyGuard.sol';\r\nimport '@openzeppelin/contracts/utils/Counters.sol';\r\n\r\ncontract MemeMarketplace is ReentrancyGuard {\r\n    using Counters for Counters.Counter;\r\n\r\n    /* number of items minting, number of transactions, token that have not been sold\r\n    keep track of tokens total number - tokenId\r\n    arrays need to know the lentgth - help to keep track for arrays */\r\n\r\n    Counters.Counter private _tokenIds;\r\n    Counters.Counter private _tokensSold;\r\n    uint256 totalEthSold = 0;\r\n\r\n    // determine who is the owner of the contract\r\n    // charge a listing fee so the owner makes a commission\r\n\r\n    address payable owner;\r\n    // we are deploying to matic the API is the same so you can use ether the same as matic\r\n    // they both have 18 deimal\r\n    // mind the matic vs ether price!\r\n    uint256 listingPrice = 0.045 ether;\r\n\r\n    constructor() {\r\n        //set the owner\r\n        owner = payable(msg.sender);\r\n    }\r\n\r\n    // structs can act like objects\r\n\r\n    struct MarketToken {\r\n        uint itemId;\r\n        address nftContract;\r\n        uint256 tokenId;\r\n        address payable seller;\r\n        address payable owner;\r\n        address payable minter;\r\n        uint256 price;\r\n        bool sold;\r\n        bool isExist;\r\n        uint timeCreated;\r\n    }\r\n\r\n    // tokenId return which marketToken - fetch which one it is\r\n\r\n    mapping(uint256 => MarketToken) private idToMarketToken;\r\n\r\n    // listen to events from front end applications\r\n    event MarketTokenMinted(\r\n        uint indexed itemId,\r\n        address indexed nftContract,\r\n        uint indexed tokenId,\r\n        address seller,\r\n        address owner,\r\n        address minter,\r\n        uint256 price,\r\n        bool sold,\r\n        bool isExist\r\n    );\r\n\r\n    // get the listing price\r\n    function getListingPrice() public view returns (uint256) {\r\n        return listingPrice;\r\n    }\r\n\r\n    // get the total sold\r\n    function getTotalSoldCount() public view returns (uint256) {\r\n        return _tokensSold.current();\r\n    }\r\n\r\n    // get the total sold in currency\r\n    function getTotalSold() public view returns (uint256) {\r\n        return totalEthSold;\r\n    }\r\n\r\n    function getCount() public view returns (uint) {\r\n        return _tokenIds.current();\r\n    }\r\n\r\n    // check the owner of NFTs\r\n    function getOwner(address nftContract, uint tokenId) public view returns (address) {\r\n        return IERC721(nftContract).ownerOf(tokenId);\r\n    }\r\n\r\n    // check if tokenId exists\r\n    function getSingleMarketToken(uint256 tokenId) public view returns (MarketToken memory) {\r\n        return idToMarketToken[tokenId];\r\n    }\r\n\r\n        // check if tokenId exists\r\n    function isTokenExists(uint256 tokenId) public view returns (bool) {\r\n        return idToMarketToken[tokenId].isExist;\r\n    }\r\n\r\n    // two functios to interact with contract\r\n    // 1. create a market item to put it up for sale\r\n    // 2. create a market sale for buying and selling between parties\r\n\r\n    function makeMarketItem(\r\n        address nftContract,\r\n        uint tokenId,\r\n        uint price\r\n    ) \r\n    public payable nonReentrant {\r\n        // nonReentrant is a modifier to prevent reentry attack\r\n\r\n        require(price > 0, 'Price must be at least one wei');\r\n        require(msg.value >= listingPrice, 'transaction value must be equal to listing price');\r\n        uint itemId;\r\n        // // approve marketplace\r\n        // IERC721(nftContract).approve(address(this),tokenId); \r\n        //NFT transaction\r\n        IERC721(nftContract).transferFrom(msg.sender, address(this), tokenId);\r\n\r\n        if (isTokenExists(tokenId)) {\r\n            // this mean token exist in marketplace before\r\n            idToMarketToken[tokenId].seller = payable(msg.sender);\r\n            idToMarketToken[tokenId].owner = payable(address(0));\r\n            idToMarketToken[tokenId].price = price;\r\n            idToMarketToken[tokenId].sold = false;\r\n          \r\n        } else {\r\n            // this mean token is new in market place\r\n            _tokenIds.increment();\r\n            itemId = _tokenIds.current();\r\n\r\n            //putting it up for sale - bool - no owner\r\n            idToMarketToken[tokenId] = MarketToken(\r\n                itemId,\r\n                nftContract,\r\n                tokenId,\r\n                payable(msg.sender),\r\n                payable(address(0)),\r\n                payable(msg.sender),\r\n                price,\r\n                false,\r\n                true,\r\n                block.timestamp          \r\n            );\r\n        }\r\n\r\n\r\n    \r\n\r\n        emit MarketTokenMinted(\r\n            itemId, \r\n            nftContract, \r\n            tokenId, \r\n            payable(msg.sender), \r\n            address(0), \r\n            payable(msg.sender), \r\n            price, \r\n            false,\r\n            true\r\n        );\r\n\r\n    }\r\n\r\n    // two functios to interact with contract\r\n    // 1. create a market item but not sale\r\n\r\n    function makeMarketItemNonSale(\r\n        address nftContract,\r\n        uint tokenId\r\n    ) \r\n    public payable nonReentrant {\r\n        // nonReentrant is a modifier to prevent reentry attack\r\n\r\n        // require(price > 0, 'Price must be at least one wei');\r\n        // require(msg.value > listingPrice, 'transaction value must be equal to listing price');\r\n        uint itemId;\r\n        address ownerNow = IERC721(nftContract).ownerOf(tokenId);\r\n        require(payable(msg.sender) == ownerNow, 'You cannot manage this NFTs');\r\n        // require(msg.value >= listingPrice, 'transaction value must be equal to listing price');\r\n\r\n        if (isTokenExists(tokenId)) {\r\n            // this mean token exist in marketplace before\r\n            idToMarketToken[tokenId].seller = payable(msg.sender);\r\n            idToMarketToken[tokenId].owner = payable(msg.sender);\r\n            idToMarketToken[tokenId].sold = true;\r\n          \r\n        } else {\r\n            // this mean token is new in market place\r\n            _tokenIds.increment();\r\n            itemId = _tokenIds.current();\r\n\r\n            //putting it up for sale - bool - no owner\r\n            idToMarketToken[tokenId] = MarketToken(\r\n                itemId,\r\n                nftContract,\r\n                tokenId,\r\n                payable(msg.sender),\r\n                payable(msg.sender),\r\n                payable(msg.sender),\r\n                0,\r\n                true,\r\n                true,\r\n                block.timestamp           \r\n            );\r\n        }\r\n\r\n\r\n        emit MarketTokenMinted(\r\n            itemId, \r\n            nftContract, \r\n            tokenId, \r\n            payable(msg.sender), \r\n            address(0), \r\n            payable(msg.sender), \r\n            0, \r\n            false,\r\n            true\r\n        );\r\n\r\n    }\r\n\r\n    // function to conduct transactions and market sales\r\n\r\n    function createMarketSale(\r\n        address nftContract,\r\n        uint tokenId\r\n    )\r\n    public payable nonReentrant {\r\n        uint price = idToMarketToken[tokenId].price;\r\n        uint currTokenId = idToMarketToken[tokenId].tokenId;\r\n\r\n        require(msg.value == price, 'Please submit the asking price in order to continue');\r\n\r\n        // transfer the amount to the seller\r\n        idToMarketToken[currTokenId].seller.transfer(msg.value);\r\n\r\n        // transfer the token from contract address to the buyer\r\n        ERC721(nftContract).transferFrom(address(this), msg.sender, tokenId);\r\n        _tokensSold.increment();\r\n        totalEthSold += price;\r\n        idToMarketToken[currTokenId].owner = payable(msg.sender);\r\n        idToMarketToken[currTokenId].seller = payable(msg.sender);\r\n        idToMarketToken[currTokenId].sold = true;\r\n        idToMarketToken[currTokenId].price = 0;\r\n\r\n\r\n        // payable(owner).transfer(listingPrice);\r\n\r\n    }\r\n\r\n    // function to cancel NFT listing\r\n\r\n    function cancelMarketSale(\r\n        address nftContract,\r\n        uint tokenId\r\n    )\r\n    public payable nonReentrant {\r\n\r\n\r\n\r\n\r\n        // uint price = idToMarketToken[tokenId].price;\r\n        uint currTokenId = idToMarketToken[tokenId].tokenId;\r\n\r\n        // address ownerNow = IERC721(nftContract).ownerOf(tokenId);\r\n        require(payable(msg.sender) == idToMarketToken[currTokenId].seller, 'You cannot manage this NFTs');\r\n\r\n\r\n        // transfer the token from contract address to the owner back\r\n        ERC721(nftContract).transferFrom(address(this), msg.sender, tokenId);\r\n        idToMarketToken[currTokenId].owner = payable(msg.sender);\r\n        idToMarketToken[currTokenId].seller = payable(msg.sender);\r\n        idToMarketToken[currTokenId].sold = true;\r\n        idToMarketToken[currTokenId].price = 0;\r\n        // _tokensSold.increment();\r\n\r\n        // transfer back the listing price\r\n        // idToMarketToken[currTokenId].seller.transfer(listingPrice);\r\n\r\n    }\r\n\r\n    //function to fetchMarketItems - minting, buying and selling\r\n    // return the number of unsold items\r\n\r\n    function fetchMarketTokens() public view returns(MarketToken[] memory) {\r\n        uint itemCount = _tokenIds.current();\r\n        // uint unsoldItemCount = itemCount - _tokensSold.current();\r\n        uint currentIndex = 0;\r\n\r\n        // looping over the number of items created (if number has not been sold populate the array)\r\n        MarketToken[] memory items = new MarketToken[](itemCount);\r\n        for (uint i=0; i < itemCount; i++) {\r\n            if (idToMarketToken[i + 1].owner == address(0)) {\r\n                uint currentId = i + 1;\r\n                MarketToken storage currentItem = idToMarketToken[currentId];\r\n                items[currentIndex] = currentItem;\r\n                currentIndex += 1;\r\n            }\r\n        }\r\n        return items;\r\n    }\r\n\r\n    // return nfts that the user has purchased\r\n\r\n    function fetchMyNFTs() public view returns (MarketToken[] memory) {\r\n        uint totalItemCount = _tokenIds.current();\r\n        // a second counter for each individual user\r\n        uint itemCount = 0;\r\n        uint currentIndex = 0;\r\n\r\n        for (uint i = 0; i < totalItemCount; i++) {\r\n            if(idToMarketToken[i + 1].owner == msg.sender || idToMarketToken[i + 1].owner == payable(msg.sender)) {\r\n                itemCount += 1;\r\n            }\r\n        }\r\n\r\n        // MarketToken[] memory items = new MarketToken[](itemCount);\r\n        // for (uint i = 0; i < totalItemCount; i++) {\r\n        //     if (idToMarketToken[i + 1].owner == msg.sender || idToMarketToken[i + 1].owner == payable(msg.sender)) {\r\n        //         uint currentId = idToMarketToken[i + 1].itemId;\r\n        //         // current aray\r\n        //         MarketToken storage currenItem = idToMarketToken[currentId];\r\n        //         items[currentIndex] = currenItem;\r\n        //         currentIndex += 1;\r\n        //     }\r\n        // }\r\n\r\n        MarketToken[] memory items = new MarketToken[](totalItemCount);\r\n        for (uint i = 0; i < totalItemCount; i++) {\r\n            if (idToMarketToken[i + 1].owner == msg.sender || idToMarketToken[i + 1].seller == msg.sender) {\r\n                uint currentId = idToMarketToken[i + 1].itemId;\r\n                // current aray\r\n                MarketToken storage currenItem = idToMarketToken[currentId];\r\n                items[currentIndex] = currenItem;\r\n                currentIndex += 1;\r\n            }\r\n        }\r\n        return items;\r\n    }\r\n\r\n    //function for returning an array of minted nfts\r\n    function fetchItemsCreated() public view returns(MarketToken[] memory) {\r\n        // insted of owner, it will be the seller\r\n        uint totalItemCount = _tokenIds.current();\r\n        uint itemCount = 0;\r\n        uint currentIndex = 0;\r\n\r\n        for (uint i = 0; i < totalItemCount; i++) {\r\n            if (idToMarketToken[i + 1].minter == msg.sender) {\r\n                itemCount += 1;\r\n            }\r\n        }\r\n\r\n        MarketToken[] memory items = new MarketToken[](itemCount);\r\n\r\n        for (uint i = 0; i < totalItemCount; i++) {\r\n            if (idToMarketToken[i + 1].seller == msg.sender) {\r\n                uint currentId = idToMarketToken[i + 1].itemId;\r\n                MarketToken storage currentItem = idToMarketToken[currentId];\r\n                items[currentIndex] = currentItem;\r\n                currentIndex += 1;\r\n            }\r\n        }\r\n        return items;\r\n    }\r\n\r\n    //function to fetchAllItems - \r\n    // return the number of all items\r\n\r\n    function fetchMarketAllTokens() public view returns(MarketToken[] memory) {\r\n        uint itemCount = _tokenIds.current();\r\n        // uint unsoldItemCount = itemCount - _tokensSold.current();\r\n        uint currentIndex = 0;\r\n\r\n        // looping over the number of items created (if number has not been sold populate the array)\r\n        MarketToken[] memory items = new MarketToken[](itemCount);\r\n        for (uint i=0; i < itemCount; i++) {\r\n\r\n            uint currentId = i + 1;\r\n            MarketToken storage currentItem = idToMarketToken[currentId];\r\n            items[currentIndex] = currentItem;\r\n            currentIndex += 1;\r\n        \r\n        }\r\n        return items;\r\n    }\r\n\r\n\r\n\r\n}",
  "sourcePath": "D:\\react-next-js\\meme-chain\\contracts\\MemeMarketplace.sol",
  "compiler": {
    "name": "solc",
    "version": "0.8.13+commit.abaa5c0e.Emscripten.clang"
  },
  "schemaVersion": "3.4.7",
  "updatedAt": "2022-06-28T11:38:07.099Z",
  "networkType": "ethereum",
  "devdoc": {
    "kind": "dev",
    "methods": {},
    "version": 1
  },
  "userdoc": {
    "kind": "user",
    "methods": {},
    "version": 1
  }
}